{
	"test_contract.sol": {
		"HelloWorld": {
			"abi": [
				{
					"inputs": [
						{
							"internalType": "string",
							"name": "userName",
							"type": "string"
						},
						{
							"internalType": "uint256",
							"name": "userAge",
							"type": "uint256"
						}
					],
					"name": "setNewUser",
					"outputs": [],
					"stateMutability": "nonpayable",
					"type": "function"
				},
				{
					"inputs": [
						{
							"internalType": "uint256",
							"name": "",
							"type": "uint256"
						}
					],
					"name": "usersList",
					"outputs": [
						{
							"internalType": "string",
							"name": "name",
							"type": "string"
						},
						{
							"internalType": "uint256",
							"name": "age",
							"type": "uint256"
						}
					],
					"stateMutability": "view",
					"type": "function"
				}
			],
			"devdoc": {
				"kind": "dev",
				"methods": {},
				"version": 1
			},
			"evm": {
				"assembly": "    /* \"test_contract.sol\":58:349  contract HelloWorld {... */\n  mstore(0x40, 0x80)\n  callvalue\n  dup1\n  iszero\n  tag_1\n  jumpi\n  0x00\n  dup1\n  revert\ntag_1:\n  pop\n  dataSize(sub_0)\n  dup1\n  dataOffset(sub_0)\n  0x00\n  codecopy\n  0x00\n  return\nstop\n\nsub_0: assembly {\n        /* \"test_contract.sol\":58:349  contract HelloWorld {... */\n      mstore(0x40, 0x80)\n      callvalue\n      dup1\n      iszero\n      tag_1\n      jumpi\n      0x00\n      dup1\n      revert\n    tag_1:\n      pop\n      jumpi(tag_2, lt(calldatasize, 0x04))\n      shr(0xe0, calldataload(0x00))\n      dup1\n      0x502aa3b5\n      eq\n      tag_3\n      jumpi\n      dup1\n      0xa685e334\n      eq\n      tag_4\n      jumpi\n    tag_2:\n      0x00\n      dup1\n      revert\n        /* \"test_contract.sol\":157:180  user[] public usersList */\n    tag_3:\n      tag_5\n      0x04\n      dup1\n      calldatasize\n      sub\n      dup2\n      add\n      swap1\n      tag_6\n      swap2\n      swap1\n      tag_7\n      jump\t// in\n    tag_6:\n      tag_8\n      jump\t// in\n    tag_5:\n      mload(0x40)\n      tag_9\n      swap3\n      swap2\n      swap1\n      tag_10\n      jump\t// in\n    tag_9:\n      mload(0x40)\n      dup1\n      swap2\n      sub\n      swap1\n      return\n        /* \"test_contract.sol\":191:336  function setNewUser(string calldata userName, uint256 userAge) public {... */\n    tag_4:\n      tag_11\n      0x04\n      dup1\n      calldatasize\n      sub\n      dup2\n      add\n      swap1\n      tag_12\n      swap2\n      swap1\n      tag_13\n      jump\t// in\n    tag_12:\n      tag_14\n      jump\t// in\n    tag_11:\n      stop\n        /* \"test_contract.sol\":157:180  user[] public usersList */\n    tag_8:\n      0x00\n      dup2\n      dup2\n      sload\n      dup2\n      lt\n      tag_15\n      jumpi\n      0x00\n      dup1\n      revert\n    tag_15:\n      swap1\n      0x00\n      mstore\n      keccak256(0x00, 0x20)\n      swap1\n      0x02\n      mul\n      add\n      0x00\n      swap2\n      pop\n      swap1\n      pop\n      dup1\n      0x00\n      add\n      dup1\n      sload\n      tag_17\n      swap1\n      tag_18\n      jump\t// in\n    tag_17:\n      dup1\n      0x1f\n      add\n      0x20\n      dup1\n      swap2\n      div\n      mul\n      0x20\n      add\n      mload(0x40)\n      swap1\n      dup2\n      add\n      0x40\n      mstore\n      dup1\n      swap3\n      swap2\n      swap1\n      dup2\n      dup2\n      mstore\n      0x20\n      add\n      dup3\n      dup1\n      sload\n      tag_19\n      swap1\n      tag_18\n      jump\t// in\n    tag_19:\n      dup1\n      iszero\n      tag_20\n      jumpi\n      dup1\n      0x1f\n      lt\n      tag_21\n      jumpi\n      0x0100\n      dup1\n      dup4\n      sload\n      div\n      mul\n      dup4\n      mstore\n      swap2\n      0x20\n      add\n      swap2\n      jump(tag_20)\n    tag_21:\n      dup3\n      add\n      swap2\n      swap1\n      0x00\n      mstore\n      keccak256(0x00, 0x20)\n      swap1\n    tag_22:\n      dup2\n      sload\n      dup2\n      mstore\n      swap1\n      0x01\n      add\n      swap1\n      0x20\n      add\n      dup1\n      dup4\n      gt\n      tag_22\n      jumpi\n      dup3\n      swap1\n      sub\n      0x1f\n      and\n      dup3\n      add\n      swap2\n    tag_20:\n      pop\n      pop\n      pop\n      pop\n      pop\n      swap1\n      dup1\n      0x01\n      add\n      sload\n      swap1\n      pop\n      dup3\n      jump\t// out\n        /* \"test_contract.sol\":191:336  function setNewUser(string calldata userName, uint256 userAge) public {... */\n    tag_14:\n        /* \"test_contract.sol\":289:298  usersList */\n      0x00\n        /* \"test_contract.sol\":304:326  user(userName,userAge) */\n      mload(0x40)\n      dup1\n      0x40\n      add\n      0x40\n      mstore\n      dup1\n        /* \"test_contract.sol\":309:317  userName */\n      dup6\n      dup6\n        /* \"test_contract.sol\":304:326  user(userName,userAge) */\n      dup1\n      dup1\n      0x1f\n      add\n      0x20\n      dup1\n      swap2\n      div\n      mul\n      0x20\n      add\n      mload(0x40)\n      swap1\n      dup2\n      add\n      0x40\n      mstore\n      dup1\n      swap4\n      swap3\n      swap2\n      swap1\n      dup2\n      dup2\n      mstore\n      0x20\n      add\n      dup4\n      dup4\n      dup1\n      dup3\n      dup5\n      calldatacopy\n      0x00\n      dup2\n      dup5\n      add\n      mstore\n      not(0x1f)\n      0x1f\n      dup3\n      add\n      and\n      swap1\n      pop\n      dup1\n      dup4\n      add\n      swap3\n      pop\n      pop\n      pop\n      pop\n      pop\n      pop\n      pop\n      dup2\n      mstore\n      0x20\n      add\n        /* \"test_contract.sol\":318:325  userAge */\n      dup4\n        /* \"test_contract.sol\":304:326  user(userName,userAge) */\n      dup2\n      mstore\n      pop\n        /* \"test_contract.sol\":289:327  usersList.push(user(userName,userAge)) */\n      swap1\n      dup1\n      0x01\n      dup2\n      sload\n      add\n      dup1\n      dup3\n      sstore\n      dup1\n      swap2\n      pop\n      pop\n      0x01\n      swap1\n      sub\n      swap1\n      0x00\n      mstore\n      keccak256(0x00, 0x20)\n      swap1\n      0x02\n      mul\n      add\n      0x00\n      swap1\n      swap2\n      swap1\n      swap2\n      swap1\n      swap2\n      pop\n      0x00\n      dup3\n      add\n      mload\n      dup2\n      0x00\n      add\n      swap1\n      dup2\n      tag_25\n      swap2\n      swap1\n      tag_26\n      jump\t// in\n    tag_25:\n      pop\n      0x20\n      dup3\n      add\n      mload\n      dup2\n      0x01\n      add\n      sstore\n      pop\n      pop\n        /* \"test_contract.sol\":191:336  function setNewUser(string calldata userName, uint256 userAge) public {... */\n      pop\n      pop\n      pop\n      jump\t// out\n        /* \"#utility.yul\":88:205   */\n    tag_28:\n        /* \"#utility.yul\":197:198   */\n      0x00\n        /* \"#utility.yul\":194:195   */\n      dup1\n        /* \"#utility.yul\":187:199   */\n      revert\n        /* \"#utility.yul\":211:328   */\n    tag_29:\n        /* \"#utility.yul\":320:321   */\n      0x00\n        /* \"#utility.yul\":317:318   */\n      dup1\n        /* \"#utility.yul\":310:322   */\n      revert\n        /* \"#utility.yul\":334:411   */\n    tag_30:\n        /* \"#utility.yul\":371:378   */\n      0x00\n        /* \"#utility.yul\":400:405   */\n      dup2\n        /* \"#utility.yul\":389:405   */\n      swap1\n      pop\n        /* \"#utility.yul\":334:411   */\n      swap2\n      swap1\n      pop\n      jump\t// out\n        /* \"#utility.yul\":417:539   */\n    tag_31:\n        /* \"#utility.yul\":490:514   */\n      tag_66\n        /* \"#utility.yul\":508:513   */\n      dup2\n        /* \"#utility.yul\":490:514   */\n      tag_30\n      jump\t// in\n    tag_66:\n        /* \"#utility.yul\":483:488   */\n      dup2\n        /* \"#utility.yul\":480:515   */\n      eq\n        /* \"#utility.yul\":470:533   */\n      tag_67\n      jumpi\n        /* \"#utility.yul\":529:530   */\n      0x00\n        /* \"#utility.yul\":526:527   */\n      dup1\n        /* \"#utility.yul\":519:531   */\n      revert\n        /* \"#utility.yul\":470:533   */\n    tag_67:\n        /* \"#utility.yul\":417:539   */\n      pop\n      jump\t// out\n        /* \"#utility.yul\":545:684   */\n    tag_32:\n        /* \"#utility.yul\":591:596   */\n      0x00\n        /* \"#utility.yul\":629:635   */\n      dup2\n        /* \"#utility.yul\":616:636   */\n      calldataload\n        /* \"#utility.yul\":607:636   */\n      swap1\n      pop\n        /* \"#utility.yul\":645:678   */\n      tag_69\n        /* \"#utility.yul\":672:677   */\n      dup2\n        /* \"#utility.yul\":645:678   */\n      tag_31\n      jump\t// in\n    tag_69:\n        /* \"#utility.yul\":545:684   */\n      swap3\n      swap2\n      pop\n      pop\n      jump\t// out\n        /* \"#utility.yul\":690:1019   */\n    tag_7:\n        /* \"#utility.yul\":749:755   */\n      0x00\n        /* \"#utility.yul\":798:800   */\n      0x20\n        /* \"#utility.yul\":786:795   */\n      dup3\n        /* \"#utility.yul\":777:784   */\n      dup5\n        /* \"#utility.yul\":773:796   */\n      sub\n        /* \"#utility.yul\":769:801   */\n      slt\n        /* \"#utility.yul\":766:885   */\n      iszero\n      tag_71\n      jumpi\n        /* \"#utility.yul\":804:883   */\n      tag_72\n      tag_28\n      jump\t// in\n    tag_72:\n        /* \"#utility.yul\":766:885   */\n    tag_71:\n        /* \"#utility.yul\":924:925   */\n      0x00\n        /* \"#utility.yul\":949:1002   */\n      tag_73\n        /* \"#utility.yul\":994:1001   */\n      dup5\n        /* \"#utility.yul\":985:991   */\n      dup3\n        /* \"#utility.yul\":974:983   */\n      dup6\n        /* \"#utility.yul\":970:992   */\n      add\n        /* \"#utility.yul\":949:1002   */\n      tag_32\n      jump\t// in\n    tag_73:\n        /* \"#utility.yul\":939:1002   */\n      swap2\n      pop\n        /* \"#utility.yul\":895:1012   */\n      pop\n        /* \"#utility.yul\":690:1019   */\n      swap3\n      swap2\n      pop\n      pop\n      jump\t// out\n        /* \"#utility.yul\":1025:1124   */\n    tag_33:\n        /* \"#utility.yul\":1077:1083   */\n      0x00\n        /* \"#utility.yul\":1111:1116   */\n      dup2\n        /* \"#utility.yul\":1105:1117   */\n      mload\n        /* \"#utility.yul\":1095:1117   */\n      swap1\n      pop\n        /* \"#utility.yul\":1025:1124   */\n      swap2\n      swap1\n      pop\n      jump\t// out\n        /* \"#utility.yul\":1130:1299   */\n    tag_34:\n        /* \"#utility.yul\":1214:1225   */\n      0x00\n        /* \"#utility.yul\":1248:1254   */\n      dup3\n        /* \"#utility.yul\":1243:1246   */\n      dup3\n        /* \"#utility.yul\":1236:1255   */\n      mstore\n        /* \"#utility.yul\":1288:1292   */\n      0x20\n        /* \"#utility.yul\":1283:1286   */\n      dup3\n        /* \"#utility.yul\":1279:1293   */\n      add\n        /* \"#utility.yul\":1264:1293   */\n      swap1\n      pop\n        /* \"#utility.yul\":1130:1299   */\n      swap3\n      swap2\n      pop\n      pop\n      jump\t// out\n        /* \"#utility.yul\":1305:1444   */\n    tag_35:\n        /* \"#utility.yul\":1394:1400   */\n      dup3\n        /* \"#utility.yul\":1389:1392   */\n      dup2\n        /* \"#utility.yul\":1384:1387   */\n      dup4\n        /* \"#utility.yul\":1378:1401   */\n      mcopy\n        /* \"#utility.yul\":1435:1436   */\n      0x00\n        /* \"#utility.yul\":1426:1432   */\n      dup4\n        /* \"#utility.yul\":1421:1424   */\n      dup4\n        /* \"#utility.yul\":1417:1433   */\n      add\n        /* \"#utility.yul\":1410:1437   */\n      mstore\n        /* \"#utility.yul\":1305:1444   */\n      pop\n      pop\n      pop\n      jump\t// out\n        /* \"#utility.yul\":1450:1552   */\n    tag_36:\n        /* \"#utility.yul\":1491:1497   */\n      0x00\n        /* \"#utility.yul\":1542:1544   */\n      0x1f\n        /* \"#utility.yul\":1538:1545   */\n      not\n        /* \"#utility.yul\":1533:1535   */\n      0x1f\n        /* \"#utility.yul\":1526:1531   */\n      dup4\n        /* \"#utility.yul\":1522:1536   */\n      add\n        /* \"#utility.yul\":1518:1546   */\n      and\n        /* \"#utility.yul\":1508:1546   */\n      swap1\n      pop\n        /* \"#utility.yul\":1450:1552   */\n      swap2\n      swap1\n      pop\n      jump\t// out\n        /* \"#utility.yul\":1558:1935   */\n    tag_37:\n        /* \"#utility.yul\":1646:1649   */\n      0x00\n        /* \"#utility.yul\":1674:1713   */\n      tag_79\n        /* \"#utility.yul\":1707:1712   */\n      dup3\n        /* \"#utility.yul\":1674:1713   */\n      tag_33\n      jump\t// in\n    tag_79:\n        /* \"#utility.yul\":1729:1800   */\n      tag_80\n        /* \"#utility.yul\":1793:1799   */\n      dup2\n        /* \"#utility.yul\":1788:1791   */\n      dup6\n        /* \"#utility.yul\":1729:1800   */\n      tag_34\n      jump\t// in\n    tag_80:\n        /* \"#utility.yul\":1722:1800   */\n      swap4\n      pop\n        /* \"#utility.yul\":1809:1874   */\n      tag_81\n        /* \"#utility.yul\":1867:1873   */\n      dup2\n        /* \"#utility.yul\":1862:1865   */\n      dup6\n        /* \"#utility.yul\":1855:1859   */\n      0x20\n        /* \"#utility.yul\":1848:1853   */\n      dup7\n        /* \"#utility.yul\":1844:1860   */\n      add\n        /* \"#utility.yul\":1809:1874   */\n      tag_35\n      jump\t// in\n    tag_81:\n        /* \"#utility.yul\":1899:1928   */\n      tag_82\n        /* \"#utility.yul\":1921:1927   */\n      dup2\n        /* \"#utility.yul\":1899:1928   */\n      tag_36\n      jump\t// in\n    tag_82:\n        /* \"#utility.yul\":1894:1897   */\n      dup5\n        /* \"#utility.yul\":1890:1929   */\n      add\n        /* \"#utility.yul\":1883:1929   */\n      swap2\n      pop\n        /* \"#utility.yul\":1650:1935   */\n      pop\n        /* \"#utility.yul\":1558:1935   */\n      swap3\n      swap2\n      pop\n      pop\n      jump\t// out\n        /* \"#utility.yul\":1941:2059   */\n    tag_38:\n        /* \"#utility.yul\":2028:2052   */\n      tag_84\n        /* \"#utility.yul\":2046:2051   */\n      dup2\n        /* \"#utility.yul\":2028:2052   */\n      tag_30\n      jump\t// in\n    tag_84:\n        /* \"#utility.yul\":2023:2026   */\n      dup3\n        /* \"#utility.yul\":2016:2053   */\n      mstore\n        /* \"#utility.yul\":1941:2059   */\n      pop\n      pop\n      jump\t// out\n        /* \"#utility.yul\":2065:2488   */\n    tag_10:\n        /* \"#utility.yul\":2206:2210   */\n      0x00\n        /* \"#utility.yul\":2244:2246   */\n      0x40\n        /* \"#utility.yul\":2233:2242   */\n      dup3\n        /* \"#utility.yul\":2229:2247   */\n      add\n        /* \"#utility.yul\":2221:2247   */\n      swap1\n      pop\n        /* \"#utility.yul\":2293:2302   */\n      dup2\n        /* \"#utility.yul\":2287:2291   */\n      dup2\n        /* \"#utility.yul\":2283:2303   */\n      sub\n        /* \"#utility.yul\":2279:2280   */\n      0x00\n        /* \"#utility.yul\":2268:2277   */\n      dup4\n        /* \"#utility.yul\":2264:2281   */\n      add\n        /* \"#utility.yul\":2257:2304   */\n      mstore\n        /* \"#utility.yul\":2321:2399   */\n      tag_86\n        /* \"#utility.yul\":2394:2398   */\n      dup2\n        /* \"#utility.yul\":2385:2391   */\n      dup6\n        /* \"#utility.yul\":2321:2399   */\n      tag_37\n      jump\t// in\n    tag_86:\n        /* \"#utility.yul\":2313:2399   */\n      swap1\n      pop\n        /* \"#utility.yul\":2409:2481   */\n      tag_87\n        /* \"#utility.yul\":2477:2479   */\n      0x20\n        /* \"#utility.yul\":2466:2475   */\n      dup4\n        /* \"#utility.yul\":2462:2480   */\n      add\n        /* \"#utility.yul\":2453:2459   */\n      dup5\n        /* \"#utility.yul\":2409:2481   */\n      tag_38\n      jump\t// in\n    tag_87:\n        /* \"#utility.yul\":2065:2488   */\n      swap4\n      swap3\n      pop\n      pop\n      pop\n      jump\t// out\n        /* \"#utility.yul\":2494:2611   */\n    tag_39:\n        /* \"#utility.yul\":2603:2604   */\n      0x00\n        /* \"#utility.yul\":2600:2601   */\n      dup1\n        /* \"#utility.yul\":2593:2605   */\n      revert\n        /* \"#utility.yul\":2617:2734   */\n    tag_40:\n        /* \"#utility.yul\":2726:2727   */\n      0x00\n        /* \"#utility.yul\":2723:2724   */\n      dup1\n        /* \"#utility.yul\":2716:2728   */\n      revert\n        /* \"#utility.yul\":2740:2857   */\n    tag_41:\n        /* \"#utility.yul\":2849:2850   */\n      0x00\n        /* \"#utility.yul\":2846:2847   */\n      dup1\n        /* \"#utility.yul\":2839:2851   */\n      revert\n        /* \"#utility.yul\":2877:3430   */\n    tag_42:\n        /* \"#utility.yul\":2935:2943   */\n      0x00\n        /* \"#utility.yul\":2945:2951   */\n      dup1\n        /* \"#utility.yul\":2995:2998   */\n      dup4\n        /* \"#utility.yul\":2988:2992   */\n      0x1f\n        /* \"#utility.yul\":2980:2986   */\n      dup5\n        /* \"#utility.yul\":2976:2993   */\n      add\n        /* \"#utility.yul\":2972:2999   */\n      slt\n        /* \"#utility.yul\":2962:3084   */\n      tag_92\n      jumpi\n        /* \"#utility.yul\":3003:3082   */\n      tag_93\n      tag_39\n      jump\t// in\n    tag_93:\n        /* \"#utility.yul\":2962:3084   */\n    tag_92:\n        /* \"#utility.yul\":3116:3122   */\n      dup3\n        /* \"#utility.yul\":3103:3123   */\n      calldataload\n        /* \"#utility.yul\":3093:3123   */\n      swap1\n      pop\n        /* \"#utility.yul\":3146:3164   */\n      0xffffffffffffffff\n        /* \"#utility.yul\":3138:3144   */\n      dup2\n        /* \"#utility.yul\":3135:3165   */\n      gt\n        /* \"#utility.yul\":3132:3249   */\n      iszero\n      tag_94\n      jumpi\n        /* \"#utility.yul\":3168:3247   */\n      tag_95\n      tag_40\n      jump\t// in\n    tag_95:\n        /* \"#utility.yul\":3132:3249   */\n    tag_94:\n        /* \"#utility.yul\":3282:3286   */\n      0x20\n        /* \"#utility.yul\":3274:3280   */\n      dup4\n        /* \"#utility.yul\":3270:3287   */\n      add\n        /* \"#utility.yul\":3258:3287   */\n      swap2\n      pop\n        /* \"#utility.yul\":3336:3339   */\n      dup4\n        /* \"#utility.yul\":3328:3332   */\n      0x01\n        /* \"#utility.yul\":3320:3326   */\n      dup3\n        /* \"#utility.yul\":3316:3333   */\n      mul\n        /* \"#utility.yul\":3306:3314   */\n      dup4\n        /* \"#utility.yul\":3302:3334   */\n      add\n        /* \"#utility.yul\":3299:3340   */\n      gt\n        /* \"#utility.yul\":3296:3424   */\n      iszero\n      tag_96\n      jumpi\n        /* \"#utility.yul\":3343:3422   */\n      tag_97\n      tag_41\n      jump\t// in\n    tag_97:\n        /* \"#utility.yul\":3296:3424   */\n    tag_96:\n        /* \"#utility.yul\":2877:3430   */\n      swap3\n      pop\n      swap3\n      swap1\n      pop\n      jump\t// out\n        /* \"#utility.yul\":3436:4110   */\n    tag_13:\n        /* \"#utility.yul\":3516:3522   */\n      0x00\n        /* \"#utility.yul\":3524:3530   */\n      dup1\n        /* \"#utility.yul\":3532:3538   */\n      0x00\n        /* \"#utility.yul\":3581:3583   */\n      0x40\n        /* \"#utility.yul\":3569:3578   */\n      dup5\n        /* \"#utility.yul\":3560:3567   */\n      dup7\n        /* \"#utility.yul\":3556:3579   */\n      sub\n        /* \"#utility.yul\":3552:3584   */\n      slt\n        /* \"#utility.yul\":3549:3668   */\n      iszero\n      tag_99\n      jumpi\n        /* \"#utility.yul\":3587:3666   */\n      tag_100\n      tag_28\n      jump\t// in\n    tag_100:\n        /* \"#utility.yul\":3549:3668   */\n    tag_99:\n        /* \"#utility.yul\":3735:3736   */\n      0x00\n        /* \"#utility.yul\":3724:3733   */\n      dup5\n        /* \"#utility.yul\":3720:3737   */\n      add\n        /* \"#utility.yul\":3707:3738   */\n      calldataload\n        /* \"#utility.yul\":3765:3783   */\n      0xffffffffffffffff\n        /* \"#utility.yul\":3757:3763   */\n      dup2\n        /* \"#utility.yul\":3754:3784   */\n      gt\n        /* \"#utility.yul\":3751:3868   */\n      iszero\n      tag_101\n      jumpi\n        /* \"#utility.yul\":3787:3866   */\n      tag_102\n      tag_29\n      jump\t// in\n    tag_102:\n        /* \"#utility.yul\":3751:3868   */\n    tag_101:\n        /* \"#utility.yul\":3900:3965   */\n      tag_103\n        /* \"#utility.yul\":3957:3964   */\n      dup7\n        /* \"#utility.yul\":3948:3954   */\n      dup3\n        /* \"#utility.yul\":3937:3946   */\n      dup8\n        /* \"#utility.yul\":3933:3955   */\n      add\n        /* \"#utility.yul\":3900:3965   */\n      tag_42\n      jump\t// in\n    tag_103:\n        /* \"#utility.yul\":3882:3965   */\n      swap4\n      pop\n      swap4\n      pop\n        /* \"#utility.yul\":3678:3975   */\n      pop\n        /* \"#utility.yul\":4014:4016   */\n      0x20\n        /* \"#utility.yul\":4040:4093   */\n      tag_104\n        /* \"#utility.yul\":4085:4092   */\n      dup7\n        /* \"#utility.yul\":4076:4082   */\n      dup3\n        /* \"#utility.yul\":4065:4074   */\n      dup8\n        /* \"#utility.yul\":4061:4083   */\n      add\n        /* \"#utility.yul\":4040:4093   */\n      tag_32\n      jump\t// in\n    tag_104:\n        /* \"#utility.yul\":4030:4093   */\n      swap2\n      pop\n        /* \"#utility.yul\":3985:4103   */\n      pop\n        /* \"#utility.yul\":3436:4110   */\n      swap3\n      pop\n      swap3\n      pop\n      swap3\n      jump\t// out\n        /* \"#utility.yul\":4116:4296   */\n    tag_43:\n        /* \"#utility.yul\":4164:4241   */\n      0x4e487b7100000000000000000000000000000000000000000000000000000000\n        /* \"#utility.yul\":4161:4162   */\n      0x00\n        /* \"#utility.yul\":4154:4242   */\n      mstore\n        /* \"#utility.yul\":4261:4265   */\n      0x22\n        /* \"#utility.yul\":4258:4259   */\n      0x04\n        /* \"#utility.yul\":4251:4266   */\n      mstore\n        /* \"#utility.yul\":4285:4289   */\n      0x24\n        /* \"#utility.yul\":4282:4283   */\n      0x00\n        /* \"#utility.yul\":4275:4290   */\n      revert\n        /* \"#utility.yul\":4302:4622   */\n    tag_18:\n        /* \"#utility.yul\":4346:4352   */\n      0x00\n        /* \"#utility.yul\":4383:4384   */\n      0x02\n        /* \"#utility.yul\":4377:4381   */\n      dup3\n        /* \"#utility.yul\":4373:4385   */\n      div\n        /* \"#utility.yul\":4363:4385   */\n      swap1\n      pop\n        /* \"#utility.yul\":4430:4431   */\n      0x01\n        /* \"#utility.yul\":4424:4428   */\n      dup3\n        /* \"#utility.yul\":4420:4432   */\n      and\n        /* \"#utility.yul\":4451:4469   */\n      dup1\n        /* \"#utility.yul\":4441:4522   */\n      tag_107\n      jumpi\n        /* \"#utility.yul\":4507:4511   */\n      0x7f\n        /* \"#utility.yul\":4499:4505   */\n      dup3\n        /* \"#utility.yul\":4495:4512   */\n      and\n        /* \"#utility.yul\":4485:4512   */\n      swap2\n      pop\n        /* \"#utility.yul\":4441:4522   */\n    tag_107:\n        /* \"#utility.yul\":4569:4571   */\n      0x20\n        /* \"#utility.yul\":4561:4567   */\n      dup3\n        /* \"#utility.yul\":4558:4572   */\n      lt\n        /* \"#utility.yul\":4538:4556   */\n      dup2\n        /* \"#utility.yul\":4535:4573   */\n      sub\n        /* \"#utility.yul\":4532:4616   */\n      tag_108\n      jumpi\n        /* \"#utility.yul\":4588:4606   */\n      tag_109\n      tag_43\n      jump\t// in\n    tag_109:\n        /* \"#utility.yul\":4532:4616   */\n    tag_108:\n        /* \"#utility.yul\":4353:4622   */\n      pop\n        /* \"#utility.yul\":4302:4622   */\n      swap2\n      swap1\n      pop\n      jump\t// out\n        /* \"#utility.yul\":4628:4808   */\n    tag_44:\n        /* \"#utility.yul\":4676:4753   */\n      0x4e487b7100000000000000000000000000000000000000000000000000000000\n        /* \"#utility.yul\":4673:4674   */\n      0x00\n        /* \"#utility.yul\":4666:4754   */\n      mstore\n        /* \"#utility.yul\":4773:4777   */\n      0x41\n        /* \"#utility.yul\":4770:4771   */\n      0x04\n        /* \"#utility.yul\":4763:4778   */\n      mstore\n        /* \"#utility.yul\":4797:4801   */\n      0x24\n        /* \"#utility.yul\":4794:4795   */\n      0x00\n        /* \"#utility.yul\":4787:4802   */\n      revert\n        /* \"#utility.yul\":4814:4955   */\n    tag_45:\n        /* \"#utility.yul\":4863:4867   */\n      0x00\n        /* \"#utility.yul\":4886:4889   */\n      dup2\n        /* \"#utility.yul\":4878:4889   */\n      swap1\n      pop\n        /* \"#utility.yul\":4909:4912   */\n      dup2\n        /* \"#utility.yul\":4906:4907   */\n      0x00\n        /* \"#utility.yul\":4899:4913   */\n      mstore\n        /* \"#utility.yul\":4943:4947   */\n      0x20\n        /* \"#utility.yul\":4940:4941   */\n      0x00\n        /* \"#utility.yul\":4930:4948   */\n      keccak256\n        /* \"#utility.yul\":4922:4948   */\n      swap1\n      pop\n        /* \"#utility.yul\":4814:4955   */\n      swap2\n      swap1\n      pop\n      jump\t// out\n        /* \"#utility.yul\":4961:5054   */\n    tag_46:\n        /* \"#utility.yul\":4998:5004   */\n      0x00\n        /* \"#utility.yul\":5045:5047   */\n      0x20\n        /* \"#utility.yul\":5040:5042   */\n      0x1f\n        /* \"#utility.yul\":5033:5038   */\n      dup4\n        /* \"#utility.yul\":5029:5043   */\n      add\n        /* \"#utility.yul\":5025:5048   */\n      div\n        /* \"#utility.yul\":5015:5048   */\n      swap1\n      pop\n        /* \"#utility.yul\":4961:5054   */\n      swap2\n      swap1\n      pop\n      jump\t// out\n        /* \"#utility.yul\":5060:5167   */\n    tag_47:\n        /* \"#utility.yul\":5104:5112   */\n      0x00\n        /* \"#utility.yul\":5154:5159   */\n      dup3\n        /* \"#utility.yul\":5148:5152   */\n      dup3\n        /* \"#utility.yul\":5144:5160   */\n      shl\n        /* \"#utility.yul\":5123:5160   */\n      swap1\n      pop\n        /* \"#utility.yul\":5060:5167   */\n      swap3\n      swap2\n      pop\n      pop\n      jump\t// out\n        /* \"#utility.yul\":5173:5566   */\n    tag_48:\n        /* \"#utility.yul\":5242:5248   */\n      0x00\n        /* \"#utility.yul\":5292:5293   */\n      0x08\n        /* \"#utility.yul\":5280:5290   */\n      dup4\n        /* \"#utility.yul\":5276:5294   */\n      mul\n        /* \"#utility.yul\":5315:5412   */\n      tag_115\n        /* \"#utility.yul\":5345:5411   */\n      0xffffffffffffffffffffffffffffffffffffffffffffffffffffffffffffffff\n        /* \"#utility.yul\":5334:5343   */\n      dup3\n        /* \"#utility.yul\":5315:5412   */\n      tag_47\n      jump\t// in\n    tag_115:\n        /* \"#utility.yul\":5433:5472   */\n      tag_116\n        /* \"#utility.yul\":5463:5471   */\n      dup7\n        /* \"#utility.yul\":5452:5461   */\n      dup4\n        /* \"#utility.yul\":5433:5472   */\n      tag_47\n      jump\t// in\n    tag_116:\n        /* \"#utility.yul\":5421:5472   */\n      swap6\n      pop\n        /* \"#utility.yul\":5505:5509   */\n      dup1\n        /* \"#utility.yul\":5501:5510   */\n      not\n        /* \"#utility.yul\":5494:5499   */\n      dup5\n        /* \"#utility.yul\":5490:5511   */\n      and\n        /* \"#utility.yul\":5481:5511   */\n      swap4\n      pop\n        /* \"#utility.yul\":5554:5558   */\n      dup1\n        /* \"#utility.yul\":5544:5552   */\n      dup7\n        /* \"#utility.yul\":5540:5559   */\n      and\n        /* \"#utility.yul\":5533:5538   */\n      dup5\n        /* \"#utility.yul\":5530:5560   */\n      or\n        /* \"#utility.yul\":5520:5560   */\n      swap3\n      pop\n        /* \"#utility.yul\":5249:5566   */\n      pop\n      pop\n        /* \"#utility.yul\":5173:5566   */\n      swap4\n      swap3\n      pop\n      pop\n      pop\n      jump\t// out\n        /* \"#utility.yul\":5572:5632   */\n    tag_49:\n        /* \"#utility.yul\":5600:5603   */\n      0x00\n        /* \"#utility.yul\":5621:5626   */\n      dup2\n        /* \"#utility.yul\":5614:5626   */\n      swap1\n      pop\n        /* \"#utility.yul\":5572:5632   */\n      swap2\n      swap1\n      pop\n      jump\t// out\n        /* \"#utility.yul\":5638:5780   */\n    tag_50:\n        /* \"#utility.yul\":5688:5697   */\n      0x00\n        /* \"#utility.yul\":5721:5774   */\n      tag_119\n        /* \"#utility.yul\":5739:5773   */\n      tag_120\n        /* \"#utility.yul\":5748:5772   */\n      tag_121\n        /* \"#utility.yul\":5766:5771   */\n      dup5\n        /* \"#utility.yul\":5748:5772   */\n      tag_30\n      jump\t// in\n    tag_121:\n        /* \"#utility.yul\":5739:5773   */\n      tag_49\n      jump\t// in\n    tag_120:\n        /* \"#utility.yul\":5721:5774   */\n      tag_30\n      jump\t// in\n    tag_119:\n        /* \"#utility.yul\":5708:5774   */\n      swap1\n      pop\n        /* \"#utility.yul\":5638:5780   */\n      swap2\n      swap1\n      pop\n      jump\t// out\n        /* \"#utility.yul\":5786:5861   */\n    tag_51:\n        /* \"#utility.yul\":5829:5832   */\n      0x00\n        /* \"#utility.yul\":5850:5855   */\n      dup2\n        /* \"#utility.yul\":5843:5855   */\n      swap1\n      pop\n        /* \"#utility.yul\":5786:5861   */\n      swap2\n      swap1\n      pop\n      jump\t// out\n        /* \"#utility.yul\":5867:6136   */\n    tag_52:\n        /* \"#utility.yul\":5977:6016   */\n      tag_124\n        /* \"#utility.yul\":6008:6015   */\n      dup4\n        /* \"#utility.yul\":5977:6016   */\n      tag_50\n      jump\t// in\n    tag_124:\n        /* \"#utility.yul\":6038:6129   */\n      tag_125\n        /* \"#utility.yul\":6087:6128   */\n      tag_126\n        /* \"#utility.yul\":6111:6127   */\n      dup3\n        /* \"#utility.yul\":6087:6128   */\n      tag_51\n      jump\t// in\n    tag_126:\n        /* \"#utility.yul\":6079:6085   */\n      dup5\n        /* \"#utility.yul\":6072:6076   */\n      dup5\n        /* \"#utility.yul\":6066:6077   */\n      sload\n        /* \"#utility.yul\":6038:6129   */\n      tag_48\n      jump\t// in\n    tag_125:\n        /* \"#utility.yul\":6032:6036   */\n      dup3\n        /* \"#utility.yul\":6025:6130   */\n      sstore\n        /* \"#utility.yul\":5943:6136   */\n      pop\n        /* \"#utility.yul\":5867:6136   */\n      pop\n      pop\n      pop\n      jump\t// out\n        /* \"#utility.yul\":6142:6215   */\n    tag_53:\n        /* \"#utility.yul\":6187:6190   */\n      0x00\n        /* \"#utility.yul\":6142:6215   */\n      swap1\n      jump\t// out\n        /* \"#utility.yul\":6221:6410   */\n    tag_54:\n        /* \"#utility.yul\":6298:6330   */\n      tag_129\n      tag_53\n      jump\t// in\n    tag_129:\n        /* \"#utility.yul\":6339:6404   */\n      tag_130\n        /* \"#utility.yul\":6397:6403   */\n      dup2\n        /* \"#utility.yul\":6389:6395   */\n      dup5\n        /* \"#utility.yul\":6383:6387   */\n      dup5\n        /* \"#utility.yul\":6339:6404   */\n      tag_52\n      jump\t// in\n    tag_130:\n        /* \"#utility.yul\":6274:6410   */\n      pop\n        /* \"#utility.yul\":6221:6410   */\n      pop\n      pop\n      jump\t// out\n        /* \"#utility.yul\":6416:6602   */\n    tag_55:\n        /* \"#utility.yul\":6476:6596   */\n    tag_132:\n        /* \"#utility.yul\":6493:6496   */\n      dup2\n        /* \"#utility.yul\":6486:6491   */\n      dup2\n        /* \"#utility.yul\":6483:6497   */\n      lt\n        /* \"#utility.yul\":6476:6596   */\n      iszero\n      tag_134\n      jumpi\n        /* \"#utility.yul\":6547:6586   */\n      tag_135\n        /* \"#utility.yul\":6584:6585   */\n      0x00\n        /* \"#utility.yul\":6577:6582   */\n      dup3\n        /* \"#utility.yul\":6547:6586   */\n      tag_54\n      jump\t// in\n    tag_135:\n        /* \"#utility.yul\":6520:6521   */\n      0x01\n        /* \"#utility.yul\":6513:6518   */\n      dup2\n        /* \"#utility.yul\":6509:6522   */\n      add\n        /* \"#utility.yul\":6500:6522   */\n      swap1\n      pop\n        /* \"#utility.yul\":6476:6596   */\n      jump(tag_132)\n    tag_134:\n        /* \"#utility.yul\":6416:6602   */\n      pop\n      pop\n      jump\t// out\n        /* \"#utility.yul\":6608:7151   */\n    tag_56:\n        /* \"#utility.yul\":6709:6711   */\n      0x1f\n        /* \"#utility.yul\":6704:6707   */\n      dup3\n        /* \"#utility.yul\":6701:6712   */\n      gt\n        /* \"#utility.yul\":6698:7144   */\n      iszero\n      tag_137\n      jumpi\n        /* \"#utility.yul\":6743:6781   */\n      tag_138\n        /* \"#utility.yul\":6775:6780   */\n      dup2\n        /* \"#utility.yul\":6743:6781   */\n      tag_45\n      jump\t// in\n    tag_138:\n        /* \"#utility.yul\":6827:6856   */\n      tag_139\n        /* \"#utility.yul\":6845:6855   */\n      dup5\n        /* \"#utility.yul\":6827:6856   */\n      tag_46\n      jump\t// in\n    tag_139:\n        /* \"#utility.yul\":6817:6825   */\n      dup2\n        /* \"#utility.yul\":6813:6857   */\n      add\n        /* \"#utility.yul\":7010:7012   */\n      0x20\n        /* \"#utility.yul\":6998:7008   */\n      dup6\n        /* \"#utility.yul\":6995:7013   */\n      lt\n        /* \"#utility.yul\":6992:7041   */\n      iszero\n      tag_140\n      jumpi\n        /* \"#utility.yul\":7031:7039   */\n      dup2\n        /* \"#utility.yul\":7016:7039   */\n      swap1\n      pop\n        /* \"#utility.yul\":6992:7041   */\n    tag_140:\n        /* \"#utility.yul\":7054:7134   */\n      tag_141\n        /* \"#utility.yul\":7110:7132   */\n      tag_142\n        /* \"#utility.yul\":7128:7131   */\n      dup6\n        /* \"#utility.yul\":7110:7132   */\n      tag_46\n      jump\t// in\n    tag_142:\n        /* \"#utility.yul\":7100:7108   */\n      dup4\n        /* \"#utility.yul\":7096:7133   */\n      add\n        /* \"#utility.yul\":7083:7094   */\n      dup3\n        /* \"#utility.yul\":7054:7134   */\n      tag_55\n      jump\t// in\n    tag_141:\n        /* \"#utility.yul\":6713:7144   */\n      pop\n      pop\n        /* \"#utility.yul\":6698:7144   */\n    tag_137:\n        /* \"#utility.yul\":6608:7151   */\n      pop\n      pop\n      pop\n      jump\t// out\n        /* \"#utility.yul\":7157:7274   */\n    tag_57:\n        /* \"#utility.yul\":7211:7219   */\n      0x00\n        /* \"#utility.yul\":7261:7266   */\n      dup3\n        /* \"#utility.yul\":7255:7259   */\n      dup3\n        /* \"#utility.yul\":7251:7267   */\n      shr\n        /* \"#utility.yul\":7230:7267   */\n      swap1\n      pop\n        /* \"#utility.yul\":7157:7274   */\n      swap3\n      swap2\n      pop\n      pop\n      jump\t// out\n        /* \"#utility.yul\":7280:7449   */\n    tag_58:\n        /* \"#utility.yul\":7324:7330   */\n      0x00\n        /* \"#utility.yul\":7357:7408   */\n      tag_145\n        /* \"#utility.yul\":7405:7406   */\n      0x00\n        /* \"#utility.yul\":7401:7407   */\n      not\n        /* \"#utility.yul\":7393:7398   */\n      dup5\n        /* \"#utility.yul\":7390:7391   */\n      0x08\n        /* \"#utility.yul\":7386:7399   */\n      mul\n        /* \"#utility.yul\":7357:7408   */\n      tag_57\n      jump\t// in\n    tag_145:\n        /* \"#utility.yul\":7353:7409   */\n      not\n        /* \"#utility.yul\":7438:7442   */\n      dup1\n        /* \"#utility.yul\":7432:7436   */\n      dup4\n        /* \"#utility.yul\":7428:7443   */\n      and\n        /* \"#utility.yul\":7418:7443   */\n      swap2\n      pop\n        /* \"#utility.yul\":7331:7449   */\n      pop\n        /* \"#utility.yul\":7280:7449   */\n      swap3\n      swap2\n      pop\n      pop\n      jump\t// out\n        /* \"#utility.yul\":7454:7749   */\n    tag_59:\n        /* \"#utility.yul\":7530:7534   */\n      0x00\n        /* \"#utility.yul\":7676:7705   */\n      tag_147\n        /* \"#utility.yul\":7701:7704   */\n      dup4\n        /* \"#utility.yul\":7695:7699   */\n      dup4\n        /* \"#utility.yul\":7676:7705   */\n      tag_58\n      jump\t// in\n    tag_147:\n        /* \"#utility.yul\":7668:7705   */\n      swap2\n      pop\n        /* \"#utility.yul\":7738:7741   */\n      dup3\n        /* \"#utility.yul\":7735:7736   */\n      0x02\n        /* \"#utility.yul\":7731:7742   */\n      mul\n        /* \"#utility.yul\":7725:7729   */\n      dup3\n        /* \"#utility.yul\":7722:7743   */\n      or\n        /* \"#utility.yul\":7714:7743   */\n      swap1\n      pop\n        /* \"#utility.yul\":7454:7749   */\n      swap3\n      swap2\n      pop\n      pop\n      jump\t// out\n        /* \"#utility.yul\":7754:9149   */\n    tag_26:\n        /* \"#utility.yul\":7871:7908   */\n      tag_149\n        /* \"#utility.yul\":7904:7907   */\n      dup3\n        /* \"#utility.yul\":7871:7908   */\n      tag_33\n      jump\t// in\n    tag_149:\n        /* \"#utility.yul\":7973:7991   */\n      0xffffffffffffffff\n        /* \"#utility.yul\":7965:7971   */\n      dup2\n        /* \"#utility.yul\":7962:7992   */\n      gt\n        /* \"#utility.yul\":7959:8015   */\n      iszero\n      tag_150\n      jumpi\n        /* \"#utility.yul\":7995:8013   */\n      tag_151\n      tag_44\n      jump\t// in\n    tag_151:\n        /* \"#utility.yul\":7959:8015   */\n    tag_150:\n        /* \"#utility.yul\":8039:8077   */\n      tag_152\n        /* \"#utility.yul\":8071:8075   */\n      dup3\n        /* \"#utility.yul\":8065:8076   */\n      sload\n        /* \"#utility.yul\":8039:8077   */\n      tag_18\n      jump\t// in\n    tag_152:\n        /* \"#utility.yul\":8124:8191   */\n      tag_153\n        /* \"#utility.yul\":8184:8190   */\n      dup3\n        /* \"#utility.yul\":8176:8182   */\n      dup3\n        /* \"#utility.yul\":8170:8174   */\n      dup6\n        /* \"#utility.yul\":8124:8191   */\n      tag_56\n      jump\t// in\n    tag_153:\n        /* \"#utility.yul\":8218:8219   */\n      0x00\n        /* \"#utility.yul\":8242:8246   */\n      0x20\n        /* \"#utility.yul\":8229:8246   */\n      swap1\n      pop\n        /* \"#utility.yul\":8274:8276   */\n      0x1f\n        /* \"#utility.yul\":8266:8272   */\n      dup4\n        /* \"#utility.yul\":8263:8277   */\n      gt\n        /* \"#utility.yul\":8291:8292   */\n      0x01\n        /* \"#utility.yul\":8286:8904   */\n      dup2\n      eq\n      tag_155\n      jumpi\n        /* \"#utility.yul\":8948:8949   */\n      0x00\n        /* \"#utility.yul\":8965:8971   */\n      dup5\n        /* \"#utility.yul\":8962:9039   */\n      iszero\n      tag_156\n      jumpi\n        /* \"#utility.yul\":9014:9023   */\n      dup3\n        /* \"#utility.yul\":9009:9012   */\n      dup8\n        /* \"#utility.yul\":9005:9024   */\n      add\n        /* \"#utility.yul\":8999:9025   */\n      mload\n        /* \"#utility.yul\":8990:9025   */\n      swap1\n      pop\n        /* \"#utility.yul\":8962:9039   */\n    tag_156:\n        /* \"#utility.yul\":9065:9132   */\n      tag_157\n        /* \"#utility.yul\":9125:9131   */\n      dup6\n        /* \"#utility.yul\":9118:9123   */\n      dup3\n        /* \"#utility.yul\":9065:9132   */\n      tag_59\n      jump\t// in\n    tag_157:\n        /* \"#utility.yul\":9059:9063   */\n      dup7\n        /* \"#utility.yul\":9052:9133   */\n      sstore\n        /* \"#utility.yul\":8921:9143   */\n      pop\n        /* \"#utility.yul\":8256:9143   */\n      jump(tag_154)\n        /* \"#utility.yul\":8286:8904   */\n    tag_155:\n        /* \"#utility.yul\":8338:8342   */\n      0x1f\n        /* \"#utility.yul\":8334:8343   */\n      not\n        /* \"#utility.yul\":8326:8332   */\n      dup5\n        /* \"#utility.yul\":8322:8344   */\n      and\n        /* \"#utility.yul\":8372:8409   */\n      tag_158\n        /* \"#utility.yul\":8404:8408   */\n      dup7\n        /* \"#utility.yul\":8372:8409   */\n      tag_45\n      jump\t// in\n    tag_158:\n        /* \"#utility.yul\":8431:8432   */\n      0x00\n        /* \"#utility.yul\":8445:8653   */\n    tag_159:\n        /* \"#utility.yul\":8459:8466   */\n      dup3\n        /* \"#utility.yul\":8456:8457   */\n      dup2\n        /* \"#utility.yul\":8453:8467   */\n      lt\n        /* \"#utility.yul\":8445:8653   */\n      iszero\n      tag_161\n      jumpi\n        /* \"#utility.yul\":8538:8547   */\n      dup5\n        /* \"#utility.yul\":8533:8536   */\n      dup10\n        /* \"#utility.yul\":8529:8548   */\n      add\n        /* \"#utility.yul\":8523:8549   */\n      mload\n        /* \"#utility.yul\":8515:8521   */\n      dup3\n        /* \"#utility.yul\":8508:8550   */\n      sstore\n        /* \"#utility.yul\":8589:8590   */\n      0x01\n        /* \"#utility.yul\":8581:8587   */\n      dup3\n        /* \"#utility.yul\":8577:8591   */\n      add\n        /* \"#utility.yul\":8567:8591   */\n      swap2\n      pop\n        /* \"#utility.yul\":8636:8638   */\n      0x20\n        /* \"#utility.yul\":8625:8634   */\n      dup6\n        /* \"#utility.yul\":8621:8639   */\n      add\n        /* \"#utility.yul\":8608:8639   */\n      swap5\n      pop\n        /* \"#utility.yul\":8482:8486   */\n      0x20\n        /* \"#utility.yul\":8479:8480   */\n      dup2\n        /* \"#utility.yul\":8475:8487   */\n      add\n        /* \"#utility.yul\":8470:8487   */\n      swap1\n      pop\n        /* \"#utility.yul\":8445:8653   */\n      jump(tag_159)\n    tag_161:\n        /* \"#utility.yul\":8681:8687   */\n      dup7\n        /* \"#utility.yul\":8672:8679   */\n      dup4\n        /* \"#utility.yul\":8669:8688   */\n      lt\n        /* \"#utility.yul\":8666:8845   */\n      iszero\n      tag_162\n      jumpi\n        /* \"#utility.yul\":8739:8748   */\n      dup5\n        /* \"#utility.yul\":8734:8737   */\n      dup10\n        /* \"#utility.yul\":8730:8749   */\n      add\n        /* \"#utility.yul\":8724:8750   */\n      mload\n        /* \"#utility.yul\":8782:8830   */\n      tag_163\n        /* \"#utility.yul\":8824:8828   */\n      0x1f\n        /* \"#utility.yul\":8816:8822   */\n      dup10\n        /* \"#utility.yul\":8812:8829   */\n      and\n        /* \"#utility.yul\":8801:8810   */\n      dup3\n        /* \"#utility.yul\":8782:8830   */\n      tag_58\n      jump\t// in\n    tag_163:\n        /* \"#utility.yul\":8774:8780   */\n      dup4\n        /* \"#utility.yul\":8767:8831   */\n      sstore\n        /* \"#utility.yul\":8689:8845   */\n      pop\n        /* \"#utility.yul\":8666:8845   */\n    tag_162:\n        /* \"#utility.yul\":8891:8892   */\n      0x01\n        /* \"#utility.yul\":8887:8888   */\n      0x02\n        /* \"#utility.yul\":8879:8885   */\n      dup9\n        /* \"#utility.yul\":8875:8889   */\n      mul\n        /* \"#utility.yul\":8871:8893   */\n      add\n        /* \"#utility.yul\":8865:8869   */\n      dup9\n        /* \"#utility.yul\":8858:8894   */\n      sstore\n        /* \"#utility.yul\":8293:8904   */\n      pop\n      pop\n      pop\n        /* \"#utility.yul\":8256:9143   */\n    tag_154:\n      pop\n        /* \"#utility.yul\":7846:9149   */\n      pop\n      pop\n      pop\n        /* \"#utility.yul\":7754:9149   */\n      pop\n      pop\n      jump\t// out\n\n    auxdata: 0xa2646970667358221220b02ac395c0e9c9699ba3b9d74187db528b339db06c6fd2545f214681de83c91e64736f6c634300081a0033\n}\n",
				"bytecode": {
					"linkReferences": {},
					"object": "6080604052348015600e575f80fd5b506106da8061001c5f395ff3fe608060405234801561000f575f80fd5b5060043610610034575f3560e01c8063502aa3b514610038578063a685e33414610069575b5f80fd5b610052600480360381019061004d9190610218565b610085565b6040516100609291906102c2565b60405180910390f35b610083600480360381019061007e9190610351565b610139565b005b5f8181548110610093575f80fd5b905f5260205f2090600202015f91509050805f0180546100b2906103db565b80601f01602080910402602001604051908101604052809291908181526020018280546100de906103db565b80156101295780601f1061010057610100808354040283529160200191610129565b820191905f5260205f20905b81548152906001019060200180831161010c57829003601f168201915b5050505050908060010154905082565b5f604051806040016040528085858080601f0160208091040260200160405190810160405280939291908181526020018383808284375f81840152601f19601f82011690508083019250505050505050815260200183815250908060018154018082558091505060019003905f5260205f2090600202015f909190919091505f820151815f0190816101cb91906105d5565b50602082015181600101555050505050565b5f80fd5b5f80fd5b5f819050919050565b6101f7816101e5565b8114610201575f80fd5b50565b5f81359050610212816101ee565b92915050565b5f6020828403121561022d5761022c6101dd565b5b5f61023a84828501610204565b91505092915050565b5f81519050919050565b5f82825260208201905092915050565b8281835e5f83830152505050565b5f601f19601f8301169050919050565b5f61028582610243565b61028f818561024d565b935061029f81856020860161025d565b6102a88161026b565b840191505092915050565b6102bc816101e5565b82525050565b5f6040820190508181035f8301526102da818561027b565b90506102e960208301846102b3565b9392505050565b5f80fd5b5f80fd5b5f80fd5b5f8083601f840112610311576103106102f0565b5b8235905067ffffffffffffffff81111561032e5761032d6102f4565b5b60208301915083600182028301111561034a576103496102f8565b5b9250929050565b5f805f60408486031215610368576103676101dd565b5b5f84013567ffffffffffffffff811115610385576103846101e1565b5b610391868287016102fc565b935093505060206103a486828701610204565b9150509250925092565b7f4e487b71000000000000000000000000000000000000000000000000000000005f52602260045260245ffd5b5f60028204905060018216806103f257607f821691505b602082108103610405576104046103ae565b5b50919050565b7f4e487b71000000000000000000000000000000000000000000000000000000005f52604160045260245ffd5b5f819050815f5260205f209050919050565b5f6020601f8301049050919050565b5f82821b905092915050565b5f600883026104947fffffffffffffffffffffffffffffffffffffffffffffffffffffffffffffffff82610459565b61049e8683610459565b95508019841693508086168417925050509392505050565b5f819050919050565b5f6104d96104d46104cf846101e5565b6104b6565b6101e5565b9050919050565b5f819050919050565b6104f2836104bf565b6105066104fe826104e0565b848454610465565b825550505050565b5f90565b61051a61050e565b6105258184846104e9565b505050565b5b818110156105485761053d5f82610512565b60018101905061052b565b5050565b601f82111561058d5761055e81610438565b6105678461044a565b81016020851015610576578190505b61058a6105828561044a565b83018261052a565b50505b505050565b5f82821c905092915050565b5f6105ad5f1984600802610592565b1980831691505092915050565b5f6105c5838361059e565b9150826002028217905092915050565b6105de82610243565b67ffffffffffffffff8111156105f7576105f661040b565b5b61060182546103db565b61060c82828561054c565b5f60209050601f83116001811461063d575f841561062b578287015190505b61063585826105ba565b86555061069c565b601f19841661064b86610438565b5f5b828110156106725784890151825560018201915060208501945060208101905061064d565b8683101561068f578489015161068b601f89168261059e565b8355505b6001600288020188555050505b50505050505056fea2646970667358221220b02ac395c0e9c9699ba3b9d74187db528b339db06c6fd2545f214681de83c91e64736f6c634300081a0033",
					"opcodes": "PUSH1 0x80 PUSH1 0x40 MSTORE CALLVALUE DUP1 ISZERO PUSH1 0xE JUMPI PUSH0 DUP1 REVERT JUMPDEST POP PUSH2 0x6DA DUP1 PUSH2 0x1C PUSH0 CODECOPY PUSH0 RETURN INVALID PUSH1 0x80 PUSH1 0x40 MSTORE CALLVALUE DUP1 ISZERO PUSH2 0xF JUMPI PUSH0 DUP1 REVERT JUMPDEST POP PUSH1 0x4 CALLDATASIZE LT PUSH2 0x34 JUMPI PUSH0 CALLDATALOAD PUSH1 0xE0 SHR DUP1 PUSH4 0x502AA3B5 EQ PUSH2 0x38 JUMPI DUP1 PUSH4 0xA685E334 EQ PUSH2 0x69 JUMPI JUMPDEST PUSH0 DUP1 REVERT JUMPDEST PUSH2 0x52 PUSH1 0x4 DUP1 CALLDATASIZE SUB DUP2 ADD SWAP1 PUSH2 0x4D SWAP2 SWAP1 PUSH2 0x218 JUMP JUMPDEST PUSH2 0x85 JUMP JUMPDEST PUSH1 0x40 MLOAD PUSH2 0x60 SWAP3 SWAP2 SWAP1 PUSH2 0x2C2 JUMP JUMPDEST PUSH1 0x40 MLOAD DUP1 SWAP2 SUB SWAP1 RETURN JUMPDEST PUSH2 0x83 PUSH1 0x4 DUP1 CALLDATASIZE SUB DUP2 ADD SWAP1 PUSH2 0x7E SWAP2 SWAP1 PUSH2 0x351 JUMP JUMPDEST PUSH2 0x139 JUMP JUMPDEST STOP JUMPDEST PUSH0 DUP2 DUP2 SLOAD DUP2 LT PUSH2 0x93 JUMPI PUSH0 DUP1 REVERT JUMPDEST SWAP1 PUSH0 MSTORE PUSH1 0x20 PUSH0 KECCAK256 SWAP1 PUSH1 0x2 MUL ADD PUSH0 SWAP2 POP SWAP1 POP DUP1 PUSH0 ADD DUP1 SLOAD PUSH2 0xB2 SWAP1 PUSH2 0x3DB JUMP JUMPDEST DUP1 PUSH1 0x1F ADD PUSH1 0x20 DUP1 SWAP2 DIV MUL PUSH1 0x20 ADD PUSH1 0x40 MLOAD SWAP1 DUP2 ADD PUSH1 0x40 MSTORE DUP1 SWAP3 SWAP2 SWAP1 DUP2 DUP2 MSTORE PUSH1 0x20 ADD DUP3 DUP1 SLOAD PUSH2 0xDE SWAP1 PUSH2 0x3DB JUMP JUMPDEST DUP1 ISZERO PUSH2 0x129 JUMPI DUP1 PUSH1 0x1F LT PUSH2 0x100 JUMPI PUSH2 0x100 DUP1 DUP4 SLOAD DIV MUL DUP4 MSTORE SWAP2 PUSH1 0x20 ADD SWAP2 PUSH2 0x129 JUMP JUMPDEST DUP3 ADD SWAP2 SWAP1 PUSH0 MSTORE PUSH1 0x20 PUSH0 KECCAK256 SWAP1 JUMPDEST DUP2 SLOAD DUP2 MSTORE SWAP1 PUSH1 0x1 ADD SWAP1 PUSH1 0x20 ADD DUP1 DUP4 GT PUSH2 0x10C JUMPI DUP3 SWAP1 SUB PUSH1 0x1F AND DUP3 ADD SWAP2 JUMPDEST POP POP POP POP POP SWAP1 DUP1 PUSH1 0x1 ADD SLOAD SWAP1 POP DUP3 JUMP JUMPDEST PUSH0 PUSH1 0x40 MLOAD DUP1 PUSH1 0x40 ADD PUSH1 0x40 MSTORE DUP1 DUP6 DUP6 DUP1 DUP1 PUSH1 0x1F ADD PUSH1 0x20 DUP1 SWAP2 DIV MUL PUSH1 0x20 ADD PUSH1 0x40 MLOAD SWAP1 DUP2 ADD PUSH1 0x40 MSTORE DUP1 SWAP4 SWAP3 SWAP2 SWAP1 DUP2 DUP2 MSTORE PUSH1 0x20 ADD DUP4 DUP4 DUP1 DUP3 DUP5 CALLDATACOPY PUSH0 DUP2 DUP5 ADD MSTORE PUSH1 0x1F NOT PUSH1 0x1F DUP3 ADD AND SWAP1 POP DUP1 DUP4 ADD SWAP3 POP POP POP POP POP POP POP DUP2 MSTORE PUSH1 0x20 ADD DUP4 DUP2 MSTORE POP SWAP1 DUP1 PUSH1 0x1 DUP2 SLOAD ADD DUP1 DUP3 SSTORE DUP1 SWAP2 POP POP PUSH1 0x1 SWAP1 SUB SWAP1 PUSH0 MSTORE PUSH1 0x20 PUSH0 KECCAK256 SWAP1 PUSH1 0x2 MUL ADD PUSH0 SWAP1 SWAP2 SWAP1 SWAP2 SWAP1 SWAP2 POP PUSH0 DUP3 ADD MLOAD DUP2 PUSH0 ADD SWAP1 DUP2 PUSH2 0x1CB SWAP2 SWAP1 PUSH2 0x5D5 JUMP JUMPDEST POP PUSH1 0x20 DUP3 ADD MLOAD DUP2 PUSH1 0x1 ADD SSTORE POP POP POP POP POP JUMP JUMPDEST PUSH0 DUP1 REVERT JUMPDEST PUSH0 DUP1 REVERT JUMPDEST PUSH0 DUP2 SWAP1 POP SWAP2 SWAP1 POP JUMP JUMPDEST PUSH2 0x1F7 DUP2 PUSH2 0x1E5 JUMP JUMPDEST DUP2 EQ PUSH2 0x201 JUMPI PUSH0 DUP1 REVERT JUMPDEST POP JUMP JUMPDEST PUSH0 DUP2 CALLDATALOAD SWAP1 POP PUSH2 0x212 DUP2 PUSH2 0x1EE JUMP JUMPDEST SWAP3 SWAP2 POP POP JUMP JUMPDEST PUSH0 PUSH1 0x20 DUP3 DUP5 SUB SLT ISZERO PUSH2 0x22D JUMPI PUSH2 0x22C PUSH2 0x1DD JUMP JUMPDEST JUMPDEST PUSH0 PUSH2 0x23A DUP5 DUP3 DUP6 ADD PUSH2 0x204 JUMP JUMPDEST SWAP2 POP POP SWAP3 SWAP2 POP POP JUMP JUMPDEST PUSH0 DUP2 MLOAD SWAP1 POP SWAP2 SWAP1 POP JUMP JUMPDEST PUSH0 DUP3 DUP3 MSTORE PUSH1 0x20 DUP3 ADD SWAP1 POP SWAP3 SWAP2 POP POP JUMP JUMPDEST DUP3 DUP2 DUP4 MCOPY PUSH0 DUP4 DUP4 ADD MSTORE POP POP POP JUMP JUMPDEST PUSH0 PUSH1 0x1F NOT PUSH1 0x1F DUP4 ADD AND SWAP1 POP SWAP2 SWAP1 POP JUMP JUMPDEST PUSH0 PUSH2 0x285 DUP3 PUSH2 0x243 JUMP JUMPDEST PUSH2 0x28F DUP2 DUP6 PUSH2 0x24D JUMP JUMPDEST SWAP4 POP PUSH2 0x29F DUP2 DUP6 PUSH1 0x20 DUP7 ADD PUSH2 0x25D JUMP JUMPDEST PUSH2 0x2A8 DUP2 PUSH2 0x26B JUMP JUMPDEST DUP5 ADD SWAP2 POP POP SWAP3 SWAP2 POP POP JUMP JUMPDEST PUSH2 0x2BC DUP2 PUSH2 0x1E5 JUMP JUMPDEST DUP3 MSTORE POP POP JUMP JUMPDEST PUSH0 PUSH1 0x40 DUP3 ADD SWAP1 POP DUP2 DUP2 SUB PUSH0 DUP4 ADD MSTORE PUSH2 0x2DA DUP2 DUP6 PUSH2 0x27B JUMP JUMPDEST SWAP1 POP PUSH2 0x2E9 PUSH1 0x20 DUP4 ADD DUP5 PUSH2 0x2B3 JUMP JUMPDEST SWAP4 SWAP3 POP POP POP JUMP JUMPDEST PUSH0 DUP1 REVERT JUMPDEST PUSH0 DUP1 REVERT JUMPDEST PUSH0 DUP1 REVERT JUMPDEST PUSH0 DUP1 DUP4 PUSH1 0x1F DUP5 ADD SLT PUSH2 0x311 JUMPI PUSH2 0x310 PUSH2 0x2F0 JUMP JUMPDEST JUMPDEST DUP3 CALLDATALOAD SWAP1 POP PUSH8 0xFFFFFFFFFFFFFFFF DUP2 GT ISZERO PUSH2 0x32E JUMPI PUSH2 0x32D PUSH2 0x2F4 JUMP JUMPDEST JUMPDEST PUSH1 0x20 DUP4 ADD SWAP2 POP DUP4 PUSH1 0x1 DUP3 MUL DUP4 ADD GT ISZERO PUSH2 0x34A JUMPI PUSH2 0x349 PUSH2 0x2F8 JUMP JUMPDEST JUMPDEST SWAP3 POP SWAP3 SWAP1 POP JUMP JUMPDEST PUSH0 DUP1 PUSH0 PUSH1 0x40 DUP5 DUP7 SUB SLT ISZERO PUSH2 0x368 JUMPI PUSH2 0x367 PUSH2 0x1DD JUMP JUMPDEST JUMPDEST PUSH0 DUP5 ADD CALLDATALOAD PUSH8 0xFFFFFFFFFFFFFFFF DUP2 GT ISZERO PUSH2 0x385 JUMPI PUSH2 0x384 PUSH2 0x1E1 JUMP JUMPDEST JUMPDEST PUSH2 0x391 DUP7 DUP3 DUP8 ADD PUSH2 0x2FC JUMP JUMPDEST SWAP4 POP SWAP4 POP POP PUSH1 0x20 PUSH2 0x3A4 DUP7 DUP3 DUP8 ADD PUSH2 0x204 JUMP JUMPDEST SWAP2 POP POP SWAP3 POP SWAP3 POP SWAP3 JUMP JUMPDEST PUSH32 0x4E487B7100000000000000000000000000000000000000000000000000000000 PUSH0 MSTORE PUSH1 0x22 PUSH1 0x4 MSTORE PUSH1 0x24 PUSH0 REVERT JUMPDEST PUSH0 PUSH1 0x2 DUP3 DIV SWAP1 POP PUSH1 0x1 DUP3 AND DUP1 PUSH2 0x3F2 JUMPI PUSH1 0x7F DUP3 AND SWAP2 POP JUMPDEST PUSH1 0x20 DUP3 LT DUP2 SUB PUSH2 0x405 JUMPI PUSH2 0x404 PUSH2 0x3AE JUMP JUMPDEST JUMPDEST POP SWAP2 SWAP1 POP JUMP JUMPDEST PUSH32 0x4E487B7100000000000000000000000000000000000000000000000000000000 PUSH0 MSTORE PUSH1 0x41 PUSH1 0x4 MSTORE PUSH1 0x24 PUSH0 REVERT JUMPDEST PUSH0 DUP2 SWAP1 POP DUP2 PUSH0 MSTORE PUSH1 0x20 PUSH0 KECCAK256 SWAP1 POP SWAP2 SWAP1 POP JUMP JUMPDEST PUSH0 PUSH1 0x20 PUSH1 0x1F DUP4 ADD DIV SWAP1 POP SWAP2 SWAP1 POP JUMP JUMPDEST PUSH0 DUP3 DUP3 SHL SWAP1 POP SWAP3 SWAP2 POP POP JUMP JUMPDEST PUSH0 PUSH1 0x8 DUP4 MUL PUSH2 0x494 PUSH32 0xFFFFFFFFFFFFFFFFFFFFFFFFFFFFFFFFFFFFFFFFFFFFFFFFFFFFFFFFFFFFFFFF DUP3 PUSH2 0x459 JUMP JUMPDEST PUSH2 0x49E DUP7 DUP4 PUSH2 0x459 JUMP JUMPDEST SWAP6 POP DUP1 NOT DUP5 AND SWAP4 POP DUP1 DUP7 AND DUP5 OR SWAP3 POP POP POP SWAP4 SWAP3 POP POP POP JUMP JUMPDEST PUSH0 DUP2 SWAP1 POP SWAP2 SWAP1 POP JUMP JUMPDEST PUSH0 PUSH2 0x4D9 PUSH2 0x4D4 PUSH2 0x4CF DUP5 PUSH2 0x1E5 JUMP JUMPDEST PUSH2 0x4B6 JUMP JUMPDEST PUSH2 0x1E5 JUMP JUMPDEST SWAP1 POP SWAP2 SWAP1 POP JUMP JUMPDEST PUSH0 DUP2 SWAP1 POP SWAP2 SWAP1 POP JUMP JUMPDEST PUSH2 0x4F2 DUP4 PUSH2 0x4BF JUMP JUMPDEST PUSH2 0x506 PUSH2 0x4FE DUP3 PUSH2 0x4E0 JUMP JUMPDEST DUP5 DUP5 SLOAD PUSH2 0x465 JUMP JUMPDEST DUP3 SSTORE POP POP POP POP JUMP JUMPDEST PUSH0 SWAP1 JUMP JUMPDEST PUSH2 0x51A PUSH2 0x50E JUMP JUMPDEST PUSH2 0x525 DUP2 DUP5 DUP5 PUSH2 0x4E9 JUMP JUMPDEST POP POP POP JUMP JUMPDEST JUMPDEST DUP2 DUP2 LT ISZERO PUSH2 0x548 JUMPI PUSH2 0x53D PUSH0 DUP3 PUSH2 0x512 JUMP JUMPDEST PUSH1 0x1 DUP2 ADD SWAP1 POP PUSH2 0x52B JUMP JUMPDEST POP POP JUMP JUMPDEST PUSH1 0x1F DUP3 GT ISZERO PUSH2 0x58D JUMPI PUSH2 0x55E DUP2 PUSH2 0x438 JUMP JUMPDEST PUSH2 0x567 DUP5 PUSH2 0x44A JUMP JUMPDEST DUP2 ADD PUSH1 0x20 DUP6 LT ISZERO PUSH2 0x576 JUMPI DUP2 SWAP1 POP JUMPDEST PUSH2 0x58A PUSH2 0x582 DUP6 PUSH2 0x44A JUMP JUMPDEST DUP4 ADD DUP3 PUSH2 0x52A JUMP JUMPDEST POP POP JUMPDEST POP POP POP JUMP JUMPDEST PUSH0 DUP3 DUP3 SHR SWAP1 POP SWAP3 SWAP2 POP POP JUMP JUMPDEST PUSH0 PUSH2 0x5AD PUSH0 NOT DUP5 PUSH1 0x8 MUL PUSH2 0x592 JUMP JUMPDEST NOT DUP1 DUP4 AND SWAP2 POP POP SWAP3 SWAP2 POP POP JUMP JUMPDEST PUSH0 PUSH2 0x5C5 DUP4 DUP4 PUSH2 0x59E JUMP JUMPDEST SWAP2 POP DUP3 PUSH1 0x2 MUL DUP3 OR SWAP1 POP SWAP3 SWAP2 POP POP JUMP JUMPDEST PUSH2 0x5DE DUP3 PUSH2 0x243 JUMP JUMPDEST PUSH8 0xFFFFFFFFFFFFFFFF DUP2 GT ISZERO PUSH2 0x5F7 JUMPI PUSH2 0x5F6 PUSH2 0x40B JUMP JUMPDEST JUMPDEST PUSH2 0x601 DUP3 SLOAD PUSH2 0x3DB JUMP JUMPDEST PUSH2 0x60C DUP3 DUP3 DUP6 PUSH2 0x54C JUMP JUMPDEST PUSH0 PUSH1 0x20 SWAP1 POP PUSH1 0x1F DUP4 GT PUSH1 0x1 DUP2 EQ PUSH2 0x63D JUMPI PUSH0 DUP5 ISZERO PUSH2 0x62B JUMPI DUP3 DUP8 ADD MLOAD SWAP1 POP JUMPDEST PUSH2 0x635 DUP6 DUP3 PUSH2 0x5BA JUMP JUMPDEST DUP7 SSTORE POP PUSH2 0x69C JUMP JUMPDEST PUSH1 0x1F NOT DUP5 AND PUSH2 0x64B DUP7 PUSH2 0x438 JUMP JUMPDEST PUSH0 JUMPDEST DUP3 DUP2 LT ISZERO PUSH2 0x672 JUMPI DUP5 DUP10 ADD MLOAD DUP3 SSTORE PUSH1 0x1 DUP3 ADD SWAP2 POP PUSH1 0x20 DUP6 ADD SWAP5 POP PUSH1 0x20 DUP2 ADD SWAP1 POP PUSH2 0x64D JUMP JUMPDEST DUP7 DUP4 LT ISZERO PUSH2 0x68F JUMPI DUP5 DUP10 ADD MLOAD PUSH2 0x68B PUSH1 0x1F DUP10 AND DUP3 PUSH2 0x59E JUMP JUMPDEST DUP4 SSTORE POP JUMPDEST PUSH1 0x1 PUSH1 0x2 DUP9 MUL ADD DUP9 SSTORE POP POP POP JUMPDEST POP POP POP POP POP POP JUMP INVALID LOG2 PUSH5 0x6970667358 0x22 SLT KECCAK256 0xB0 0x2A 0xC3 SWAP6 0xC0 0xE9 0xC9 PUSH10 0x9BA3B9D74187DB528B33 SWAP14 0xB0 PUSH13 0x6FD2545F214681DE83C91E6473 PUSH16 0x6C634300081A00330000000000000000 "
				},
				"gasEstimates": {
					"creation": {
						"codeDepositCost": "350800",
						"executionCost": "384",
						"totalCost": "351184"
					},
					"external": {
						"setNewUser(string,uint256)": "infinite",
						"usersList(uint256)": "infinite"
					}
				},
				"methodIdentifiers": {
					"setNewUser(string,uint256)": "a685e334",
					"usersList(uint256)": "502aa3b5"
				}
			},
			"storageLayout": {
				"storage": [
					{
						"astId": 10,
						"contract": "test_contract.sol:HelloWorld",
						"label": "usersList",
						"offset": 0,
						"slot": "0",
						"type": "t_array(t_struct(user)6_storage)dyn_storage"
					}
				],
				"types": {
					"t_array(t_struct(user)6_storage)dyn_storage": {
						"base": "t_struct(user)6_storage",
						"encoding": "dynamic_array",
						"label": "struct HelloWorld.user[]",
						"numberOfBytes": "32"
					},
					"t_string_storage": {
						"encoding": "bytes",
						"label": "string",
						"numberOfBytes": "32"
					},
					"t_struct(user)6_storage": {
						"encoding": "inplace",
						"label": "struct HelloWorld.user",
						"members": [
							{
								"astId": 3,
								"contract": "test_contract.sol:HelloWorld",
								"label": "name",
								"offset": 0,
								"slot": "0",
								"type": "t_string_storage"
							},
							{
								"astId": 5,
								"contract": "test_contract.sol:HelloWorld",
								"label": "age",
								"offset": 0,
								"slot": "1",
								"type": "t_uint256"
							}
						],
						"numberOfBytes": "64"
					},
					"t_uint256": {
						"encoding": "inplace",
						"label": "uint256",
						"numberOfBytes": "32"
					}
				}
			},
			"userdoc": {
				"kind": "user",
				"methods": {},
				"version": 1
			}
		}
	}
}