{
	"Contracts/pay_contract.sol": {
		"PayContract": {
			"abi": [
				{
					"inputs": [],
					"name": "Fund",
					"outputs": [],
					"stateMutability": "payable",
					"type": "function"
				},
				{
					"inputs": [],
					"name": "balance",
					"outputs": [
						{
							"internalType": "uint256",
							"name": "",
							"type": "uint256"
						}
					],
					"stateMutability": "view",
					"type": "function"
				},
				{
					"inputs": [
						{
							"internalType": "uint256",
							"name": "",
							"type": "uint256"
						}
					],
					"name": "funders",
					"outputs": [
						{
							"internalType": "address",
							"name": "",
							"type": "address"
						}
					],
					"stateMutability": "view",
					"type": "function"
				},
				{
					"inputs": [
						{
							"internalType": "address",
							"name": "funder",
							"type": "address"
						}
					],
					"name": "fundersWithTotalAmount",
					"outputs": [
						{
							"internalType": "uint256",
							"name": "amount",
							"type": "uint256"
						}
					],
					"stateMutability": "view",
					"type": "function"
				}
			],
			"devdoc": {
				"kind": "dev",
				"methods": {},
				"version": 1
			},
			"evm": {
				"assembly": "    /* \"Contracts/pay_contract.sol\":123:607  contract PayContract {... */\n  mstore(0x40, 0x80)\n  callvalue\n  dup1\n  iszero\n  tag_1\n  jumpi\n  0x00\n  dup1\n  revert\ntag_1:\n  pop\n  dataSize(sub_0)\n  dup1\n  dataOffset(sub_0)\n  0x00\n  codecopy\n  0x00\n  return\nstop\n\nsub_0: assembly {\n        /* \"Contracts/pay_contract.sol\":123:607  contract PayContract {... */\n      mstore(0x40, 0x80)\n      jumpi(tag_1, lt(calldatasize, 0x04))\n      shr(0xe0, calldataload(0x00))\n      dup1\n      0x35a48451\n      eq\n      tag_2\n      jumpi\n      dup1\n      0x6ce1417e\n      eq\n      tag_3\n      jumpi\n      dup1\n      0xb69ef8a8\n      eq\n      tag_4\n      jumpi\n      dup1\n      0xdc0d3dff\n      eq\n      tag_5\n      jumpi\n    tag_1:\n      0x00\n      dup1\n      revert\n        /* \"Contracts/pay_contract.sol\":244:317  mapping (address funder => uint256 amount ) public fundersWithTotalAmount */\n    tag_2:\n      callvalue\n      dup1\n      iszero\n      tag_6\n      jumpi\n      0x00\n      dup1\n      revert\n    tag_6:\n      pop\n      tag_7\n      0x04\n      dup1\n      calldatasize\n      sub\n      dup2\n      add\n      swap1\n      tag_8\n      swap2\n      swap1\n      tag_9\n      jump\t// in\n    tag_8:\n      tag_10\n      jump\t// in\n    tag_7:\n      mload(0x40)\n      tag_11\n      swap2\n      swap1\n      tag_12\n      jump\t// in\n    tag_11:\n      mload(0x40)\n      dup1\n      swap2\n      sub\n      swap1\n      return\n        /* \"Contracts/pay_contract.sol\":323:605  function Fund() public payable {... */\n    tag_3:\n      tag_13\n      tag_14\n      jump\t// in\n    tag_13:\n      stop\n        /* \"Contracts/pay_contract.sol\":189:211  uint256 public balance */\n    tag_4:\n      callvalue\n      dup1\n      iszero\n      tag_15\n      jumpi\n      0x00\n      dup1\n      revert\n    tag_15:\n      pop\n      tag_16\n      tag_17\n      jump\t// in\n    tag_16:\n      mload(0x40)\n      tag_18\n      swap2\n      swap1\n      tag_12\n      jump\t// in\n    tag_18:\n      mload(0x40)\n      dup1\n      swap2\n      sub\n      swap1\n      return\n        /* \"Contracts/pay_contract.sol\":215:242  address [ ] public  funders */\n    tag_5:\n      callvalue\n      dup1\n      iszero\n      tag_19\n      jumpi\n      0x00\n      dup1\n      revert\n    tag_19:\n      pop\n      tag_20\n      0x04\n      dup1\n      calldatasize\n      sub\n      dup2\n      add\n      swap1\n      tag_21\n      swap2\n      swap1\n      tag_22\n      jump\t// in\n    tag_21:\n      tag_23\n      jump\t// in\n    tag_20:\n      mload(0x40)\n      tag_24\n      swap2\n      swap1\n      tag_25\n      jump\t// in\n    tag_24:\n      mload(0x40)\n      dup1\n      swap2\n      sub\n      swap1\n      return\n        /* \"Contracts/pay_contract.sol\":244:317  mapping (address funder => uint256 amount ) public fundersWithTotalAmount */\n    tag_10:\n      mstore(0x20, 0x02)\n      dup1\n      0x00\n      mstore\n      keccak256(0x00, 0x40)\n      0x00\n      swap2\n      pop\n      swap1\n      pop\n      sload\n      dup2\n      jump\t// out\n        /* \"Contracts/pay_contract.sol\":323:605  function Fund() public payable {... */\n    tag_14:\n        /* \"Contracts/pay_contract.sol\":375:384  msg.value */\n      callvalue\n        /* \"Contracts/pay_contract.sol\":364:371  balance */\n      0x00\n      dup1\n        /* \"Contracts/pay_contract.sol\":364:384  balance += msg.value */\n      dup3\n      dup3\n      sload\n      tag_27\n      swap2\n      swap1\n      tag_28\n      jump\t// in\n    tag_27:\n      swap3\n      pop\n      pop\n      dup2\n      swap1\n      sstore\n      pop\n        /* \"Contracts/pay_contract.sol\":435:439  1e18 */\n      0x0de0b6b3a7640000\n        /* \"Contracts/pay_contract.sol\":403:432  msg.value.getPriceInDollars() */\n      tag_29\n        /* \"Contracts/pay_contract.sol\":403:412  msg.value */\n      callvalue\n        /* \"Contracts/pay_contract.sol\":403:430  msg.value.getPriceInDollars */\n      tag_30\n        /* \"Contracts/pay_contract.sol\":403:432  msg.value.getPriceInDollars() */\n      jump\t// in\n    tag_29:\n        /* \"Contracts/pay_contract.sol\":403:439  msg.value.getPriceInDollars() > 1e18 */\n      gt\n        /* \"Contracts/pay_contract.sol\":395:468  require(msg.value.getPriceInDollars() > 1e18, \"Payment must be 1 dollar\") */\n      tag_31\n      jumpi\n      mload(0x40)\n      0x08c379a000000000000000000000000000000000000000000000000000000000\n      dup2\n      mstore\n      0x04\n      add\n      tag_32\n      swap1\n      tag_33\n      jump\t// in\n    tag_32:\n      mload(0x40)\n      dup1\n      swap2\n      sub\n      swap1\n      revert\n    tag_31:\n        /* \"Contracts/pay_contract.sol\":479:486  funders */\n      0x01\n        /* \"Contracts/pay_contract.sol\":492:502  msg.sender */\n      caller\n        /* \"Contracts/pay_contract.sol\":479:503  funders.push(msg.sender) */\n      swap1\n      dup1\n      0x01\n      dup2\n      sload\n      add\n      dup1\n      dup3\n      sstore\n      dup1\n      swap2\n      pop\n      pop\n      0x01\n      swap1\n      sub\n      swap1\n      0x00\n      mstore\n      keccak256(0x00, 0x20)\n      add\n      0x00\n      swap1\n      swap2\n      swap1\n      swap2\n      swap1\n      swap2\n      0x0100\n      exp\n      dup2\n      sload\n      dup2\n      0xffffffffffffffffffffffffffffffffffffffff\n      mul\n      not\n      and\n      swap1\n      dup4\n      0xffffffffffffffffffffffffffffffffffffffff\n      and\n      mul\n      or\n      swap1\n      sstore\n      pop\n        /* \"Contracts/pay_contract.sol\":583:592  msg.value */\n      callvalue\n        /* \"Contracts/pay_contract.sol\":547:569  fundersWithTotalAmount */\n      0x02\n        /* \"Contracts/pay_contract.sol\":547:581  fundersWithTotalAmount[msg.sender] */\n      0x00\n        /* \"Contracts/pay_contract.sol\":570:580  msg.sender */\n      caller\n        /* \"Contracts/pay_contract.sol\":547:581  fundersWithTotalAmount[msg.sender] */\n      0xffffffffffffffffffffffffffffffffffffffff\n      and\n      0xffffffffffffffffffffffffffffffffffffffff\n      and\n      dup2\n      mstore\n      0x20\n      add\n      swap1\n      dup2\n      mstore\n      0x20\n      add\n      0x00\n      keccak256\n      sload\n        /* \"Contracts/pay_contract.sol\":547:592  fundersWithTotalAmount[msg.sender] +msg.value */\n      tag_35\n      swap2\n      swap1\n      tag_28\n      jump\t// in\n    tag_35:\n        /* \"Contracts/pay_contract.sol\":510:532  fundersWithTotalAmount */\n      0x02\n        /* \"Contracts/pay_contract.sol\":510:544  fundersWithTotalAmount[msg.sender] */\n      0x00\n        /* \"Contracts/pay_contract.sol\":533:543  msg.sender */\n      caller\n        /* \"Contracts/pay_contract.sol\":510:544  fundersWithTotalAmount[msg.sender] */\n      0xffffffffffffffffffffffffffffffffffffffff\n      and\n      0xffffffffffffffffffffffffffffffffffffffff\n      and\n      dup2\n      mstore\n      0x20\n      add\n      swap1\n      dup2\n      mstore\n      0x20\n      add\n      0x00\n      keccak256\n        /* \"Contracts/pay_contract.sol\":510:592  fundersWithTotalAmount[msg.sender] = fundersWithTotalAmount[msg.sender] +msg.value */\n      dup2\n      swap1\n      sstore\n      pop\n        /* \"Contracts/pay_contract.sol\":323:605  function Fund() public payable {... */\n      jump\t// out\n        /* \"Contracts/pay_contract.sol\":189:211  uint256 public balance */\n    tag_17:\n      sload(0x00)\n      dup2\n      jump\t// out\n        /* \"Contracts/pay_contract.sol\":215:242  address [ ] public  funders */\n    tag_23:\n      0x01\n      dup2\n      dup2\n      sload\n      dup2\n      lt\n      tag_36\n      jumpi\n      0x00\n      dup1\n      revert\n    tag_36:\n      swap1\n      0x00\n      mstore\n      keccak256(0x00, 0x20)\n      add\n      0x00\n      swap2\n      pop\n      sload\n      swap1\n      0x0100\n      exp\n      swap1\n      div\n      0xffffffffffffffffffffffffffffffffffffffff\n      and\n      dup2\n      jump\t// out\n        /* \"library/price_converter.sol\":219:695  function getPriceInDollars(uint256 amount) internal  view returns (uint256) {... */\n    tag_30:\n        /* \"library/price_converter.sol\":286:293  uint256 */\n      0x00\n        /* \"library/price_converter.sol\":349:362  int256 answer */\n      dup1\n        /* \"library/price_converter.sol\":394:436  0x694AA1769357215DE4FAC081bf1f309aDC325306 */\n      0x694aa1769357215de4fac081bf1f309adc325306\n        /* \"library/price_converter.sol\":372:453  AggregatorV3Interface(0x694AA1769357215DE4FAC081bf1f309aDC325306).latestRoundData */\n      0xffffffffffffffffffffffffffffffffffffffff\n      and\n      0xfeaf968c\n        /* \"library/price_converter.sol\":372:455  AggregatorV3Interface(0x694AA1769357215DE4FAC081bf1f309aDC325306).latestRoundData() */\n      mload(0x40)\n      dup2\n      0xffffffff\n      and\n      0xe0\n      shl\n      dup2\n      mstore\n      0x04\n      add\n      0xa0\n      mload(0x40)\n      dup1\n      dup4\n      sub\n      dup2\n      dup7\n      gas\n      staticcall\n      iszero\n      dup1\n      iszero\n      tag_40\n      jumpi\n      returndatasize\n      0x00\n      dup1\n      returndatacopy\n      revert(0x00, returndatasize)\n    tag_40:\n      pop\n      pop\n      pop\n      pop\n      mload(0x40)\n      returndatasize\n      not(0x1f)\n      0x1f\n      dup3\n      add\n      and\n      dup3\n      add\n      dup1\n      0x40\n      mstore\n      pop\n      dup2\n      add\n      swap1\n      tag_41\n      swap2\n      swap1\n      tag_42\n      jump\t// in\n    tag_41:\n        /* \"library/price_converter.sol\":346:455  (, int256 answer, , , ) = AggregatorV3Interface(0x694AA1769357215DE4FAC081bf1f309aDC325306).latestRoundData() */\n      pop\n      pop\n      pop\n      swap2\n      pop\n      pop\n        /* \"library/price_converter.sol\":466:488  uint256 conversionRate */\n      0x00\n        /* \"library/price_converter.sol\":508:512  1e10 */\n      0x02540be400\n        /* \"library/price_converter.sol\":499:505  answer */\n      dup3\n        /* \"library/price_converter.sol\":499:512  answer * 1e10 */\n      tag_43\n      swap2\n      swap1\n      tag_44\n      jump\t// in\n    tag_43:\n        /* \"library/price_converter.sol\":466:513  uint256 conversionRate = uint256(answer * 1e10) */\n      swap1\n      pop\n        /* \"library/price_converter.sol\":614:627  uint256 price */\n      0x00\n        /* \"library/price_converter.sol\":658:662  1e18 */\n      0x0de0b6b3a7640000\n        /* \"library/price_converter.sol\":640:654  conversionRate */\n      dup3\n        /* \"library/price_converter.sol\":631:637  amount */\n      dup7\n        /* \"library/price_converter.sol\":631:654  amount * conversionRate */\n      tag_45\n      swap2\n      swap1\n      tag_46\n      jump\t// in\n    tag_45:\n        /* \"library/price_converter.sol\":630:662  (amount * conversionRate) / 1e18 */\n      tag_47\n      swap2\n      swap1\n      tag_48\n      jump\t// in\n    tag_47:\n        /* \"library/price_converter.sol\":614:662  uint256 price = (amount * conversionRate) / 1e18 */\n      swap1\n      pop\n        /* \"library/price_converter.sol\":682:687  price */\n      dup1\n        /* \"library/price_converter.sol\":675:687  return price */\n      swap4\n      pop\n      pop\n      pop\n      pop\n        /* \"library/price_converter.sol\":219:695  function getPriceInDollars(uint256 amount) internal  view returns (uint256) {... */\n      swap2\n      swap1\n      pop\n      jump\t// out\n        /* \"#utility.yul\":88:205   */\n    tag_50:\n        /* \"#utility.yul\":197:198   */\n      0x00\n        /* \"#utility.yul\":194:195   */\n      dup1\n        /* \"#utility.yul\":187:199   */\n      revert\n        /* \"#utility.yul\":334:460   */\n    tag_52:\n        /* \"#utility.yul\":371:378   */\n      0x00\n        /* \"#utility.yul\":411:453   */\n      0xffffffffffffffffffffffffffffffffffffffff\n        /* \"#utility.yul\":404:409   */\n      dup3\n        /* \"#utility.yul\":400:454   */\n      and\n        /* \"#utility.yul\":389:454   */\n      swap1\n      pop\n        /* \"#utility.yul\":334:460   */\n      swap2\n      swap1\n      pop\n      jump\t// out\n        /* \"#utility.yul\":466:562   */\n    tag_53:\n        /* \"#utility.yul\":503:510   */\n      0x00\n        /* \"#utility.yul\":532:556   */\n      tag_79\n        /* \"#utility.yul\":550:555   */\n      dup3\n        /* \"#utility.yul\":532:556   */\n      tag_52\n      jump\t// in\n    tag_79:\n        /* \"#utility.yul\":521:556   */\n      swap1\n      pop\n        /* \"#utility.yul\":466:562   */\n      swap2\n      swap1\n      pop\n      jump\t// out\n        /* \"#utility.yul\":568:690   */\n    tag_54:\n        /* \"#utility.yul\":641:665   */\n      tag_81\n        /* \"#utility.yul\":659:664   */\n      dup2\n        /* \"#utility.yul\":641:665   */\n      tag_53\n      jump\t// in\n    tag_81:\n        /* \"#utility.yul\":634:639   */\n      dup2\n        /* \"#utility.yul\":631:666   */\n      eq\n        /* \"#utility.yul\":621:684   */\n      tag_82\n      jumpi\n        /* \"#utility.yul\":680:681   */\n      0x00\n        /* \"#utility.yul\":677:678   */\n      dup1\n        /* \"#utility.yul\":670:682   */\n      revert\n        /* \"#utility.yul\":621:684   */\n    tag_82:\n        /* \"#utility.yul\":568:690   */\n      pop\n      jump\t// out\n        /* \"#utility.yul\":696:835   */\n    tag_55:\n        /* \"#utility.yul\":742:747   */\n      0x00\n        /* \"#utility.yul\":780:786   */\n      dup2\n        /* \"#utility.yul\":767:787   */\n      calldataload\n        /* \"#utility.yul\":758:787   */\n      swap1\n      pop\n        /* \"#utility.yul\":796:829   */\n      tag_84\n        /* \"#utility.yul\":823:828   */\n      dup2\n        /* \"#utility.yul\":796:829   */\n      tag_54\n      jump\t// in\n    tag_84:\n        /* \"#utility.yul\":696:835   */\n      swap3\n      swap2\n      pop\n      pop\n      jump\t// out\n        /* \"#utility.yul\":841:1170   */\n    tag_9:\n        /* \"#utility.yul\":900:906   */\n      0x00\n        /* \"#utility.yul\":949:951   */\n      0x20\n        /* \"#utility.yul\":937:946   */\n      dup3\n        /* \"#utility.yul\":928:935   */\n      dup5\n        /* \"#utility.yul\":924:947   */\n      sub\n        /* \"#utility.yul\":920:952   */\n      slt\n        /* \"#utility.yul\":917:1036   */\n      iszero\n      tag_86\n      jumpi\n        /* \"#utility.yul\":955:1034   */\n      tag_87\n      tag_50\n      jump\t// in\n    tag_87:\n        /* \"#utility.yul\":917:1036   */\n    tag_86:\n        /* \"#utility.yul\":1075:1076   */\n      0x00\n        /* \"#utility.yul\":1100:1153   */\n      tag_88\n        /* \"#utility.yul\":1145:1152   */\n      dup5\n        /* \"#utility.yul\":1136:1142   */\n      dup3\n        /* \"#utility.yul\":1125:1134   */\n      dup6\n        /* \"#utility.yul\":1121:1143   */\n      add\n        /* \"#utility.yul\":1100:1153   */\n      tag_55\n      jump\t// in\n    tag_88:\n        /* \"#utility.yul\":1090:1153   */\n      swap2\n      pop\n        /* \"#utility.yul\":1046:1163   */\n      pop\n        /* \"#utility.yul\":841:1170   */\n      swap3\n      swap2\n      pop\n      pop\n      jump\t// out\n        /* \"#utility.yul\":1176:1253   */\n    tag_56:\n        /* \"#utility.yul\":1213:1220   */\n      0x00\n        /* \"#utility.yul\":1242:1247   */\n      dup2\n        /* \"#utility.yul\":1231:1247   */\n      swap1\n      pop\n        /* \"#utility.yul\":1176:1253   */\n      swap2\n      swap1\n      pop\n      jump\t// out\n        /* \"#utility.yul\":1259:1377   */\n    tag_57:\n        /* \"#utility.yul\":1346:1370   */\n      tag_91\n        /* \"#utility.yul\":1364:1369   */\n      dup2\n        /* \"#utility.yul\":1346:1370   */\n      tag_56\n      jump\t// in\n    tag_91:\n        /* \"#utility.yul\":1341:1344   */\n      dup3\n        /* \"#utility.yul\":1334:1371   */\n      mstore\n        /* \"#utility.yul\":1259:1377   */\n      pop\n      pop\n      jump\t// out\n        /* \"#utility.yul\":1383:1605   */\n    tag_12:\n        /* \"#utility.yul\":1476:1480   */\n      0x00\n        /* \"#utility.yul\":1514:1516   */\n      0x20\n        /* \"#utility.yul\":1503:1512   */\n      dup3\n        /* \"#utility.yul\":1499:1517   */\n      add\n        /* \"#utility.yul\":1491:1517   */\n      swap1\n      pop\n        /* \"#utility.yul\":1527:1598   */\n      tag_93\n        /* \"#utility.yul\":1595:1596   */\n      0x00\n        /* \"#utility.yul\":1584:1593   */\n      dup4\n        /* \"#utility.yul\":1580:1597   */\n      add\n        /* \"#utility.yul\":1571:1577   */\n      dup5\n        /* \"#utility.yul\":1527:1598   */\n      tag_57\n      jump\t// in\n    tag_93:\n        /* \"#utility.yul\":1383:1605   */\n      swap3\n      swap2\n      pop\n      pop\n      jump\t// out\n        /* \"#utility.yul\":1611:1733   */\n    tag_58:\n        /* \"#utility.yul\":1684:1708   */\n      tag_95\n        /* \"#utility.yul\":1702:1707   */\n      dup2\n        /* \"#utility.yul\":1684:1708   */\n      tag_56\n      jump\t// in\n    tag_95:\n        /* \"#utility.yul\":1677:1682   */\n      dup2\n        /* \"#utility.yul\":1674:1709   */\n      eq\n        /* \"#utility.yul\":1664:1727   */\n      tag_96\n      jumpi\n        /* \"#utility.yul\":1723:1724   */\n      0x00\n        /* \"#utility.yul\":1720:1721   */\n      dup1\n        /* \"#utility.yul\":1713:1725   */\n      revert\n        /* \"#utility.yul\":1664:1727   */\n    tag_96:\n        /* \"#utility.yul\":1611:1733   */\n      pop\n      jump\t// out\n        /* \"#utility.yul\":1739:1878   */\n    tag_59:\n        /* \"#utility.yul\":1785:1790   */\n      0x00\n        /* \"#utility.yul\":1823:1829   */\n      dup2\n        /* \"#utility.yul\":1810:1830   */\n      calldataload\n        /* \"#utility.yul\":1801:1830   */\n      swap1\n      pop\n        /* \"#utility.yul\":1839:1872   */\n      tag_98\n        /* \"#utility.yul\":1866:1871   */\n      dup2\n        /* \"#utility.yul\":1839:1872   */\n      tag_58\n      jump\t// in\n    tag_98:\n        /* \"#utility.yul\":1739:1878   */\n      swap3\n      swap2\n      pop\n      pop\n      jump\t// out\n        /* \"#utility.yul\":1884:2213   */\n    tag_22:\n        /* \"#utility.yul\":1943:1949   */\n      0x00\n        /* \"#utility.yul\":1992:1994   */\n      0x20\n        /* \"#utility.yul\":1980:1989   */\n      dup3\n        /* \"#utility.yul\":1971:1978   */\n      dup5\n        /* \"#utility.yul\":1967:1990   */\n      sub\n        /* \"#utility.yul\":1963:1995   */\n      slt\n        /* \"#utility.yul\":1960:2079   */\n      iszero\n      tag_100\n      jumpi\n        /* \"#utility.yul\":1998:2077   */\n      tag_101\n      tag_50\n      jump\t// in\n    tag_101:\n        /* \"#utility.yul\":1960:2079   */\n    tag_100:\n        /* \"#utility.yul\":2118:2119   */\n      0x00\n        /* \"#utility.yul\":2143:2196   */\n      tag_102\n        /* \"#utility.yul\":2188:2195   */\n      dup5\n        /* \"#utility.yul\":2179:2185   */\n      dup3\n        /* \"#utility.yul\":2168:2177   */\n      dup6\n        /* \"#utility.yul\":2164:2186   */\n      add\n        /* \"#utility.yul\":2143:2196   */\n      tag_59\n      jump\t// in\n    tag_102:\n        /* \"#utility.yul\":2133:2196   */\n      swap2\n      pop\n        /* \"#utility.yul\":2089:2206   */\n      pop\n        /* \"#utility.yul\":1884:2213   */\n      swap3\n      swap2\n      pop\n      pop\n      jump\t// out\n        /* \"#utility.yul\":2219:2337   */\n    tag_60:\n        /* \"#utility.yul\":2306:2330   */\n      tag_104\n        /* \"#utility.yul\":2324:2329   */\n      dup2\n        /* \"#utility.yul\":2306:2330   */\n      tag_53\n      jump\t// in\n    tag_104:\n        /* \"#utility.yul\":2301:2304   */\n      dup3\n        /* \"#utility.yul\":2294:2331   */\n      mstore\n        /* \"#utility.yul\":2219:2337   */\n      pop\n      pop\n      jump\t// out\n        /* \"#utility.yul\":2343:2565   */\n    tag_25:\n        /* \"#utility.yul\":2436:2440   */\n      0x00\n        /* \"#utility.yul\":2474:2476   */\n      0x20\n        /* \"#utility.yul\":2463:2472   */\n      dup3\n        /* \"#utility.yul\":2459:2477   */\n      add\n        /* \"#utility.yul\":2451:2477   */\n      swap1\n      pop\n        /* \"#utility.yul\":2487:2558   */\n      tag_106\n        /* \"#utility.yul\":2555:2556   */\n      0x00\n        /* \"#utility.yul\":2544:2553   */\n      dup4\n        /* \"#utility.yul\":2540:2557   */\n      add\n        /* \"#utility.yul\":2531:2537   */\n      dup5\n        /* \"#utility.yul\":2487:2558   */\n      tag_60\n      jump\t// in\n    tag_106:\n        /* \"#utility.yul\":2343:2565   */\n      swap3\n      swap2\n      pop\n      pop\n      jump\t// out\n        /* \"#utility.yul\":2571:2751   */\n    tag_61:\n        /* \"#utility.yul\":2619:2696   */\n      0x4e487b7100000000000000000000000000000000000000000000000000000000\n        /* \"#utility.yul\":2616:2617   */\n      0x00\n        /* \"#utility.yul\":2609:2697   */\n      mstore\n        /* \"#utility.yul\":2716:2720   */\n      0x11\n        /* \"#utility.yul\":2713:2714   */\n      0x04\n        /* \"#utility.yul\":2706:2721   */\n      mstore\n        /* \"#utility.yul\":2740:2744   */\n      0x24\n        /* \"#utility.yul\":2737:2738   */\n      0x00\n        /* \"#utility.yul\":2730:2745   */\n      revert\n        /* \"#utility.yul\":2757:2948   */\n    tag_28:\n        /* \"#utility.yul\":2797:2800   */\n      0x00\n        /* \"#utility.yul\":2816:2836   */\n      tag_109\n        /* \"#utility.yul\":2834:2835   */\n      dup3\n        /* \"#utility.yul\":2816:2836   */\n      tag_56\n      jump\t// in\n    tag_109:\n        /* \"#utility.yul\":2811:2836   */\n      swap2\n      pop\n        /* \"#utility.yul\":2850:2870   */\n      tag_110\n        /* \"#utility.yul\":2868:2869   */\n      dup4\n        /* \"#utility.yul\":2850:2870   */\n      tag_56\n      jump\t// in\n    tag_110:\n        /* \"#utility.yul\":2845:2870   */\n      swap3\n      pop\n        /* \"#utility.yul\":2893:2894   */\n      dup3\n        /* \"#utility.yul\":2890:2891   */\n      dup3\n        /* \"#utility.yul\":2886:2895   */\n      add\n        /* \"#utility.yul\":2879:2895   */\n      swap1\n      pop\n        /* \"#utility.yul\":2914:2917   */\n      dup1\n        /* \"#utility.yul\":2911:2912   */\n      dup3\n        /* \"#utility.yul\":2908:2918   */\n      gt\n        /* \"#utility.yul\":2905:2941   */\n      iszero\n      tag_111\n      jumpi\n        /* \"#utility.yul\":2921:2939   */\n      tag_112\n      tag_61\n      jump\t// in\n    tag_112:\n        /* \"#utility.yul\":2905:2941   */\n    tag_111:\n        /* \"#utility.yul\":2757:2948   */\n      swap3\n      swap2\n      pop\n      pop\n      jump\t// out\n        /* \"#utility.yul\":2954:3123   */\n    tag_62:\n        /* \"#utility.yul\":3038:3049   */\n      0x00\n        /* \"#utility.yul\":3072:3078   */\n      dup3\n        /* \"#utility.yul\":3067:3070   */\n      dup3\n        /* \"#utility.yul\":3060:3079   */\n      mstore\n        /* \"#utility.yul\":3112:3116   */\n      0x20\n        /* \"#utility.yul\":3107:3110   */\n      dup3\n        /* \"#utility.yul\":3103:3117   */\n      add\n        /* \"#utility.yul\":3088:3117   */\n      swap1\n      pop\n        /* \"#utility.yul\":2954:3123   */\n      swap3\n      swap2\n      pop\n      pop\n      jump\t// out\n        /* \"#utility.yul\":3129:3303   */\n    tag_63:\n        /* \"#utility.yul\":3269:3295   */\n      0x5061796d656e74206d757374206265203120646f6c6c61720000000000000000\n        /* \"#utility.yul\":3265:3266   */\n      0x00\n        /* \"#utility.yul\":3257:3263   */\n      dup3\n        /* \"#utility.yul\":3253:3267   */\n      add\n        /* \"#utility.yul\":3246:3296   */\n      mstore\n        /* \"#utility.yul\":3129:3303   */\n      pop\n      jump\t// out\n        /* \"#utility.yul\":3309:3675   */\n    tag_64:\n        /* \"#utility.yul\":3451:3454   */\n      0x00\n        /* \"#utility.yul\":3472:3539   */\n      tag_116\n        /* \"#utility.yul\":3536:3538   */\n      0x18\n        /* \"#utility.yul\":3531:3534   */\n      dup4\n        /* \"#utility.yul\":3472:3539   */\n      tag_62\n      jump\t// in\n    tag_116:\n        /* \"#utility.yul\":3465:3539   */\n      swap2\n      pop\n        /* \"#utility.yul\":3548:3641   */\n      tag_117\n        /* \"#utility.yul\":3637:3640   */\n      dup3\n        /* \"#utility.yul\":3548:3641   */\n      tag_63\n      jump\t// in\n    tag_117:\n        /* \"#utility.yul\":3666:3668   */\n      0x20\n        /* \"#utility.yul\":3661:3664   */\n      dup3\n        /* \"#utility.yul\":3657:3669   */\n      add\n        /* \"#utility.yul\":3650:3669   */\n      swap1\n      pop\n        /* \"#utility.yul\":3309:3675   */\n      swap2\n      swap1\n      pop\n      jump\t// out\n        /* \"#utility.yul\":3681:4100   */\n    tag_33:\n        /* \"#utility.yul\":3847:3851   */\n      0x00\n        /* \"#utility.yul\":3885:3887   */\n      0x20\n        /* \"#utility.yul\":3874:3883   */\n      dup3\n        /* \"#utility.yul\":3870:3888   */\n      add\n        /* \"#utility.yul\":3862:3888   */\n      swap1\n      pop\n        /* \"#utility.yul\":3934:3943   */\n      dup2\n        /* \"#utility.yul\":3928:3932   */\n      dup2\n        /* \"#utility.yul\":3924:3944   */\n      sub\n        /* \"#utility.yul\":3920:3921   */\n      0x00\n        /* \"#utility.yul\":3909:3918   */\n      dup4\n        /* \"#utility.yul\":3905:3922   */\n      add\n        /* \"#utility.yul\":3898:3945   */\n      mstore\n        /* \"#utility.yul\":3962:4093   */\n      tag_119\n        /* \"#utility.yul\":4088:4092   */\n      dup2\n        /* \"#utility.yul\":3962:4093   */\n      tag_64\n      jump\t// in\n    tag_119:\n        /* \"#utility.yul\":3954:4093   */\n      swap1\n      pop\n        /* \"#utility.yul\":3681:4100   */\n      swap2\n      swap1\n      pop\n      jump\t// out\n        /* \"#utility.yul\":4106:4211   */\n    tag_65:\n        /* \"#utility.yul\":4142:4149   */\n      0x00\n        /* \"#utility.yul\":4182:4204   */\n      0xffffffffffffffffffff\n        /* \"#utility.yul\":4175:4180   */\n      dup3\n        /* \"#utility.yul\":4171:4205   */\n      and\n        /* \"#utility.yul\":4160:4205   */\n      swap1\n      pop\n        /* \"#utility.yul\":4106:4211   */\n      swap2\n      swap1\n      pop\n      jump\t// out\n        /* \"#utility.yul\":4217:4337   */\n    tag_66:\n        /* \"#utility.yul\":4289:4312   */\n      tag_122\n        /* \"#utility.yul\":4306:4311   */\n      dup2\n        /* \"#utility.yul\":4289:4312   */\n      tag_65\n      jump\t// in\n    tag_122:\n        /* \"#utility.yul\":4282:4287   */\n      dup2\n        /* \"#utility.yul\":4279:4313   */\n      eq\n        /* \"#utility.yul\":4269:4331   */\n      tag_123\n      jumpi\n        /* \"#utility.yul\":4327:4328   */\n      0x00\n        /* \"#utility.yul\":4324:4325   */\n      dup1\n        /* \"#utility.yul\":4317:4329   */\n      revert\n        /* \"#utility.yul\":4269:4331   */\n    tag_123:\n        /* \"#utility.yul\":4217:4337   */\n      pop\n      jump\t// out\n        /* \"#utility.yul\":4343:4484   */\n    tag_67:\n        /* \"#utility.yul\":4399:4404   */\n      0x00\n        /* \"#utility.yul\":4430:4436   */\n      dup2\n        /* \"#utility.yul\":4424:4437   */\n      mload\n        /* \"#utility.yul\":4415:4437   */\n      swap1\n      pop\n        /* \"#utility.yul\":4446:4478   */\n      tag_125\n        /* \"#utility.yul\":4472:4477   */\n      dup2\n        /* \"#utility.yul\":4446:4478   */\n      tag_66\n      jump\t// in\n    tag_125:\n        /* \"#utility.yul\":4343:4484   */\n      swap3\n      swap2\n      pop\n      pop\n      jump\t// out\n        /* \"#utility.yul\":4490:4566   */\n    tag_68:\n        /* \"#utility.yul\":4526:4533   */\n      0x00\n        /* \"#utility.yul\":4555:4560   */\n      dup2\n        /* \"#utility.yul\":4544:4560   */\n      swap1\n      pop\n        /* \"#utility.yul\":4490:4566   */\n      swap2\n      swap1\n      pop\n      jump\t// out\n        /* \"#utility.yul\":4572:4692   */\n    tag_69:\n        /* \"#utility.yul\":4644:4667   */\n      tag_128\n        /* \"#utility.yul\":4661:4666   */\n      dup2\n        /* \"#utility.yul\":4644:4667   */\n      tag_68\n      jump\t// in\n    tag_128:\n        /* \"#utility.yul\":4637:4642   */\n      dup2\n        /* \"#utility.yul\":4634:4668   */\n      eq\n        /* \"#utility.yul\":4624:4686   */\n      tag_129\n      jumpi\n        /* \"#utility.yul\":4682:4683   */\n      0x00\n        /* \"#utility.yul\":4679:4680   */\n      dup1\n        /* \"#utility.yul\":4672:4684   */\n      revert\n        /* \"#utility.yul\":4624:4686   */\n    tag_129:\n        /* \"#utility.yul\":4572:4692   */\n      pop\n      jump\t// out\n        /* \"#utility.yul\":4698:4839   */\n    tag_70:\n        /* \"#utility.yul\":4754:4759   */\n      0x00\n        /* \"#utility.yul\":4785:4791   */\n      dup2\n        /* \"#utility.yul\":4779:4792   */\n      mload\n        /* \"#utility.yul\":4770:4792   */\n      swap1\n      pop\n        /* \"#utility.yul\":4801:4833   */\n      tag_131\n        /* \"#utility.yul\":4827:4832   */\n      dup2\n        /* \"#utility.yul\":4801:4833   */\n      tag_69\n      jump\t// in\n    tag_131:\n        /* \"#utility.yul\":4698:4839   */\n      swap3\n      swap2\n      pop\n      pop\n      jump\t// out\n        /* \"#utility.yul\":4845:4988   */\n    tag_71:\n        /* \"#utility.yul\":4902:4907   */\n      0x00\n        /* \"#utility.yul\":4933:4939   */\n      dup2\n        /* \"#utility.yul\":4927:4940   */\n      mload\n        /* \"#utility.yul\":4918:4940   */\n      swap1\n      pop\n        /* \"#utility.yul\":4949:4982   */\n      tag_133\n        /* \"#utility.yul\":4976:4981   */\n      dup2\n        /* \"#utility.yul\":4949:4982   */\n      tag_58\n      jump\t// in\n    tag_133:\n        /* \"#utility.yul\":4845:4988   */\n      swap3\n      swap2\n      pop\n      pop\n      jump\t// out\n        /* \"#utility.yul\":4994:5965   */\n    tag_42:\n        /* \"#utility.yul\":5097:5103   */\n      0x00\n        /* \"#utility.yul\":5105:5111   */\n      dup1\n        /* \"#utility.yul\":5113:5119   */\n      0x00\n        /* \"#utility.yul\":5121:5127   */\n      dup1\n        /* \"#utility.yul\":5129:5135   */\n      0x00\n        /* \"#utility.yul\":5178:5181   */\n      0xa0\n        /* \"#utility.yul\":5166:5175   */\n      dup7\n        /* \"#utility.yul\":5157:5164   */\n      dup9\n        /* \"#utility.yul\":5153:5176   */\n      sub\n        /* \"#utility.yul\":5149:5182   */\n      slt\n        /* \"#utility.yul\":5146:5266   */\n      iszero\n      tag_135\n      jumpi\n        /* \"#utility.yul\":5185:5264   */\n      tag_136\n      tag_50\n      jump\t// in\n    tag_136:\n        /* \"#utility.yul\":5146:5266   */\n    tag_135:\n        /* \"#utility.yul\":5305:5306   */\n      0x00\n        /* \"#utility.yul\":5330:5393   */\n      tag_137\n        /* \"#utility.yul\":5385:5392   */\n      dup9\n        /* \"#utility.yul\":5376:5382   */\n      dup3\n        /* \"#utility.yul\":5365:5374   */\n      dup10\n        /* \"#utility.yul\":5361:5383   */\n      add\n        /* \"#utility.yul\":5330:5393   */\n      tag_67\n      jump\t// in\n    tag_137:\n        /* \"#utility.yul\":5320:5393   */\n      swap6\n      pop\n        /* \"#utility.yul\":5276:5403   */\n      pop\n        /* \"#utility.yul\":5442:5444   */\n      0x20\n        /* \"#utility.yul\":5468:5531   */\n      tag_138\n        /* \"#utility.yul\":5523:5530   */\n      dup9\n        /* \"#utility.yul\":5514:5520   */\n      dup3\n        /* \"#utility.yul\":5503:5512   */\n      dup10\n        /* \"#utility.yul\":5499:5521   */\n      add\n        /* \"#utility.yul\":5468:5531   */\n      tag_70\n      jump\t// in\n    tag_138:\n        /* \"#utility.yul\":5458:5531   */\n      swap5\n      pop\n        /* \"#utility.yul\":5413:5541   */\n      pop\n        /* \"#utility.yul\":5580:5582   */\n      0x40\n        /* \"#utility.yul\":5606:5670   */\n      tag_139\n        /* \"#utility.yul\":5662:5669   */\n      dup9\n        /* \"#utility.yul\":5653:5659   */\n      dup3\n        /* \"#utility.yul\":5642:5651   */\n      dup10\n        /* \"#utility.yul\":5638:5660   */\n      add\n        /* \"#utility.yul\":5606:5670   */\n      tag_71\n      jump\t// in\n    tag_139:\n        /* \"#utility.yul\":5596:5670   */\n      swap4\n      pop\n        /* \"#utility.yul\":5551:5680   */\n      pop\n        /* \"#utility.yul\":5719:5721   */\n      0x60\n        /* \"#utility.yul\":5745:5809   */\n      tag_140\n        /* \"#utility.yul\":5801:5808   */\n      dup9\n        /* \"#utility.yul\":5792:5798   */\n      dup3\n        /* \"#utility.yul\":5781:5790   */\n      dup10\n        /* \"#utility.yul\":5777:5799   */\n      add\n        /* \"#utility.yul\":5745:5809   */\n      tag_71\n      jump\t// in\n    tag_140:\n        /* \"#utility.yul\":5735:5809   */\n      swap3\n      pop\n        /* \"#utility.yul\":5690:5819   */\n      pop\n        /* \"#utility.yul\":5858:5861   */\n      0x80\n        /* \"#utility.yul\":5885:5948   */\n      tag_141\n        /* \"#utility.yul\":5940:5947   */\n      dup9\n        /* \"#utility.yul\":5931:5937   */\n      dup3\n        /* \"#utility.yul\":5920:5929   */\n      dup10\n        /* \"#utility.yul\":5916:5938   */\n      add\n        /* \"#utility.yul\":5885:5948   */\n      tag_67\n      jump\t// in\n    tag_141:\n        /* \"#utility.yul\":5875:5948   */\n      swap2\n      pop\n        /* \"#utility.yul\":5829:5958   */\n      pop\n        /* \"#utility.yul\":4994:5965   */\n      swap3\n      swap6\n      pop\n      swap3\n      swap6\n      swap1\n      swap4\n      pop\n      jump\t// out\n        /* \"#utility.yul\":5971:6527   */\n    tag_44:\n        /* \"#utility.yul\":6010:6017   */\n      0x00\n        /* \"#utility.yul\":6033:6052   */\n      tag_143\n        /* \"#utility.yul\":6050:6051   */\n      dup3\n        /* \"#utility.yul\":6033:6052   */\n      tag_68\n      jump\t// in\n    tag_143:\n        /* \"#utility.yul\":6028:6052   */\n      swap2\n      pop\n        /* \"#utility.yul\":6066:6085   */\n      tag_144\n        /* \"#utility.yul\":6083:6084   */\n      dup4\n        /* \"#utility.yul\":6066:6085   */\n      tag_68\n      jump\t// in\n    tag_144:\n        /* \"#utility.yul\":6061:6085   */\n      swap3\n      pop\n        /* \"#utility.yul\":6120:6121   */\n      dup3\n        /* \"#utility.yul\":6117:6118   */\n      dup3\n        /* \"#utility.yul\":6113:6122   */\n      mul\n        /* \"#utility.yul\":6142:6171   */\n      tag_145\n        /* \"#utility.yul\":6159:6170   */\n      dup2\n        /* \"#utility.yul\":6142:6171   */\n      tag_68\n      jump\t// in\n    tag_145:\n        /* \"#utility.yul\":6131:6171   */\n      swap2\n      pop\n        /* \"#utility.yul\":6229:6295   */\n      0x8000000000000000000000000000000000000000000000000000000000000000\n        /* \"#utility.yul\":6226:6227   */\n      dup5\n        /* \"#utility.yul\":6223:6296   */\n      eq\n        /* \"#utility.yul\":6219:6220   */\n      0x00\n        /* \"#utility.yul\":6216:6217   */\n      dup5\n        /* \"#utility.yul\":6212:6221   */\n      slt\n        /* \"#utility.yul\":6208:6297   */\n      and\n        /* \"#utility.yul\":6205:6320   */\n      iszero\n      tag_146\n      jumpi\n        /* \"#utility.yul\":6300:6318   */\n      tag_147\n      tag_61\n      jump\t// in\n    tag_147:\n        /* \"#utility.yul\":6205:6320   */\n    tag_146:\n        /* \"#utility.yul\":6470:6471   */\n      dup3\n        /* \"#utility.yul\":6461:6468   */\n      dup3\n        /* \"#utility.yul\":6456:6472   */\n      sdiv\n        /* \"#utility.yul\":6453:6454   */\n      dup5\n        /* \"#utility.yul\":6450:6473   */\n      eq\n        /* \"#utility.yul\":6430:6431   */\n      dup4\n        /* \"#utility.yul\":6423:6432   */\n      iszero\n        /* \"#utility.yul\":6403:6487   */\n      or\n        /* \"#utility.yul\":6380:6520   */\n      tag_148\n      jumpi\n        /* \"#utility.yul\":6500:6518   */\n      tag_149\n      tag_61\n      jump\t// in\n    tag_149:\n        /* \"#utility.yul\":6380:6520   */\n    tag_148:\n        /* \"#utility.yul\":6018:6527   */\n      pop\n        /* \"#utility.yul\":5971:6527   */\n      swap3\n      swap2\n      pop\n      pop\n      jump\t// out\n        /* \"#utility.yul\":6533:6943   */\n    tag_46:\n        /* \"#utility.yul\":6573:6580   */\n      0x00\n        /* \"#utility.yul\":6596:6616   */\n      tag_151\n        /* \"#utility.yul\":6614:6615   */\n      dup3\n        /* \"#utility.yul\":6596:6616   */\n      tag_56\n      jump\t// in\n    tag_151:\n        /* \"#utility.yul\":6591:6616   */\n      swap2\n      pop\n        /* \"#utility.yul\":6630:6650   */\n      tag_152\n        /* \"#utility.yul\":6648:6649   */\n      dup4\n        /* \"#utility.yul\":6630:6650   */\n      tag_56\n      jump\t// in\n    tag_152:\n        /* \"#utility.yul\":6625:6650   */\n      swap3\n      pop\n        /* \"#utility.yul\":6685:6686   */\n      dup3\n        /* \"#utility.yul\":6682:6683   */\n      dup3\n        /* \"#utility.yul\":6678:6687   */\n      mul\n        /* \"#utility.yul\":6707:6737   */\n      tag_153\n        /* \"#utility.yul\":6725:6736   */\n      dup2\n        /* \"#utility.yul\":6707:6737   */\n      tag_56\n      jump\t// in\n    tag_153:\n        /* \"#utility.yul\":6696:6737   */\n      swap2\n      pop\n        /* \"#utility.yul\":6886:6887   */\n      dup3\n        /* \"#utility.yul\":6877:6884   */\n      dup3\n        /* \"#utility.yul\":6873:6888   */\n      div\n        /* \"#utility.yul\":6870:6871   */\n      dup5\n        /* \"#utility.yul\":6867:6889   */\n      eq\n        /* \"#utility.yul\":6847:6848   */\n      dup4\n        /* \"#utility.yul\":6840:6849   */\n      iszero\n        /* \"#utility.yul\":6820:6903   */\n      or\n        /* \"#utility.yul\":6797:6936   */\n      tag_154\n      jumpi\n        /* \"#utility.yul\":6916:6934   */\n      tag_155\n      tag_61\n      jump\t// in\n    tag_155:\n        /* \"#utility.yul\":6797:6936   */\n    tag_154:\n        /* \"#utility.yul\":6581:6943   */\n      pop\n        /* \"#utility.yul\":6533:6943   */\n      swap3\n      swap2\n      pop\n      pop\n      jump\t// out\n        /* \"#utility.yul\":6949:7129   */\n    tag_72:\n        /* \"#utility.yul\":6997:7074   */\n      0x4e487b7100000000000000000000000000000000000000000000000000000000\n        /* \"#utility.yul\":6994:6995   */\n      0x00\n        /* \"#utility.yul\":6987:7075   */\n      mstore\n        /* \"#utility.yul\":7094:7098   */\n      0x12\n        /* \"#utility.yul\":7091:7092   */\n      0x04\n        /* \"#utility.yul\":7084:7099   */\n      mstore\n        /* \"#utility.yul\":7118:7122   */\n      0x24\n        /* \"#utility.yul\":7115:7116   */\n      0x00\n        /* \"#utility.yul\":7108:7123   */\n      revert\n        /* \"#utility.yul\":7135:7320   */\n    tag_48:\n        /* \"#utility.yul\":7175:7176   */\n      0x00\n        /* \"#utility.yul\":7192:7212   */\n      tag_158\n        /* \"#utility.yul\":7210:7211   */\n      dup3\n        /* \"#utility.yul\":7192:7212   */\n      tag_56\n      jump\t// in\n    tag_158:\n        /* \"#utility.yul\":7187:7212   */\n      swap2\n      pop\n        /* \"#utility.yul\":7226:7246   */\n      tag_159\n        /* \"#utility.yul\":7244:7245   */\n      dup4\n        /* \"#utility.yul\":7226:7246   */\n      tag_56\n      jump\t// in\n    tag_159:\n        /* \"#utility.yul\":7221:7246   */\n      swap3\n      pop\n        /* \"#utility.yul\":7265:7266   */\n      dup3\n        /* \"#utility.yul\":7255:7290   */\n      tag_160\n      jumpi\n        /* \"#utility.yul\":7270:7288   */\n      tag_161\n      tag_72\n      jump\t// in\n    tag_161:\n        /* \"#utility.yul\":7255:7290   */\n    tag_160:\n        /* \"#utility.yul\":7312:7313   */\n      dup3\n        /* \"#utility.yul\":7309:7310   */\n      dup3\n        /* \"#utility.yul\":7305:7314   */\n      div\n        /* \"#utility.yul\":7300:7314   */\n      swap1\n      pop\n        /* \"#utility.yul\":7135:7320   */\n      swap3\n      swap2\n      pop\n      pop\n      jump\t// out\n\n    auxdata: 0xa2646970667358221220333a86affd724bc2ef87c8d944e42795c1030beae52a88c74f181901f2473b6f64736f6c634300081a0033\n}\n",
				"bytecode": {
					"linkReferences": {},
					"object": "6080604052348015600e575f80fd5b506107b88061001c5f395ff3fe60806040526004361061003e575f3560e01c806335a48451146100425780636ce1417e1461007e578063b69ef8a814610088578063dc0d3dff146100b2575b5f80fd5b34801561004d575f80fd5b50610068600480360381019061006391906103c0565b6100ee565b6040516100759190610403565b60405180910390f35b610086610103565b005b348015610093575f80fd5b5061009c610258565b6040516100a99190610403565b60405180910390f35b3480156100bd575f80fd5b506100d860048036038101906100d39190610446565b61025d565b6040516100e59190610480565b60405180910390f35b6002602052805f5260405f205f915090505481565b345f8082825461011391906104c6565b92505081905550670de0b6b3a764000061012c34610298565b1161016c576040517f08c379a000000000000000000000000000000000000000000000000000000000815260040161016390610553565b60405180910390fd5b600133908060018154018082558091505060019003905f5260205f20015f9091909190916101000a81548173ffffffffffffffffffffffffffffffffffffffff021916908373ffffffffffffffffffffffffffffffffffffffff1602179055503460025f3373ffffffffffffffffffffffffffffffffffffffff1673ffffffffffffffffffffffffffffffffffffffff1681526020019081526020015f205461021591906104c6565b60025f3373ffffffffffffffffffffffffffffffffffffffff1673ffffffffffffffffffffffffffffffffffffffff1681526020019081526020015f2081905550565b5f5481565b6001818154811061026c575f80fd5b905f5260205f20015f915054906101000a900473ffffffffffffffffffffffffffffffffffffffff1681565b5f8073694aa1769357215de4fac081bf1f309adc32530673ffffffffffffffffffffffffffffffffffffffff1663feaf968c6040518163ffffffff1660e01b815260040160a060405180830381865afa1580156102f7573d5f803e3d5ffd5b505050506040513d601f19601f8201168201806040525081019061031b91906105f7565b5050509150505f6402540be40082610333919061066e565b90505f670de0b6b3a7640000828661034b91906106e4565b6103559190610752565b9050809350505050919050565b5f80fd5b5f73ffffffffffffffffffffffffffffffffffffffff82169050919050565b5f61038f82610366565b9050919050565b61039f81610385565b81146103a9575f80fd5b50565b5f813590506103ba81610396565b92915050565b5f602082840312156103d5576103d4610362565b5b5f6103e2848285016103ac565b91505092915050565b5f819050919050565b6103fd816103eb565b82525050565b5f6020820190506104165f8301846103f4565b92915050565b610425816103eb565b811461042f575f80fd5b50565b5f813590506104408161041c565b92915050565b5f6020828403121561045b5761045a610362565b5b5f61046884828501610432565b91505092915050565b61047a81610385565b82525050565b5f6020820190506104935f830184610471565b92915050565b7f4e487b71000000000000000000000000000000000000000000000000000000005f52601160045260245ffd5b5f6104d0826103eb565b91506104db836103eb565b92508282019050808211156104f3576104f2610499565b5b92915050565b5f82825260208201905092915050565b7f5061796d656e74206d757374206265203120646f6c6c617200000000000000005f82015250565b5f61053d6018836104f9565b915061054882610509565b602082019050919050565b5f6020820190508181035f83015261056a81610531565b9050919050565b5f69ffffffffffffffffffff82169050919050565b61058f81610571565b8114610599575f80fd5b50565b5f815190506105aa81610586565b92915050565b5f819050919050565b6105c2816105b0565b81146105cc575f80fd5b50565b5f815190506105dd816105b9565b92915050565b5f815190506105f18161041c565b92915050565b5f805f805f60a086880312156106105761060f610362565b5b5f61061d8882890161059c565b955050602061062e888289016105cf565b945050604061063f888289016105e3565b9350506060610650888289016105e3565b92505060806106618882890161059c565b9150509295509295909350565b5f610678826105b0565b9150610683836105b0565b9250828202610691816105b0565b91507f800000000000000000000000000000000000000000000000000000000000000084145f841216156106c8576106c7610499565b5b82820584148315176106dd576106dc610499565b5b5092915050565b5f6106ee826103eb565b91506106f9836103eb565b9250828202610707816103eb565b9150828204841483151761071e5761071d610499565b5b5092915050565b7f4e487b71000000000000000000000000000000000000000000000000000000005f52601260045260245ffd5b5f61075c826103eb565b9150610767836103eb565b92508261077757610776610725565b5b82820490509291505056fea2646970667358221220333a86affd724bc2ef87c8d944e42795c1030beae52a88c74f181901f2473b6f64736f6c634300081a0033",
					"opcodes": "PUSH1 0x80 PUSH1 0x40 MSTORE CALLVALUE DUP1 ISZERO PUSH1 0xE JUMPI PUSH0 DUP1 REVERT JUMPDEST POP PUSH2 0x7B8 DUP1 PUSH2 0x1C PUSH0 CODECOPY PUSH0 RETURN INVALID PUSH1 0x80 PUSH1 0x40 MSTORE PUSH1 0x4 CALLDATASIZE LT PUSH2 0x3E JUMPI PUSH0 CALLDATALOAD PUSH1 0xE0 SHR DUP1 PUSH4 0x35A48451 EQ PUSH2 0x42 JUMPI DUP1 PUSH4 0x6CE1417E EQ PUSH2 0x7E JUMPI DUP1 PUSH4 0xB69EF8A8 EQ PUSH2 0x88 JUMPI DUP1 PUSH4 0xDC0D3DFF EQ PUSH2 0xB2 JUMPI JUMPDEST PUSH0 DUP1 REVERT JUMPDEST CALLVALUE DUP1 ISZERO PUSH2 0x4D JUMPI PUSH0 DUP1 REVERT JUMPDEST POP PUSH2 0x68 PUSH1 0x4 DUP1 CALLDATASIZE SUB DUP2 ADD SWAP1 PUSH2 0x63 SWAP2 SWAP1 PUSH2 0x3C0 JUMP JUMPDEST PUSH2 0xEE JUMP JUMPDEST PUSH1 0x40 MLOAD PUSH2 0x75 SWAP2 SWAP1 PUSH2 0x403 JUMP JUMPDEST PUSH1 0x40 MLOAD DUP1 SWAP2 SUB SWAP1 RETURN JUMPDEST PUSH2 0x86 PUSH2 0x103 JUMP JUMPDEST STOP JUMPDEST CALLVALUE DUP1 ISZERO PUSH2 0x93 JUMPI PUSH0 DUP1 REVERT JUMPDEST POP PUSH2 0x9C PUSH2 0x258 JUMP JUMPDEST PUSH1 0x40 MLOAD PUSH2 0xA9 SWAP2 SWAP1 PUSH2 0x403 JUMP JUMPDEST PUSH1 0x40 MLOAD DUP1 SWAP2 SUB SWAP1 RETURN JUMPDEST CALLVALUE DUP1 ISZERO PUSH2 0xBD JUMPI PUSH0 DUP1 REVERT JUMPDEST POP PUSH2 0xD8 PUSH1 0x4 DUP1 CALLDATASIZE SUB DUP2 ADD SWAP1 PUSH2 0xD3 SWAP2 SWAP1 PUSH2 0x446 JUMP JUMPDEST PUSH2 0x25D JUMP JUMPDEST PUSH1 0x40 MLOAD PUSH2 0xE5 SWAP2 SWAP1 PUSH2 0x480 JUMP JUMPDEST PUSH1 0x40 MLOAD DUP1 SWAP2 SUB SWAP1 RETURN JUMPDEST PUSH1 0x2 PUSH1 0x20 MSTORE DUP1 PUSH0 MSTORE PUSH1 0x40 PUSH0 KECCAK256 PUSH0 SWAP2 POP SWAP1 POP SLOAD DUP2 JUMP JUMPDEST CALLVALUE PUSH0 DUP1 DUP3 DUP3 SLOAD PUSH2 0x113 SWAP2 SWAP1 PUSH2 0x4C6 JUMP JUMPDEST SWAP3 POP POP DUP2 SWAP1 SSTORE POP PUSH8 0xDE0B6B3A7640000 PUSH2 0x12C CALLVALUE PUSH2 0x298 JUMP JUMPDEST GT PUSH2 0x16C JUMPI PUSH1 0x40 MLOAD PUSH32 0x8C379A000000000000000000000000000000000000000000000000000000000 DUP2 MSTORE PUSH1 0x4 ADD PUSH2 0x163 SWAP1 PUSH2 0x553 JUMP JUMPDEST PUSH1 0x40 MLOAD DUP1 SWAP2 SUB SWAP1 REVERT JUMPDEST PUSH1 0x1 CALLER SWAP1 DUP1 PUSH1 0x1 DUP2 SLOAD ADD DUP1 DUP3 SSTORE DUP1 SWAP2 POP POP PUSH1 0x1 SWAP1 SUB SWAP1 PUSH0 MSTORE PUSH1 0x20 PUSH0 KECCAK256 ADD PUSH0 SWAP1 SWAP2 SWAP1 SWAP2 SWAP1 SWAP2 PUSH2 0x100 EXP DUP2 SLOAD DUP2 PUSH20 0xFFFFFFFFFFFFFFFFFFFFFFFFFFFFFFFFFFFFFFFF MUL NOT AND SWAP1 DUP4 PUSH20 0xFFFFFFFFFFFFFFFFFFFFFFFFFFFFFFFFFFFFFFFF AND MUL OR SWAP1 SSTORE POP CALLVALUE PUSH1 0x2 PUSH0 CALLER PUSH20 0xFFFFFFFFFFFFFFFFFFFFFFFFFFFFFFFFFFFFFFFF AND PUSH20 0xFFFFFFFFFFFFFFFFFFFFFFFFFFFFFFFFFFFFFFFF AND DUP2 MSTORE PUSH1 0x20 ADD SWAP1 DUP2 MSTORE PUSH1 0x20 ADD PUSH0 KECCAK256 SLOAD PUSH2 0x215 SWAP2 SWAP1 PUSH2 0x4C6 JUMP JUMPDEST PUSH1 0x2 PUSH0 CALLER PUSH20 0xFFFFFFFFFFFFFFFFFFFFFFFFFFFFFFFFFFFFFFFF AND PUSH20 0xFFFFFFFFFFFFFFFFFFFFFFFFFFFFFFFFFFFFFFFF AND DUP2 MSTORE PUSH1 0x20 ADD SWAP1 DUP2 MSTORE PUSH1 0x20 ADD PUSH0 KECCAK256 DUP2 SWAP1 SSTORE POP JUMP JUMPDEST PUSH0 SLOAD DUP2 JUMP JUMPDEST PUSH1 0x1 DUP2 DUP2 SLOAD DUP2 LT PUSH2 0x26C JUMPI PUSH0 DUP1 REVERT JUMPDEST SWAP1 PUSH0 MSTORE PUSH1 0x20 PUSH0 KECCAK256 ADD PUSH0 SWAP2 POP SLOAD SWAP1 PUSH2 0x100 EXP SWAP1 DIV PUSH20 0xFFFFFFFFFFFFFFFFFFFFFFFFFFFFFFFFFFFFFFFF AND DUP2 JUMP JUMPDEST PUSH0 DUP1 PUSH20 0x694AA1769357215DE4FAC081BF1F309ADC325306 PUSH20 0xFFFFFFFFFFFFFFFFFFFFFFFFFFFFFFFFFFFFFFFF AND PUSH4 0xFEAF968C PUSH1 0x40 MLOAD DUP2 PUSH4 0xFFFFFFFF AND PUSH1 0xE0 SHL DUP2 MSTORE PUSH1 0x4 ADD PUSH1 0xA0 PUSH1 0x40 MLOAD DUP1 DUP4 SUB DUP2 DUP7 GAS STATICCALL ISZERO DUP1 ISZERO PUSH2 0x2F7 JUMPI RETURNDATASIZE PUSH0 DUP1 RETURNDATACOPY RETURNDATASIZE PUSH0 REVERT JUMPDEST POP POP POP POP PUSH1 0x40 MLOAD RETURNDATASIZE PUSH1 0x1F NOT PUSH1 0x1F DUP3 ADD AND DUP3 ADD DUP1 PUSH1 0x40 MSTORE POP DUP2 ADD SWAP1 PUSH2 0x31B SWAP2 SWAP1 PUSH2 0x5F7 JUMP JUMPDEST POP POP POP SWAP2 POP POP PUSH0 PUSH5 0x2540BE400 DUP3 PUSH2 0x333 SWAP2 SWAP1 PUSH2 0x66E JUMP JUMPDEST SWAP1 POP PUSH0 PUSH8 0xDE0B6B3A7640000 DUP3 DUP7 PUSH2 0x34B SWAP2 SWAP1 PUSH2 0x6E4 JUMP JUMPDEST PUSH2 0x355 SWAP2 SWAP1 PUSH2 0x752 JUMP JUMPDEST SWAP1 POP DUP1 SWAP4 POP POP POP POP SWAP2 SWAP1 POP JUMP JUMPDEST PUSH0 DUP1 REVERT JUMPDEST PUSH0 PUSH20 0xFFFFFFFFFFFFFFFFFFFFFFFFFFFFFFFFFFFFFFFF DUP3 AND SWAP1 POP SWAP2 SWAP1 POP JUMP JUMPDEST PUSH0 PUSH2 0x38F DUP3 PUSH2 0x366 JUMP JUMPDEST SWAP1 POP SWAP2 SWAP1 POP JUMP JUMPDEST PUSH2 0x39F DUP2 PUSH2 0x385 JUMP JUMPDEST DUP2 EQ PUSH2 0x3A9 JUMPI PUSH0 DUP1 REVERT JUMPDEST POP JUMP JUMPDEST PUSH0 DUP2 CALLDATALOAD SWAP1 POP PUSH2 0x3BA DUP2 PUSH2 0x396 JUMP JUMPDEST SWAP3 SWAP2 POP POP JUMP JUMPDEST PUSH0 PUSH1 0x20 DUP3 DUP5 SUB SLT ISZERO PUSH2 0x3D5 JUMPI PUSH2 0x3D4 PUSH2 0x362 JUMP JUMPDEST JUMPDEST PUSH0 PUSH2 0x3E2 DUP5 DUP3 DUP6 ADD PUSH2 0x3AC JUMP JUMPDEST SWAP2 POP POP SWAP3 SWAP2 POP POP JUMP JUMPDEST PUSH0 DUP2 SWAP1 POP SWAP2 SWAP1 POP JUMP JUMPDEST PUSH2 0x3FD DUP2 PUSH2 0x3EB JUMP JUMPDEST DUP3 MSTORE POP POP JUMP JUMPDEST PUSH0 PUSH1 0x20 DUP3 ADD SWAP1 POP PUSH2 0x416 PUSH0 DUP4 ADD DUP5 PUSH2 0x3F4 JUMP JUMPDEST SWAP3 SWAP2 POP POP JUMP JUMPDEST PUSH2 0x425 DUP2 PUSH2 0x3EB JUMP JUMPDEST DUP2 EQ PUSH2 0x42F JUMPI PUSH0 DUP1 REVERT JUMPDEST POP JUMP JUMPDEST PUSH0 DUP2 CALLDATALOAD SWAP1 POP PUSH2 0x440 DUP2 PUSH2 0x41C JUMP JUMPDEST SWAP3 SWAP2 POP POP JUMP JUMPDEST PUSH0 PUSH1 0x20 DUP3 DUP5 SUB SLT ISZERO PUSH2 0x45B JUMPI PUSH2 0x45A PUSH2 0x362 JUMP JUMPDEST JUMPDEST PUSH0 PUSH2 0x468 DUP5 DUP3 DUP6 ADD PUSH2 0x432 JUMP JUMPDEST SWAP2 POP POP SWAP3 SWAP2 POP POP JUMP JUMPDEST PUSH2 0x47A DUP2 PUSH2 0x385 JUMP JUMPDEST DUP3 MSTORE POP POP JUMP JUMPDEST PUSH0 PUSH1 0x20 DUP3 ADD SWAP1 POP PUSH2 0x493 PUSH0 DUP4 ADD DUP5 PUSH2 0x471 JUMP JUMPDEST SWAP3 SWAP2 POP POP JUMP JUMPDEST PUSH32 0x4E487B7100000000000000000000000000000000000000000000000000000000 PUSH0 MSTORE PUSH1 0x11 PUSH1 0x4 MSTORE PUSH1 0x24 PUSH0 REVERT JUMPDEST PUSH0 PUSH2 0x4D0 DUP3 PUSH2 0x3EB JUMP JUMPDEST SWAP2 POP PUSH2 0x4DB DUP4 PUSH2 0x3EB JUMP JUMPDEST SWAP3 POP DUP3 DUP3 ADD SWAP1 POP DUP1 DUP3 GT ISZERO PUSH2 0x4F3 JUMPI PUSH2 0x4F2 PUSH2 0x499 JUMP JUMPDEST JUMPDEST SWAP3 SWAP2 POP POP JUMP JUMPDEST PUSH0 DUP3 DUP3 MSTORE PUSH1 0x20 DUP3 ADD SWAP1 POP SWAP3 SWAP2 POP POP JUMP JUMPDEST PUSH32 0x5061796D656E74206D757374206265203120646F6C6C61720000000000000000 PUSH0 DUP3 ADD MSTORE POP JUMP JUMPDEST PUSH0 PUSH2 0x53D PUSH1 0x18 DUP4 PUSH2 0x4F9 JUMP JUMPDEST SWAP2 POP PUSH2 0x548 DUP3 PUSH2 0x509 JUMP JUMPDEST PUSH1 0x20 DUP3 ADD SWAP1 POP SWAP2 SWAP1 POP JUMP JUMPDEST PUSH0 PUSH1 0x20 DUP3 ADD SWAP1 POP DUP2 DUP2 SUB PUSH0 DUP4 ADD MSTORE PUSH2 0x56A DUP2 PUSH2 0x531 JUMP JUMPDEST SWAP1 POP SWAP2 SWAP1 POP JUMP JUMPDEST PUSH0 PUSH10 0xFFFFFFFFFFFFFFFFFFFF DUP3 AND SWAP1 POP SWAP2 SWAP1 POP JUMP JUMPDEST PUSH2 0x58F DUP2 PUSH2 0x571 JUMP JUMPDEST DUP2 EQ PUSH2 0x599 JUMPI PUSH0 DUP1 REVERT JUMPDEST POP JUMP JUMPDEST PUSH0 DUP2 MLOAD SWAP1 POP PUSH2 0x5AA DUP2 PUSH2 0x586 JUMP JUMPDEST SWAP3 SWAP2 POP POP JUMP JUMPDEST PUSH0 DUP2 SWAP1 POP SWAP2 SWAP1 POP JUMP JUMPDEST PUSH2 0x5C2 DUP2 PUSH2 0x5B0 JUMP JUMPDEST DUP2 EQ PUSH2 0x5CC JUMPI PUSH0 DUP1 REVERT JUMPDEST POP JUMP JUMPDEST PUSH0 DUP2 MLOAD SWAP1 POP PUSH2 0x5DD DUP2 PUSH2 0x5B9 JUMP JUMPDEST SWAP3 SWAP2 POP POP JUMP JUMPDEST PUSH0 DUP2 MLOAD SWAP1 POP PUSH2 0x5F1 DUP2 PUSH2 0x41C JUMP JUMPDEST SWAP3 SWAP2 POP POP JUMP JUMPDEST PUSH0 DUP1 PUSH0 DUP1 PUSH0 PUSH1 0xA0 DUP7 DUP9 SUB SLT ISZERO PUSH2 0x610 JUMPI PUSH2 0x60F PUSH2 0x362 JUMP JUMPDEST JUMPDEST PUSH0 PUSH2 0x61D DUP9 DUP3 DUP10 ADD PUSH2 0x59C JUMP JUMPDEST SWAP6 POP POP PUSH1 0x20 PUSH2 0x62E DUP9 DUP3 DUP10 ADD PUSH2 0x5CF JUMP JUMPDEST SWAP5 POP POP PUSH1 0x40 PUSH2 0x63F DUP9 DUP3 DUP10 ADD PUSH2 0x5E3 JUMP JUMPDEST SWAP4 POP POP PUSH1 0x60 PUSH2 0x650 DUP9 DUP3 DUP10 ADD PUSH2 0x5E3 JUMP JUMPDEST SWAP3 POP POP PUSH1 0x80 PUSH2 0x661 DUP9 DUP3 DUP10 ADD PUSH2 0x59C JUMP JUMPDEST SWAP2 POP POP SWAP3 SWAP6 POP SWAP3 SWAP6 SWAP1 SWAP4 POP JUMP JUMPDEST PUSH0 PUSH2 0x678 DUP3 PUSH2 0x5B0 JUMP JUMPDEST SWAP2 POP PUSH2 0x683 DUP4 PUSH2 0x5B0 JUMP JUMPDEST SWAP3 POP DUP3 DUP3 MUL PUSH2 0x691 DUP2 PUSH2 0x5B0 JUMP JUMPDEST SWAP2 POP PUSH32 0x8000000000000000000000000000000000000000000000000000000000000000 DUP5 EQ PUSH0 DUP5 SLT AND ISZERO PUSH2 0x6C8 JUMPI PUSH2 0x6C7 PUSH2 0x499 JUMP JUMPDEST JUMPDEST DUP3 DUP3 SDIV DUP5 EQ DUP4 ISZERO OR PUSH2 0x6DD JUMPI PUSH2 0x6DC PUSH2 0x499 JUMP JUMPDEST JUMPDEST POP SWAP3 SWAP2 POP POP JUMP JUMPDEST PUSH0 PUSH2 0x6EE DUP3 PUSH2 0x3EB JUMP JUMPDEST SWAP2 POP PUSH2 0x6F9 DUP4 PUSH2 0x3EB JUMP JUMPDEST SWAP3 POP DUP3 DUP3 MUL PUSH2 0x707 DUP2 PUSH2 0x3EB JUMP JUMPDEST SWAP2 POP DUP3 DUP3 DIV DUP5 EQ DUP4 ISZERO OR PUSH2 0x71E JUMPI PUSH2 0x71D PUSH2 0x499 JUMP JUMPDEST JUMPDEST POP SWAP3 SWAP2 POP POP JUMP JUMPDEST PUSH32 0x4E487B7100000000000000000000000000000000000000000000000000000000 PUSH0 MSTORE PUSH1 0x12 PUSH1 0x4 MSTORE PUSH1 0x24 PUSH0 REVERT JUMPDEST PUSH0 PUSH2 0x75C DUP3 PUSH2 0x3EB JUMP JUMPDEST SWAP2 POP PUSH2 0x767 DUP4 PUSH2 0x3EB JUMP JUMPDEST SWAP3 POP DUP3 PUSH2 0x777 JUMPI PUSH2 0x776 PUSH2 0x725 JUMP JUMPDEST JUMPDEST DUP3 DUP3 DIV SWAP1 POP SWAP3 SWAP2 POP POP JUMP INVALID LOG2 PUSH5 0x6970667358 0x22 SLT KECCAK256 CALLER GASPRICE DUP7 0xAF REVERT PUSH19 0x4BC2EF87C8D944E42795C1030BEAE52A88C74F XOR NOT ADD CALLCODE SELFBALANCE EXTCODESIZE PUSH16 0x64736F6C634300081A00330000000000 "
				},
				"gasEstimates": {
					"creation": {
						"codeDepositCost": "395200",
						"executionCost": "428",
						"totalCost": "395628"
					},
					"external": {
						"Fund()": "infinite",
						"balance()": "2446",
						"funders(uint256)": "4988",
						"fundersWithTotalAmount(address)": "2780"
					}
				},
				"methodIdentifiers": {
					"Fund()": "6ce1417e",
					"balance()": "b69ef8a8",
					"funders(uint256)": "dc0d3dff",
					"fundersWithTotalAmount(address)": "35a48451"
				}
			},
			"storageLayout": {
				"storage": [
					{
						"astId": 54,
						"contract": "Contracts/pay_contract.sol:PayContract",
						"label": "balance",
						"offset": 0,
						"slot": "0",
						"type": "t_uint256"
					},
					{
						"astId": 57,
						"contract": "Contracts/pay_contract.sol:PayContract",
						"label": "funders",
						"offset": 0,
						"slot": "1",
						"type": "t_array(t_address)dyn_storage"
					},
					{
						"astId": 61,
						"contract": "Contracts/pay_contract.sol:PayContract",
						"label": "fundersWithTotalAmount",
						"offset": 0,
						"slot": "2",
						"type": "t_mapping(t_address,t_uint256)"
					}
				],
				"types": {
					"t_address": {
						"encoding": "inplace",
						"label": "address",
						"numberOfBytes": "20"
					},
					"t_array(t_address)dyn_storage": {
						"base": "t_address",
						"encoding": "dynamic_array",
						"label": "address[]",
						"numberOfBytes": "32"
					},
					"t_mapping(t_address,t_uint256)": {
						"encoding": "mapping",
						"key": "t_address",
						"label": "mapping(address => uint256)",
						"numberOfBytes": "32",
						"value": "t_uint256"
					},
					"t_uint256": {
						"encoding": "inplace",
						"label": "uint256",
						"numberOfBytes": "32"
					}
				}
			},
			"userdoc": {
				"kind": "user",
				"methods": {},
				"version": 1
			}
		}
	}
}