{
	"Contracts/pay_contract.sol": {
		"PayContract": {
			"abi": [
				{
					"inputs": [],
					"name": "Fund",
					"outputs": [],
					"stateMutability": "payable",
					"type": "function"
				},
				{
					"inputs": [],
					"name": "balance",
					"outputs": [
						{
							"internalType": "uint256",
							"name": "",
							"type": "uint256"
						}
					],
					"stateMutability": "view",
					"type": "function"
				},
				{
					"inputs": [],
					"name": "getPriceOfEth",
					"outputs": [
						{
							"internalType": "uint256",
							"name": "price",
							"type": "uint256"
						}
					],
					"stateMutability": "view",
					"type": "function"
				}
			],
			"devdoc": {
				"kind": "dev",
				"methods": {},
				"version": 1
			},
			"evm": {
				"assembly": "    /* \"Contracts/pay_contract.sol\":672:1123  contract PayContract {... */\n  mstore(0x40, 0x80)\n    /* \"Contracts/pay_contract.sol\":787:829  0x694AA1769357215DE4FAC081bf1f309aDC325306 */\n  0x694aa1769357215de4fac081bf1f309adc325306\n    /* \"Contracts/pay_contract.sol\":730:830  AggregatorV3Interface aggregator = AggregatorV3Interface(0x694AA1769357215DE4FAC081bf1f309aDC325306) */\n  0x01\n  exp(0x0100, 0x00)\n  dup2\n  sload\n  dup2\n  0xffffffffffffffffffffffffffffffffffffffff\n  mul\n  not\n  and\n  swap1\n  dup4\n  0xffffffffffffffffffffffffffffffffffffffff\n  and\n  mul\n  or\n  swap1\n  sstore\n  pop\n    /* \"Contracts/pay_contract.sol\":672:1123  contract PayContract {... */\n  callvalue\n  dup1\n  iszero\n  tag_1\n  jumpi\n  0x00\n  dup1\n  revert\ntag_1:\n  pop\n  dataSize(sub_0)\n  dup1\n  dataOffset(sub_0)\n  0x00\n  codecopy\n  0x00\n  return\nstop\n\nsub_0: assembly {\n        /* \"Contracts/pay_contract.sol\":672:1123  contract PayContract {... */\n      mstore(0x40, 0x80)\n      jumpi(tag_1, lt(calldatasize, 0x04))\n      shr(0xe0, calldataload(0x00))\n      dup1\n      0x5bbe8ef1\n      eq\n      tag_2\n      jumpi\n      dup1\n      0x6ce1417e\n      eq\n      tag_3\n      jumpi\n      dup1\n      0xb69ef8a8\n      eq\n      tag_4\n      jumpi\n    tag_1:\n      0x00\n      dup1\n      revert\n        /* \"Contracts/pay_contract.sol\":843:943  function getPriceOfEth() public view returns (uint256 price)  {... */\n    tag_2:\n      callvalue\n      dup1\n      iszero\n      tag_5\n      jumpi\n      0x00\n      dup1\n      revert\n    tag_5:\n      pop\n      tag_6\n      tag_7\n      jump\t// in\n    tag_6:\n      mload(0x40)\n      tag_8\n      swap2\n      swap1\n      tag_9\n      jump\t// in\n    tag_8:\n      mload(0x40)\n      dup1\n      swap2\n      sub\n      swap1\n      return\n        /* \"Contracts/pay_contract.sol\":957:1116  function Fund () public payable  {... */\n    tag_3:\n      tag_10\n      tag_11\n      jump\t// in\n    tag_10:\n      stop\n        /* \"Contracts/pay_contract.sol\":705:727  uint256 public balance */\n    tag_4:\n      callvalue\n      dup1\n      iszero\n      tag_12\n      jumpi\n      0x00\n      dup1\n      revert\n    tag_12:\n      pop\n      tag_13\n      tag_14\n      jump\t// in\n    tag_13:\n      mload(0x40)\n      tag_15\n      swap2\n      swap1\n      tag_9\n      jump\t// in\n    tag_15:\n      mload(0x40)\n      dup1\n      swap2\n      sub\n      swap1\n      return\n        /* \"Contracts/pay_contract.sol\":843:943  function getPriceOfEth() public view returns (uint256 price)  {... */\n    tag_7:\n        /* \"Contracts/pay_contract.sol\":889:902  uint256 price */\n      0x00\n        /* \"Contracts/pay_contract.sol\":917:927  aggregator */\n      0x01\n      0x00\n      swap1\n      sload\n      swap1\n      0x0100\n      exp\n      swap1\n      div\n      0xffffffffffffffffffffffffffffffffffffffff\n      and\n        /* \"Contracts/pay_contract.sol\":917:935  aggregator.version */\n      0xffffffffffffffffffffffffffffffffffffffff\n      and\n      0x54fd4d50\n        /* \"Contracts/pay_contract.sol\":917:937  aggregator.version() */\n      mload(0x40)\n      dup2\n      0xffffffff\n      and\n      0xe0\n      shl\n      dup2\n      mstore\n      0x04\n      add\n      0x20\n      mload(0x40)\n      dup1\n      dup4\n      sub\n      dup2\n      dup7\n      gas\n      staticcall\n      iszero\n      dup1\n      iszero\n      tag_18\n      jumpi\n      returndatasize\n      0x00\n      dup1\n      returndatacopy\n      revert(0x00, returndatasize)\n    tag_18:\n      pop\n      pop\n      pop\n      pop\n      mload(0x40)\n      returndatasize\n      not(0x1f)\n      0x1f\n      dup3\n      add\n      and\n      dup3\n      add\n      dup1\n      0x40\n      mstore\n      pop\n      dup2\n      add\n      swap1\n      tag_19\n      swap2\n      swap1\n      tag_20\n      jump\t// in\n    tag_19:\n        /* \"Contracts/pay_contract.sol\":910:937  return aggregator.version() */\n      swap1\n      pop\n        /* \"Contracts/pay_contract.sol\":843:943  function getPriceOfEth() public view returns (uint256 price)  {... */\n      swap1\n      jump\t// out\n        /* \"Contracts/pay_contract.sol\":957:1116  function Fund () public payable  {... */\n    tag_11:\n        /* \"Contracts/pay_contract.sol\":1028:1037  msg.value */\n      callvalue\n        /* \"Contracts/pay_contract.sol\":1017:1024  balance */\n      0x00\n      dup1\n        /* \"Contracts/pay_contract.sol\":1017:1037  balance += msg.value */\n      dup3\n      dup3\n      sload\n      tag_22\n      swap2\n      swap1\n      tag_23\n      jump\t// in\n    tag_22:\n      swap3\n      pop\n      pop\n      dup2\n      swap1\n      sstore\n      pop\n        /* \"Contracts/pay_contract.sol\":1070:1077  10 gwei */\n      0x02540be400\n        /* \"Contracts/pay_contract.sol\":1058:1067  msg.value */\n      callvalue\n        /* \"Contracts/pay_contract.sol\":1058:1077  msg.value > 10 gwei */\n      gt\n        /* \"Contracts/pay_contract.sol\":1050:1106  require(msg.value > 10 gwei, \"Payment must be 10 euros\") */\n      tag_24\n      jumpi\n      mload(0x40)\n      0x08c379a000000000000000000000000000000000000000000000000000000000\n      dup2\n      mstore\n      0x04\n      add\n      tag_25\n      swap1\n      tag_26\n      jump\t// in\n    tag_25:\n      mload(0x40)\n      dup1\n      swap2\n      sub\n      swap1\n      revert\n    tag_24:\n        /* \"Contracts/pay_contract.sol\":957:1116  function Fund () public payable  {... */\n      jump\t// out\n        /* \"Contracts/pay_contract.sol\":705:727  uint256 public balance */\n    tag_14:\n      sload(0x00)\n      dup2\n      jump\t// out\n        /* \"#utility.yul\":7:84   */\n    tag_27:\n        /* \"#utility.yul\":44:51   */\n      0x00\n        /* \"#utility.yul\":73:78   */\n      dup2\n        /* \"#utility.yul\":62:78   */\n      swap1\n      pop\n        /* \"#utility.yul\":7:84   */\n      swap2\n      swap1\n      pop\n      jump\t// out\n        /* \"#utility.yul\":90:208   */\n    tag_28:\n        /* \"#utility.yul\":177:201   */\n      tag_41\n        /* \"#utility.yul\":195:200   */\n      dup2\n        /* \"#utility.yul\":177:201   */\n      tag_27\n      jump\t// in\n    tag_41:\n        /* \"#utility.yul\":172:175   */\n      dup3\n        /* \"#utility.yul\":165:202   */\n      mstore\n        /* \"#utility.yul\":90:208   */\n      pop\n      pop\n      jump\t// out\n        /* \"#utility.yul\":214:436   */\n    tag_9:\n        /* \"#utility.yul\":307:311   */\n      0x00\n        /* \"#utility.yul\":345:347   */\n      0x20\n        /* \"#utility.yul\":334:343   */\n      dup3\n        /* \"#utility.yul\":330:348   */\n      add\n        /* \"#utility.yul\":322:348   */\n      swap1\n      pop\n        /* \"#utility.yul\":358:429   */\n      tag_43\n        /* \"#utility.yul\":426:427   */\n      0x00\n        /* \"#utility.yul\":415:424   */\n      dup4\n        /* \"#utility.yul\":411:428   */\n      add\n        /* \"#utility.yul\":402:408   */\n      dup5\n        /* \"#utility.yul\":358:429   */\n      tag_28\n      jump\t// in\n    tag_43:\n        /* \"#utility.yul\":214:436   */\n      swap3\n      swap2\n      pop\n      pop\n      jump\t// out\n        /* \"#utility.yul\":523:640   */\n    tag_30:\n        /* \"#utility.yul\":632:633   */\n      0x00\n        /* \"#utility.yul\":629:630   */\n      dup1\n        /* \"#utility.yul\":622:634   */\n      revert\n        /* \"#utility.yul\":769:891   */\n    tag_32:\n        /* \"#utility.yul\":842:866   */\n      tag_48\n        /* \"#utility.yul\":860:865   */\n      dup2\n        /* \"#utility.yul\":842:866   */\n      tag_27\n      jump\t// in\n    tag_48:\n        /* \"#utility.yul\":835:840   */\n      dup2\n        /* \"#utility.yul\":832:867   */\n      eq\n        /* \"#utility.yul\":822:885   */\n      tag_49\n      jumpi\n        /* \"#utility.yul\":881:882   */\n      0x00\n        /* \"#utility.yul\":878:879   */\n      dup1\n        /* \"#utility.yul\":871:883   */\n      revert\n        /* \"#utility.yul\":822:885   */\n    tag_49:\n        /* \"#utility.yul\":769:891   */\n      pop\n      jump\t// out\n        /* \"#utility.yul\":897:1040   */\n    tag_33:\n        /* \"#utility.yul\":954:959   */\n      0x00\n        /* \"#utility.yul\":985:991   */\n      dup2\n        /* \"#utility.yul\":979:992   */\n      mload\n        /* \"#utility.yul\":970:992   */\n      swap1\n      pop\n        /* \"#utility.yul\":1001:1034   */\n      tag_51\n        /* \"#utility.yul\":1028:1033   */\n      dup2\n        /* \"#utility.yul\":1001:1034   */\n      tag_32\n      jump\t// in\n    tag_51:\n        /* \"#utility.yul\":897:1040   */\n      swap3\n      swap2\n      pop\n      pop\n      jump\t// out\n        /* \"#utility.yul\":1046:1397   */\n    tag_20:\n        /* \"#utility.yul\":1116:1122   */\n      0x00\n        /* \"#utility.yul\":1165:1167   */\n      0x20\n        /* \"#utility.yul\":1153:1162   */\n      dup3\n        /* \"#utility.yul\":1144:1151   */\n      dup5\n        /* \"#utility.yul\":1140:1163   */\n      sub\n        /* \"#utility.yul\":1136:1168   */\n      slt\n        /* \"#utility.yul\":1133:1252   */\n      iszero\n      tag_53\n      jumpi\n        /* \"#utility.yul\":1171:1250   */\n      tag_54\n      tag_30\n      jump\t// in\n    tag_54:\n        /* \"#utility.yul\":1133:1252   */\n    tag_53:\n        /* \"#utility.yul\":1291:1292   */\n      0x00\n        /* \"#utility.yul\":1316:1380   */\n      tag_55\n        /* \"#utility.yul\":1372:1379   */\n      dup5\n        /* \"#utility.yul\":1363:1369   */\n      dup3\n        /* \"#utility.yul\":1352:1361   */\n      dup6\n        /* \"#utility.yul\":1348:1370   */\n      add\n        /* \"#utility.yul\":1316:1380   */\n      tag_33\n      jump\t// in\n    tag_55:\n        /* \"#utility.yul\":1306:1380   */\n      swap2\n      pop\n        /* \"#utility.yul\":1262:1390   */\n      pop\n        /* \"#utility.yul\":1046:1397   */\n      swap3\n      swap2\n      pop\n      pop\n      jump\t// out\n        /* \"#utility.yul\":1403:1583   */\n    tag_34:\n        /* \"#utility.yul\":1451:1528   */\n      0x4e487b7100000000000000000000000000000000000000000000000000000000\n        /* \"#utility.yul\":1448:1449   */\n      0x00\n        /* \"#utility.yul\":1441:1529   */\n      mstore\n        /* \"#utility.yul\":1548:1552   */\n      0x11\n        /* \"#utility.yul\":1545:1546   */\n      0x04\n        /* \"#utility.yul\":1538:1553   */\n      mstore\n        /* \"#utility.yul\":1572:1576   */\n      0x24\n        /* \"#utility.yul\":1569:1570   */\n      0x00\n        /* \"#utility.yul\":1562:1577   */\n      revert\n        /* \"#utility.yul\":1589:1780   */\n    tag_23:\n        /* \"#utility.yul\":1629:1632   */\n      0x00\n        /* \"#utility.yul\":1648:1668   */\n      tag_58\n        /* \"#utility.yul\":1666:1667   */\n      dup3\n        /* \"#utility.yul\":1648:1668   */\n      tag_27\n      jump\t// in\n    tag_58:\n        /* \"#utility.yul\":1643:1668   */\n      swap2\n      pop\n        /* \"#utility.yul\":1682:1702   */\n      tag_59\n        /* \"#utility.yul\":1700:1701   */\n      dup4\n        /* \"#utility.yul\":1682:1702   */\n      tag_27\n      jump\t// in\n    tag_59:\n        /* \"#utility.yul\":1677:1702   */\n      swap3\n      pop\n        /* \"#utility.yul\":1725:1726   */\n      dup3\n        /* \"#utility.yul\":1722:1723   */\n      dup3\n        /* \"#utility.yul\":1718:1727   */\n      add\n        /* \"#utility.yul\":1711:1727   */\n      swap1\n      pop\n        /* \"#utility.yul\":1746:1749   */\n      dup1\n        /* \"#utility.yul\":1743:1744   */\n      dup3\n        /* \"#utility.yul\":1740:1750   */\n      gt\n        /* \"#utility.yul\":1737:1773   */\n      iszero\n      tag_60\n      jumpi\n        /* \"#utility.yul\":1753:1771   */\n      tag_61\n      tag_34\n      jump\t// in\n    tag_61:\n        /* \"#utility.yul\":1737:1773   */\n    tag_60:\n        /* \"#utility.yul\":1589:1780   */\n      swap3\n      swap2\n      pop\n      pop\n      jump\t// out\n        /* \"#utility.yul\":1786:1955   */\n    tag_35:\n        /* \"#utility.yul\":1870:1881   */\n      0x00\n        /* \"#utility.yul\":1904:1910   */\n      dup3\n        /* \"#utility.yul\":1899:1902   */\n      dup3\n        /* \"#utility.yul\":1892:1911   */\n      mstore\n        /* \"#utility.yul\":1944:1948   */\n      0x20\n        /* \"#utility.yul\":1939:1942   */\n      dup3\n        /* \"#utility.yul\":1935:1949   */\n      add\n        /* \"#utility.yul\":1920:1949   */\n      swap1\n      pop\n        /* \"#utility.yul\":1786:1955   */\n      swap3\n      swap2\n      pop\n      pop\n      jump\t// out\n        /* \"#utility.yul\":1961:2135   */\n    tag_36:\n        /* \"#utility.yul\":2101:2127   */\n      0x5061796d656e74206d757374206265203130206575726f730000000000000000\n        /* \"#utility.yul\":2097:2098   */\n      0x00\n        /* \"#utility.yul\":2089:2095   */\n      dup3\n        /* \"#utility.yul\":2085:2099   */\n      add\n        /* \"#utility.yul\":2078:2128   */\n      mstore\n        /* \"#utility.yul\":1961:2135   */\n      pop\n      jump\t// out\n        /* \"#utility.yul\":2141:2507   */\n    tag_37:\n        /* \"#utility.yul\":2283:2286   */\n      0x00\n        /* \"#utility.yul\":2304:2371   */\n      tag_65\n        /* \"#utility.yul\":2368:2370   */\n      0x18\n        /* \"#utility.yul\":2363:2366   */\n      dup4\n        /* \"#utility.yul\":2304:2371   */\n      tag_35\n      jump\t// in\n    tag_65:\n        /* \"#utility.yul\":2297:2371   */\n      swap2\n      pop\n        /* \"#utility.yul\":2380:2473   */\n      tag_66\n        /* \"#utility.yul\":2469:2472   */\n      dup3\n        /* \"#utility.yul\":2380:2473   */\n      tag_36\n      jump\t// in\n    tag_66:\n        /* \"#utility.yul\":2498:2500   */\n      0x20\n        /* \"#utility.yul\":2493:2496   */\n      dup3\n        /* \"#utility.yul\":2489:2501   */\n      add\n        /* \"#utility.yul\":2482:2501   */\n      swap1\n      pop\n        /* \"#utility.yul\":2141:2507   */\n      swap2\n      swap1\n      pop\n      jump\t// out\n        /* \"#utility.yul\":2513:2932   */\n    tag_26:\n        /* \"#utility.yul\":2679:2683   */\n      0x00\n        /* \"#utility.yul\":2717:2719   */\n      0x20\n        /* \"#utility.yul\":2706:2715   */\n      dup3\n        /* \"#utility.yul\":2702:2720   */\n      add\n        /* \"#utility.yul\":2694:2720   */\n      swap1\n      pop\n        /* \"#utility.yul\":2766:2775   */\n      dup2\n        /* \"#utility.yul\":2760:2764   */\n      dup2\n        /* \"#utility.yul\":2756:2776   */\n      sub\n        /* \"#utility.yul\":2752:2753   */\n      0x00\n        /* \"#utility.yul\":2741:2750   */\n      dup4\n        /* \"#utility.yul\":2737:2754   */\n      add\n        /* \"#utility.yul\":2730:2777   */\n      mstore\n        /* \"#utility.yul\":2794:2925   */\n      tag_68\n        /* \"#utility.yul\":2920:2924   */\n      dup2\n        /* \"#utility.yul\":2794:2925   */\n      tag_37\n      jump\t// in\n    tag_68:\n        /* \"#utility.yul\":2786:2925   */\n      swap1\n      pop\n        /* \"#utility.yul\":2513:2932   */\n      swap2\n      swap1\n      pop\n      jump\t// out\n\n    auxdata: 0xa26469706673582212203d5f33df002daf6a39a410b0607dae2172006a6c142ea46d7c8231b98d82275a64736f6c634300081a0033\n}\n",
				"bytecode": {
					"linkReferences": {},
					"object": "608060405273694aa1769357215de4fac081bf1f309adc32530660015f6101000a81548173ffffffffffffffffffffffffffffffffffffffff021916908373ffffffffffffffffffffffffffffffffffffffff1602179055503480156062575f80fd5b50610326806100705f395ff3fe608060405260043610610033575f3560e01c80635bbe8ef1146100375780636ce1417e14610061578063b69ef8a81461006b575b5f80fd5b348015610042575f80fd5b5061004b610095565b60405161005891906101a6565b60405180910390f35b610069610129565b005b348015610076575f80fd5b5061007f610189565b60405161008c91906101a6565b60405180910390f35b5f60015f9054906101000a900473ffffffffffffffffffffffffffffffffffffffff1673ffffffffffffffffffffffffffffffffffffffff166354fd4d506040518163ffffffff1660e01b8152600401602060405180830381865afa158015610100573d5f803e3d5ffd5b505050506040513d601f19601f8201168201806040525081019061012491906101ed565b905090565b345f808282546101399190610245565b925050819055506402540be4003411610187576040517f08c379a000000000000000000000000000000000000000000000000000000000815260040161017e906102d2565b60405180910390fd5b565b5f5481565b5f819050919050565b6101a08161018e565b82525050565b5f6020820190506101b95f830184610197565b92915050565b5f80fd5b6101cc8161018e565b81146101d6575f80fd5b50565b5f815190506101e7816101c3565b92915050565b5f60208284031215610202576102016101bf565b5b5f61020f848285016101d9565b91505092915050565b7f4e487b71000000000000000000000000000000000000000000000000000000005f52601160045260245ffd5b5f61024f8261018e565b915061025a8361018e565b925082820190508082111561027257610271610218565b5b92915050565b5f82825260208201905092915050565b7f5061796d656e74206d757374206265203130206575726f7300000000000000005f82015250565b5f6102bc601883610278565b91506102c782610288565b602082019050919050565b5f6020820190508181035f8301526102e9816102b0565b905091905056fea26469706673582212203d5f33df002daf6a39a410b0607dae2172006a6c142ea46d7c8231b98d82275a64736f6c634300081a0033",
					"opcodes": "PUSH1 0x80 PUSH1 0x40 MSTORE PUSH20 0x694AA1769357215DE4FAC081BF1F309ADC325306 PUSH1 0x1 PUSH0 PUSH2 0x100 EXP DUP2 SLOAD DUP2 PUSH20 0xFFFFFFFFFFFFFFFFFFFFFFFFFFFFFFFFFFFFFFFF MUL NOT AND SWAP1 DUP4 PUSH20 0xFFFFFFFFFFFFFFFFFFFFFFFFFFFFFFFFFFFFFFFF AND MUL OR SWAP1 SSTORE POP CALLVALUE DUP1 ISZERO PUSH1 0x62 JUMPI PUSH0 DUP1 REVERT JUMPDEST POP PUSH2 0x326 DUP1 PUSH2 0x70 PUSH0 CODECOPY PUSH0 RETURN INVALID PUSH1 0x80 PUSH1 0x40 MSTORE PUSH1 0x4 CALLDATASIZE LT PUSH2 0x33 JUMPI PUSH0 CALLDATALOAD PUSH1 0xE0 SHR DUP1 PUSH4 0x5BBE8EF1 EQ PUSH2 0x37 JUMPI DUP1 PUSH4 0x6CE1417E EQ PUSH2 0x61 JUMPI DUP1 PUSH4 0xB69EF8A8 EQ PUSH2 0x6B JUMPI JUMPDEST PUSH0 DUP1 REVERT JUMPDEST CALLVALUE DUP1 ISZERO PUSH2 0x42 JUMPI PUSH0 DUP1 REVERT JUMPDEST POP PUSH2 0x4B PUSH2 0x95 JUMP JUMPDEST PUSH1 0x40 MLOAD PUSH2 0x58 SWAP2 SWAP1 PUSH2 0x1A6 JUMP JUMPDEST PUSH1 0x40 MLOAD DUP1 SWAP2 SUB SWAP1 RETURN JUMPDEST PUSH2 0x69 PUSH2 0x129 JUMP JUMPDEST STOP JUMPDEST CALLVALUE DUP1 ISZERO PUSH2 0x76 JUMPI PUSH0 DUP1 REVERT JUMPDEST POP PUSH2 0x7F PUSH2 0x189 JUMP JUMPDEST PUSH1 0x40 MLOAD PUSH2 0x8C SWAP2 SWAP1 PUSH2 0x1A6 JUMP JUMPDEST PUSH1 0x40 MLOAD DUP1 SWAP2 SUB SWAP1 RETURN JUMPDEST PUSH0 PUSH1 0x1 PUSH0 SWAP1 SLOAD SWAP1 PUSH2 0x100 EXP SWAP1 DIV PUSH20 0xFFFFFFFFFFFFFFFFFFFFFFFFFFFFFFFFFFFFFFFF AND PUSH20 0xFFFFFFFFFFFFFFFFFFFFFFFFFFFFFFFFFFFFFFFF AND PUSH4 0x54FD4D50 PUSH1 0x40 MLOAD DUP2 PUSH4 0xFFFFFFFF AND PUSH1 0xE0 SHL DUP2 MSTORE PUSH1 0x4 ADD PUSH1 0x20 PUSH1 0x40 MLOAD DUP1 DUP4 SUB DUP2 DUP7 GAS STATICCALL ISZERO DUP1 ISZERO PUSH2 0x100 JUMPI RETURNDATASIZE PUSH0 DUP1 RETURNDATACOPY RETURNDATASIZE PUSH0 REVERT JUMPDEST POP POP POP POP PUSH1 0x40 MLOAD RETURNDATASIZE PUSH1 0x1F NOT PUSH1 0x1F DUP3 ADD AND DUP3 ADD DUP1 PUSH1 0x40 MSTORE POP DUP2 ADD SWAP1 PUSH2 0x124 SWAP2 SWAP1 PUSH2 0x1ED JUMP JUMPDEST SWAP1 POP SWAP1 JUMP JUMPDEST CALLVALUE PUSH0 DUP1 DUP3 DUP3 SLOAD PUSH2 0x139 SWAP2 SWAP1 PUSH2 0x245 JUMP JUMPDEST SWAP3 POP POP DUP2 SWAP1 SSTORE POP PUSH5 0x2540BE400 CALLVALUE GT PUSH2 0x187 JUMPI PUSH1 0x40 MLOAD PUSH32 0x8C379A000000000000000000000000000000000000000000000000000000000 DUP2 MSTORE PUSH1 0x4 ADD PUSH2 0x17E SWAP1 PUSH2 0x2D2 JUMP JUMPDEST PUSH1 0x40 MLOAD DUP1 SWAP2 SUB SWAP1 REVERT JUMPDEST JUMP JUMPDEST PUSH0 SLOAD DUP2 JUMP JUMPDEST PUSH0 DUP2 SWAP1 POP SWAP2 SWAP1 POP JUMP JUMPDEST PUSH2 0x1A0 DUP2 PUSH2 0x18E JUMP JUMPDEST DUP3 MSTORE POP POP JUMP JUMPDEST PUSH0 PUSH1 0x20 DUP3 ADD SWAP1 POP PUSH2 0x1B9 PUSH0 DUP4 ADD DUP5 PUSH2 0x197 JUMP JUMPDEST SWAP3 SWAP2 POP POP JUMP JUMPDEST PUSH0 DUP1 REVERT JUMPDEST PUSH2 0x1CC DUP2 PUSH2 0x18E JUMP JUMPDEST DUP2 EQ PUSH2 0x1D6 JUMPI PUSH0 DUP1 REVERT JUMPDEST POP JUMP JUMPDEST PUSH0 DUP2 MLOAD SWAP1 POP PUSH2 0x1E7 DUP2 PUSH2 0x1C3 JUMP JUMPDEST SWAP3 SWAP2 POP POP JUMP JUMPDEST PUSH0 PUSH1 0x20 DUP3 DUP5 SUB SLT ISZERO PUSH2 0x202 JUMPI PUSH2 0x201 PUSH2 0x1BF JUMP JUMPDEST JUMPDEST PUSH0 PUSH2 0x20F DUP5 DUP3 DUP6 ADD PUSH2 0x1D9 JUMP JUMPDEST SWAP2 POP POP SWAP3 SWAP2 POP POP JUMP JUMPDEST PUSH32 0x4E487B7100000000000000000000000000000000000000000000000000000000 PUSH0 MSTORE PUSH1 0x11 PUSH1 0x4 MSTORE PUSH1 0x24 PUSH0 REVERT JUMPDEST PUSH0 PUSH2 0x24F DUP3 PUSH2 0x18E JUMP JUMPDEST SWAP2 POP PUSH2 0x25A DUP4 PUSH2 0x18E JUMP JUMPDEST SWAP3 POP DUP3 DUP3 ADD SWAP1 POP DUP1 DUP3 GT ISZERO PUSH2 0x272 JUMPI PUSH2 0x271 PUSH2 0x218 JUMP JUMPDEST JUMPDEST SWAP3 SWAP2 POP POP JUMP JUMPDEST PUSH0 DUP3 DUP3 MSTORE PUSH1 0x20 DUP3 ADD SWAP1 POP SWAP3 SWAP2 POP POP JUMP JUMPDEST PUSH32 0x5061796D656E74206D757374206265203130206575726F730000000000000000 PUSH0 DUP3 ADD MSTORE POP JUMP JUMPDEST PUSH0 PUSH2 0x2BC PUSH1 0x18 DUP4 PUSH2 0x278 JUMP JUMPDEST SWAP2 POP PUSH2 0x2C7 DUP3 PUSH2 0x288 JUMP JUMPDEST PUSH1 0x20 DUP3 ADD SWAP1 POP SWAP2 SWAP1 POP JUMP JUMPDEST PUSH0 PUSH1 0x20 DUP3 ADD SWAP1 POP DUP2 DUP2 SUB PUSH0 DUP4 ADD MSTORE PUSH2 0x2E9 DUP2 PUSH2 0x2B0 JUMP JUMPDEST SWAP1 POP SWAP2 SWAP1 POP JUMP INVALID LOG2 PUSH5 0x6970667358 0x22 SLT KECCAK256 RETURNDATASIZE PUSH0 CALLER 0xDF STOP 0x2D 0xAF PUSH11 0x39A410B0607DAE2172006A PUSH13 0x142EA46D7C8231B98D82275A64 PUSH20 0x6F6C634300081A00330000000000000000000000 "
				},
				"gasEstimates": {
					"creation": {
						"codeDepositCost": "161200",
						"executionCost": "24472",
						"totalCost": "185672"
					},
					"external": {
						"Fund()": "infinite",
						"balance()": "2446",
						"getPriceOfEth()": "infinite"
					}
				},
				"methodIdentifiers": {
					"Fund()": "6ce1417e",
					"balance()": "b69ef8a8",
					"getPriceOfEth()": "5bbe8ef1"
				}
			},
			"storageLayout": {
				"storage": [
					{
						"astId": 47,
						"contract": "Contracts/pay_contract.sol:PayContract",
						"label": "balance",
						"offset": 0,
						"slot": "0",
						"type": "t_uint256"
					},
					{
						"astId": 53,
						"contract": "Contracts/pay_contract.sol:PayContract",
						"label": "aggregator",
						"offset": 0,
						"slot": "1",
						"type": "t_contract(AggregatorV3Interface)45"
					}
				],
				"types": {
					"t_contract(AggregatorV3Interface)45": {
						"encoding": "inplace",
						"label": "contract AggregatorV3Interface",
						"numberOfBytes": "20"
					},
					"t_uint256": {
						"encoding": "inplace",
						"label": "uint256",
						"numberOfBytes": "32"
					}
				}
			},
			"userdoc": {
				"kind": "user",
				"methods": {},
				"version": 1
			}
		}
	}
}