{
	"data": {
		"bytecode": {
			"linkReferences": {},
			"object": "6080604052348015600e575f80fd5b50610f488061001c5f395ff3fe608060405234801561000f575f80fd5b5060043610610055575f3560e01c80633d01ed4c146100595780638931940d146100635780639660ecd214610081578063c9ce44da1461009d578063fa1b454c146100cd575b5f80fd5b6100616100fd565b005b61006b610183565b6040516100789190610359565b60405180910390f35b61009b600480360381019061009691906104e9565b61018e565b005b6100b760048036038101906100b29190610555565b61023a565b6040516100c491906105bf565b60405180910390f35b6100e760048036038101906100e291906105d8565b610274565b6040516100f49190610359565b60405180910390f35b5f60405161010a90610334565b604051809103905ff080158015610123573d5f803e3d5ffd5b50908060018154018082558091505060019003905f5260205f20015f9091909190916101000a81548173ffffffffffffffffffffffffffffffffffffffff021916908373ffffffffffffffffffffffffffffffffffffffff160217905550565b5f8080549050905090565b5f8084815481106101a2576101a1610616565b5b905f5260205f20015f9054906101000a900473ffffffffffffffffffffffffffffffffffffffff1690508073ffffffffffffffffffffffffffffffffffffffff1663a685e33484846040518363ffffffff1660e01b81526004016102079291906106a3565b5f604051808303815f87803b15801561021e575f80fd5b505af1158015610230573d5f803e3d5ffd5b5050505050505050565b5f8181548110610248575f80fd5b905f5260205f20015f915054906101000a900473ffffffffffffffffffffffffffffffffffffffff1681565b5f805f848154811061028957610288610616565b5b905f5260205f20015f9054906101000a900473ffffffffffffffffffffffffffffffffffffffff1690508073ffffffffffffffffffffffffffffffffffffffff1663afeaf835846040518263ffffffff1660e01b81526004016102ec9190610359565b602060405180830381865afa158015610307573d5f803e3d5ffd5b505050506040513d601f19601f8201168201806040525081019061032b91906106e5565b91505092915050565b6108028061071183390190565b5f819050919050565b61035381610341565b82525050565b5f60208201905061036c5f83018461034a565b92915050565b5f604051905090565b5f80fd5b5f80fd5b61038c81610341565b8114610396575f80fd5b50565b5f813590506103a781610383565b92915050565b5f80fd5b5f80fd5b5f601f19601f8301169050919050565b7f4e487b71000000000000000000000000000000000000000000000000000000005f52604160045260245ffd5b6103fb826103b5565b810181811067ffffffffffffffff8211171561041a576104196103c5565b5b80604052505050565b5f61042c610372565b905061043882826103f2565b919050565b5f67ffffffffffffffff821115610457576104566103c5565b5b610460826103b5565b9050602081019050919050565b828183375f83830152505050565b5f61048d6104888461043d565b610423565b9050828152602081018484840111156104a9576104a86103b1565b5b6104b484828561046d565b509392505050565b5f82601f8301126104d0576104cf6103ad565b5b81356104e084826020860161047b565b91505092915050565b5f805f60608486031215610500576104ff61037b565b5b5f61050d86828701610399565b935050602084013567ffffffffffffffff81111561052e5761052d61037f565b5b61053a868287016104bc565b925050604061054b86828701610399565b9150509250925092565b5f6020828403121561056a5761056961037b565b5b5f61057784828501610399565b91505092915050565b5f73ffffffffffffffffffffffffffffffffffffffff82169050919050565b5f6105a982610580565b9050919050565b6105b98161059f565b82525050565b5f6020820190506105d25f8301846105b0565b92915050565b5f80604083850312156105ee576105ed61037b565b5b5f6105fb85828601610399565b925050602061060c85828601610399565b9150509250929050565b7f4e487b71000000000000000000000000000000000000000000000000000000005f52603260045260245ffd5b5f81519050919050565b5f82825260208201905092915050565b8281835e5f83830152505050565b5f61067582610643565b61067f818561064d565b935061068f81856020860161065d565b610698816103b5565b840191505092915050565b5f6040820190508181035f8301526106bb818561066b565b90506106ca602083018461034a565b9392505050565b5f815190506106df81610383565b92915050565b5f602082840312156106fa576106f961037b565b5b5f610707848285016106d1565b9150509291505056fe6080604052348015600e575f80fd5b506107e68061001c5f395ff3fe608060405234801561000f575f80fd5b506004361061003f575f3560e01c8063502aa3b514610043578063a685e33414610074578063afeaf83514610090575b5f80fd5b61005d60048036038101906100589190610243565b6100c0565b60405161006b9291906102ed565b60405180910390f35b61008e60048036038101906100899190610447565b610174565b005b6100aa60048036038101906100a59190610243565b6101d4565b6040516100b791906104a1565b60405180910390f35b5f81815481106100ce575f80fd5b905f5260205f2090600202015f91509050805f0180546100ed906104e7565b80601f0160208091040260200160405190810160405280929190818152602001828054610119906104e7565b80156101645780601f1061013b57610100808354040283529160200191610164565b820191905f5260205f20905b81548152906001019060200180831161014757829003601f168201915b5050505050908060010154905082565b5f604051806040016040528084815260200183815250908060018154018082558091505060019003905f5260205f2090600202015f909190919091505f820151815f0190816101c391906106b4565b506020820151816001015550505050565b5f8082815481106101e8576101e7610783565b5b905f5260205f209060020201600101549050919050565b5f604051905090565b5f80fd5b5f80fd5b5f819050919050565b61022281610210565b811461022c575f80fd5b50565b5f8135905061023d81610219565b92915050565b5f6020828403121561025857610257610208565b5b5f6102658482850161022f565b91505092915050565b5f81519050919050565b5f82825260208201905092915050565b8281835e5f83830152505050565b5f601f19601f8301169050919050565b5f6102b08261026e565b6102ba8185610278565b93506102ca818560208601610288565b6102d381610296565b840191505092915050565b6102e781610210565b82525050565b5f6040820190508181035f83015261030581856102a6565b905061031460208301846102de565b9392505050565b5f80fd5b5f80fd5b7f4e487b71000000000000000000000000000000000000000000000000000000005f52604160045260245ffd5b61035982610296565b810181811067ffffffffffffffff8211171561037857610377610323565b5b80604052505050565b5f61038a6101ff565b90506103968282610350565b919050565b5f67ffffffffffffffff8211156103b5576103b4610323565b5b6103be82610296565b9050602081019050919050565b828183375f83830152505050565b5f6103eb6103e68461039b565b610381565b9050828152602081018484840111156104075761040661031f565b5b6104128482856103cb565b509392505050565b5f82601f83011261042e5761042d61031b565b5b813561043e8482602086016103d9565b91505092915050565b5f806040838503121561045d5761045c610208565b5b5f83013567ffffffffffffffff81111561047a5761047961020c565b5b6104868582860161041a565b92505060206104978582860161022f565b9150509250929050565b5f6020820190506104b45f8301846102de565b92915050565b7f4e487b71000000000000000000000000000000000000000000000000000000005f52602260045260245ffd5b5f60028204905060018216806104fe57607f821691505b602082108103610511576105106104ba565b5b50919050565b5f819050815f5260205f209050919050565b5f6020601f8301049050919050565b5f82821b905092915050565b5f600883026105737fffffffffffffffffffffffffffffffffffffffffffffffffffffffffffffffff82610538565b61057d8683610538565b95508019841693508086168417925050509392505050565b5f819050919050565b5f6105b86105b36105ae84610210565b610595565b610210565b9050919050565b5f819050919050565b6105d18361059e565b6105e56105dd826105bf565b848454610544565b825550505050565b5f90565b6105f96105ed565b6106048184846105c8565b505050565b5b818110156106275761061c5f826105f1565b60018101905061060a565b5050565b601f82111561066c5761063d81610517565b61064684610529565b81016020851015610655578190505b61066961066185610529565b830182610609565b50505b505050565b5f82821c905092915050565b5f61068c5f1984600802610671565b1980831691505092915050565b5f6106a4838361067d565b9150826002028217905092915050565b6106bd8261026e565b67ffffffffffffffff8111156106d6576106d5610323565b5b6106e082546104e7565b6106eb82828561062b565b5f60209050601f83116001811461071c575f841561070a578287015190505b6107148582610699565b86555061077b565b601f19841661072a86610517565b5f5b828110156107515784890151825560018201915060208501945060208101905061072c565b8683101561076e578489015161076a601f89168261067d565b8355505b6001600288020188555050505b505050505050565b7f4e487b71000000000000000000000000000000000000000000000000000000005f52603260045260245ffdfea26469706673582212206f2ea95ad560675653db4ef713a4a1ddd524f32f6646701ce58bb67ce5f3119964736f6c634300081a0033a264697066735822122041f123f0b105b7e9c9c95f715f909b65c0ad450f6a1a1ee4a3d135edee8977a664736f6c634300081a0033",
			"opcodes": "PUSH1 0x80 PUSH1 0x40 MSTORE CALLVALUE DUP1 ISZERO PUSH1 0xE JUMPI PUSH0 DUP1 REVERT JUMPDEST POP PUSH2 0xF48 DUP1 PUSH2 0x1C PUSH0 CODECOPY PUSH0 RETURN INVALID PUSH1 0x80 PUSH1 0x40 MSTORE CALLVALUE DUP1 ISZERO PUSH2 0xF JUMPI PUSH0 DUP1 REVERT JUMPDEST POP PUSH1 0x4 CALLDATASIZE LT PUSH2 0x55 JUMPI PUSH0 CALLDATALOAD PUSH1 0xE0 SHR DUP1 PUSH4 0x3D01ED4C EQ PUSH2 0x59 JUMPI DUP1 PUSH4 0x8931940D EQ PUSH2 0x63 JUMPI DUP1 PUSH4 0x9660ECD2 EQ PUSH2 0x81 JUMPI DUP1 PUSH4 0xC9CE44DA EQ PUSH2 0x9D JUMPI DUP1 PUSH4 0xFA1B454C EQ PUSH2 0xCD JUMPI JUMPDEST PUSH0 DUP1 REVERT JUMPDEST PUSH2 0x61 PUSH2 0xFD JUMP JUMPDEST STOP JUMPDEST PUSH2 0x6B PUSH2 0x183 JUMP JUMPDEST PUSH1 0x40 MLOAD PUSH2 0x78 SWAP2 SWAP1 PUSH2 0x359 JUMP JUMPDEST PUSH1 0x40 MLOAD DUP1 SWAP2 SUB SWAP1 RETURN JUMPDEST PUSH2 0x9B PUSH1 0x4 DUP1 CALLDATASIZE SUB DUP2 ADD SWAP1 PUSH2 0x96 SWAP2 SWAP1 PUSH2 0x4E9 JUMP JUMPDEST PUSH2 0x18E JUMP JUMPDEST STOP JUMPDEST PUSH2 0xB7 PUSH1 0x4 DUP1 CALLDATASIZE SUB DUP2 ADD SWAP1 PUSH2 0xB2 SWAP2 SWAP1 PUSH2 0x555 JUMP JUMPDEST PUSH2 0x23A JUMP JUMPDEST PUSH1 0x40 MLOAD PUSH2 0xC4 SWAP2 SWAP1 PUSH2 0x5BF JUMP JUMPDEST PUSH1 0x40 MLOAD DUP1 SWAP2 SUB SWAP1 RETURN JUMPDEST PUSH2 0xE7 PUSH1 0x4 DUP1 CALLDATASIZE SUB DUP2 ADD SWAP1 PUSH2 0xE2 SWAP2 SWAP1 PUSH2 0x5D8 JUMP JUMPDEST PUSH2 0x274 JUMP JUMPDEST PUSH1 0x40 MLOAD PUSH2 0xF4 SWAP2 SWAP1 PUSH2 0x359 JUMP JUMPDEST PUSH1 0x40 MLOAD DUP1 SWAP2 SUB SWAP1 RETURN JUMPDEST PUSH0 PUSH1 0x40 MLOAD PUSH2 0x10A SWAP1 PUSH2 0x334 JUMP JUMPDEST PUSH1 0x40 MLOAD DUP1 SWAP2 SUB SWAP1 PUSH0 CREATE DUP1 ISZERO DUP1 ISZERO PUSH2 0x123 JUMPI RETURNDATASIZE PUSH0 DUP1 RETURNDATACOPY RETURNDATASIZE PUSH0 REVERT JUMPDEST POP SWAP1 DUP1 PUSH1 0x1 DUP2 SLOAD ADD DUP1 DUP3 SSTORE DUP1 SWAP2 POP POP PUSH1 0x1 SWAP1 SUB SWAP1 PUSH0 MSTORE PUSH1 0x20 PUSH0 KECCAK256 ADD PUSH0 SWAP1 SWAP2 SWAP1 SWAP2 SWAP1 SWAP2 PUSH2 0x100 EXP DUP2 SLOAD DUP2 PUSH20 0xFFFFFFFFFFFFFFFFFFFFFFFFFFFFFFFFFFFFFFFF MUL NOT AND SWAP1 DUP4 PUSH20 0xFFFFFFFFFFFFFFFFFFFFFFFFFFFFFFFFFFFFFFFF AND MUL OR SWAP1 SSTORE POP JUMP JUMPDEST PUSH0 DUP1 DUP1 SLOAD SWAP1 POP SWAP1 POP SWAP1 JUMP JUMPDEST PUSH0 DUP1 DUP5 DUP2 SLOAD DUP2 LT PUSH2 0x1A2 JUMPI PUSH2 0x1A1 PUSH2 0x616 JUMP JUMPDEST JUMPDEST SWAP1 PUSH0 MSTORE PUSH1 0x20 PUSH0 KECCAK256 ADD PUSH0 SWAP1 SLOAD SWAP1 PUSH2 0x100 EXP SWAP1 DIV PUSH20 0xFFFFFFFFFFFFFFFFFFFFFFFFFFFFFFFFFFFFFFFF AND SWAP1 POP DUP1 PUSH20 0xFFFFFFFFFFFFFFFFFFFFFFFFFFFFFFFFFFFFFFFF AND PUSH4 0xA685E334 DUP5 DUP5 PUSH1 0x40 MLOAD DUP4 PUSH4 0xFFFFFFFF AND PUSH1 0xE0 SHL DUP2 MSTORE PUSH1 0x4 ADD PUSH2 0x207 SWAP3 SWAP2 SWAP1 PUSH2 0x6A3 JUMP JUMPDEST PUSH0 PUSH1 0x40 MLOAD DUP1 DUP4 SUB DUP2 PUSH0 DUP8 DUP1 EXTCODESIZE ISZERO DUP1 ISZERO PUSH2 0x21E JUMPI PUSH0 DUP1 REVERT JUMPDEST POP GAS CALL ISZERO DUP1 ISZERO PUSH2 0x230 JUMPI RETURNDATASIZE PUSH0 DUP1 RETURNDATACOPY RETURNDATASIZE PUSH0 REVERT JUMPDEST POP POP POP POP POP POP POP POP JUMP JUMPDEST PUSH0 DUP2 DUP2 SLOAD DUP2 LT PUSH2 0x248 JUMPI PUSH0 DUP1 REVERT JUMPDEST SWAP1 PUSH0 MSTORE PUSH1 0x20 PUSH0 KECCAK256 ADD PUSH0 SWAP2 POP SLOAD SWAP1 PUSH2 0x100 EXP SWAP1 DIV PUSH20 0xFFFFFFFFFFFFFFFFFFFFFFFFFFFFFFFFFFFFFFFF AND DUP2 JUMP JUMPDEST PUSH0 DUP1 PUSH0 DUP5 DUP2 SLOAD DUP2 LT PUSH2 0x289 JUMPI PUSH2 0x288 PUSH2 0x616 JUMP JUMPDEST JUMPDEST SWAP1 PUSH0 MSTORE PUSH1 0x20 PUSH0 KECCAK256 ADD PUSH0 SWAP1 SLOAD SWAP1 PUSH2 0x100 EXP SWAP1 DIV PUSH20 0xFFFFFFFFFFFFFFFFFFFFFFFFFFFFFFFFFFFFFFFF AND SWAP1 POP DUP1 PUSH20 0xFFFFFFFFFFFFFFFFFFFFFFFFFFFFFFFFFFFFFFFF AND PUSH4 0xAFEAF835 DUP5 PUSH1 0x40 MLOAD DUP3 PUSH4 0xFFFFFFFF AND PUSH1 0xE0 SHL DUP2 MSTORE PUSH1 0x4 ADD PUSH2 0x2EC SWAP2 SWAP1 PUSH2 0x359 JUMP JUMPDEST PUSH1 0x20 PUSH1 0x40 MLOAD DUP1 DUP4 SUB DUP2 DUP7 GAS STATICCALL ISZERO DUP1 ISZERO PUSH2 0x307 JUMPI RETURNDATASIZE PUSH0 DUP1 RETURNDATACOPY RETURNDATASIZE PUSH0 REVERT JUMPDEST POP POP POP POP PUSH1 0x40 MLOAD RETURNDATASIZE PUSH1 0x1F NOT PUSH1 0x1F DUP3 ADD AND DUP3 ADD DUP1 PUSH1 0x40 MSTORE POP DUP2 ADD SWAP1 PUSH2 0x32B SWAP2 SWAP1 PUSH2 0x6E5 JUMP JUMPDEST SWAP2 POP POP SWAP3 SWAP2 POP POP JUMP JUMPDEST PUSH2 0x802 DUP1 PUSH2 0x711 DUP4 CODECOPY ADD SWAP1 JUMP JUMPDEST PUSH0 DUP2 SWAP1 POP SWAP2 SWAP1 POP JUMP JUMPDEST PUSH2 0x353 DUP2 PUSH2 0x341 JUMP JUMPDEST DUP3 MSTORE POP POP JUMP JUMPDEST PUSH0 PUSH1 0x20 DUP3 ADD SWAP1 POP PUSH2 0x36C PUSH0 DUP4 ADD DUP5 PUSH2 0x34A JUMP JUMPDEST SWAP3 SWAP2 POP POP JUMP JUMPDEST PUSH0 PUSH1 0x40 MLOAD SWAP1 POP SWAP1 JUMP JUMPDEST PUSH0 DUP1 REVERT JUMPDEST PUSH0 DUP1 REVERT JUMPDEST PUSH2 0x38C DUP2 PUSH2 0x341 JUMP JUMPDEST DUP2 EQ PUSH2 0x396 JUMPI PUSH0 DUP1 REVERT JUMPDEST POP JUMP JUMPDEST PUSH0 DUP2 CALLDATALOAD SWAP1 POP PUSH2 0x3A7 DUP2 PUSH2 0x383 JUMP JUMPDEST SWAP3 SWAP2 POP POP JUMP JUMPDEST PUSH0 DUP1 REVERT JUMPDEST PUSH0 DUP1 REVERT JUMPDEST PUSH0 PUSH1 0x1F NOT PUSH1 0x1F DUP4 ADD AND SWAP1 POP SWAP2 SWAP1 POP JUMP JUMPDEST PUSH32 0x4E487B7100000000000000000000000000000000000000000000000000000000 PUSH0 MSTORE PUSH1 0x41 PUSH1 0x4 MSTORE PUSH1 0x24 PUSH0 REVERT JUMPDEST PUSH2 0x3FB DUP3 PUSH2 0x3B5 JUMP JUMPDEST DUP2 ADD DUP2 DUP2 LT PUSH8 0xFFFFFFFFFFFFFFFF DUP3 GT OR ISZERO PUSH2 0x41A JUMPI PUSH2 0x419 PUSH2 0x3C5 JUMP JUMPDEST JUMPDEST DUP1 PUSH1 0x40 MSTORE POP POP POP JUMP JUMPDEST PUSH0 PUSH2 0x42C PUSH2 0x372 JUMP JUMPDEST SWAP1 POP PUSH2 0x438 DUP3 DUP3 PUSH2 0x3F2 JUMP JUMPDEST SWAP2 SWAP1 POP JUMP JUMPDEST PUSH0 PUSH8 0xFFFFFFFFFFFFFFFF DUP3 GT ISZERO PUSH2 0x457 JUMPI PUSH2 0x456 PUSH2 0x3C5 JUMP JUMPDEST JUMPDEST PUSH2 0x460 DUP3 PUSH2 0x3B5 JUMP JUMPDEST SWAP1 POP PUSH1 0x20 DUP2 ADD SWAP1 POP SWAP2 SWAP1 POP JUMP JUMPDEST DUP3 DUP2 DUP4 CALLDATACOPY PUSH0 DUP4 DUP4 ADD MSTORE POP POP POP JUMP JUMPDEST PUSH0 PUSH2 0x48D PUSH2 0x488 DUP5 PUSH2 0x43D JUMP JUMPDEST PUSH2 0x423 JUMP JUMPDEST SWAP1 POP DUP3 DUP2 MSTORE PUSH1 0x20 DUP2 ADD DUP5 DUP5 DUP5 ADD GT ISZERO PUSH2 0x4A9 JUMPI PUSH2 0x4A8 PUSH2 0x3B1 JUMP JUMPDEST JUMPDEST PUSH2 0x4B4 DUP5 DUP3 DUP6 PUSH2 0x46D JUMP JUMPDEST POP SWAP4 SWAP3 POP POP POP JUMP JUMPDEST PUSH0 DUP3 PUSH1 0x1F DUP4 ADD SLT PUSH2 0x4D0 JUMPI PUSH2 0x4CF PUSH2 0x3AD JUMP JUMPDEST JUMPDEST DUP2 CALLDATALOAD PUSH2 0x4E0 DUP5 DUP3 PUSH1 0x20 DUP7 ADD PUSH2 0x47B JUMP JUMPDEST SWAP2 POP POP SWAP3 SWAP2 POP POP JUMP JUMPDEST PUSH0 DUP1 PUSH0 PUSH1 0x60 DUP5 DUP7 SUB SLT ISZERO PUSH2 0x500 JUMPI PUSH2 0x4FF PUSH2 0x37B JUMP JUMPDEST JUMPDEST PUSH0 PUSH2 0x50D DUP7 DUP3 DUP8 ADD PUSH2 0x399 JUMP JUMPDEST SWAP4 POP POP PUSH1 0x20 DUP5 ADD CALLDATALOAD PUSH8 0xFFFFFFFFFFFFFFFF DUP2 GT ISZERO PUSH2 0x52E JUMPI PUSH2 0x52D PUSH2 0x37F JUMP JUMPDEST JUMPDEST PUSH2 0x53A DUP7 DUP3 DUP8 ADD PUSH2 0x4BC JUMP JUMPDEST SWAP3 POP POP PUSH1 0x40 PUSH2 0x54B DUP7 DUP3 DUP8 ADD PUSH2 0x399 JUMP JUMPDEST SWAP2 POP POP SWAP3 POP SWAP3 POP SWAP3 JUMP JUMPDEST PUSH0 PUSH1 0x20 DUP3 DUP5 SUB SLT ISZERO PUSH2 0x56A JUMPI PUSH2 0x569 PUSH2 0x37B JUMP JUMPDEST JUMPDEST PUSH0 PUSH2 0x577 DUP5 DUP3 DUP6 ADD PUSH2 0x399 JUMP JUMPDEST SWAP2 POP POP SWAP3 SWAP2 POP POP JUMP JUMPDEST PUSH0 PUSH20 0xFFFFFFFFFFFFFFFFFFFFFFFFFFFFFFFFFFFFFFFF DUP3 AND SWAP1 POP SWAP2 SWAP1 POP JUMP JUMPDEST PUSH0 PUSH2 0x5A9 DUP3 PUSH2 0x580 JUMP JUMPDEST SWAP1 POP SWAP2 SWAP1 POP JUMP JUMPDEST PUSH2 0x5B9 DUP2 PUSH2 0x59F JUMP JUMPDEST DUP3 MSTORE POP POP JUMP JUMPDEST PUSH0 PUSH1 0x20 DUP3 ADD SWAP1 POP PUSH2 0x5D2 PUSH0 DUP4 ADD DUP5 PUSH2 0x5B0 JUMP JUMPDEST SWAP3 SWAP2 POP POP JUMP JUMPDEST PUSH0 DUP1 PUSH1 0x40 DUP4 DUP6 SUB SLT ISZERO PUSH2 0x5EE JUMPI PUSH2 0x5ED PUSH2 0x37B JUMP JUMPDEST JUMPDEST PUSH0 PUSH2 0x5FB DUP6 DUP3 DUP7 ADD PUSH2 0x399 JUMP JUMPDEST SWAP3 POP POP PUSH1 0x20 PUSH2 0x60C DUP6 DUP3 DUP7 ADD PUSH2 0x399 JUMP JUMPDEST SWAP2 POP POP SWAP3 POP SWAP3 SWAP1 POP JUMP JUMPDEST PUSH32 0x4E487B7100000000000000000000000000000000000000000000000000000000 PUSH0 MSTORE PUSH1 0x32 PUSH1 0x4 MSTORE PUSH1 0x24 PUSH0 REVERT JUMPDEST PUSH0 DUP2 MLOAD SWAP1 POP SWAP2 SWAP1 POP JUMP JUMPDEST PUSH0 DUP3 DUP3 MSTORE PUSH1 0x20 DUP3 ADD SWAP1 POP SWAP3 SWAP2 POP POP JUMP JUMPDEST DUP3 DUP2 DUP4 MCOPY PUSH0 DUP4 DUP4 ADD MSTORE POP POP POP JUMP JUMPDEST PUSH0 PUSH2 0x675 DUP3 PUSH2 0x643 JUMP JUMPDEST PUSH2 0x67F DUP2 DUP6 PUSH2 0x64D JUMP JUMPDEST SWAP4 POP PUSH2 0x68F DUP2 DUP6 PUSH1 0x20 DUP7 ADD PUSH2 0x65D JUMP JUMPDEST PUSH2 0x698 DUP2 PUSH2 0x3B5 JUMP JUMPDEST DUP5 ADD SWAP2 POP POP SWAP3 SWAP2 POP POP JUMP JUMPDEST PUSH0 PUSH1 0x40 DUP3 ADD SWAP1 POP DUP2 DUP2 SUB PUSH0 DUP4 ADD MSTORE PUSH2 0x6BB DUP2 DUP6 PUSH2 0x66B JUMP JUMPDEST SWAP1 POP PUSH2 0x6CA PUSH1 0x20 DUP4 ADD DUP5 PUSH2 0x34A JUMP JUMPDEST SWAP4 SWAP3 POP POP POP JUMP JUMPDEST PUSH0 DUP2 MLOAD SWAP1 POP PUSH2 0x6DF DUP2 PUSH2 0x383 JUMP JUMPDEST SWAP3 SWAP2 POP POP JUMP JUMPDEST PUSH0 PUSH1 0x20 DUP3 DUP5 SUB SLT ISZERO PUSH2 0x6FA JUMPI PUSH2 0x6F9 PUSH2 0x37B JUMP JUMPDEST JUMPDEST PUSH0 PUSH2 0x707 DUP5 DUP3 DUP6 ADD PUSH2 0x6D1 JUMP JUMPDEST SWAP2 POP POP SWAP3 SWAP2 POP POP JUMP INVALID PUSH1 0x80 PUSH1 0x40 MSTORE CALLVALUE DUP1 ISZERO PUSH1 0xE JUMPI PUSH0 DUP1 REVERT JUMPDEST POP PUSH2 0x7E6 DUP1 PUSH2 0x1C PUSH0 CODECOPY PUSH0 RETURN INVALID PUSH1 0x80 PUSH1 0x40 MSTORE CALLVALUE DUP1 ISZERO PUSH2 0xF JUMPI PUSH0 DUP1 REVERT JUMPDEST POP PUSH1 0x4 CALLDATASIZE LT PUSH2 0x3F JUMPI PUSH0 CALLDATALOAD PUSH1 0xE0 SHR DUP1 PUSH4 0x502AA3B5 EQ PUSH2 0x43 JUMPI DUP1 PUSH4 0xA685E334 EQ PUSH2 0x74 JUMPI DUP1 PUSH4 0xAFEAF835 EQ PUSH2 0x90 JUMPI JUMPDEST PUSH0 DUP1 REVERT JUMPDEST PUSH2 0x5D PUSH1 0x4 DUP1 CALLDATASIZE SUB DUP2 ADD SWAP1 PUSH2 0x58 SWAP2 SWAP1 PUSH2 0x243 JUMP JUMPDEST PUSH2 0xC0 JUMP JUMPDEST PUSH1 0x40 MLOAD PUSH2 0x6B SWAP3 SWAP2 SWAP1 PUSH2 0x2ED JUMP JUMPDEST PUSH1 0x40 MLOAD DUP1 SWAP2 SUB SWAP1 RETURN JUMPDEST PUSH2 0x8E PUSH1 0x4 DUP1 CALLDATASIZE SUB DUP2 ADD SWAP1 PUSH2 0x89 SWAP2 SWAP1 PUSH2 0x447 JUMP JUMPDEST PUSH2 0x174 JUMP JUMPDEST STOP JUMPDEST PUSH2 0xAA PUSH1 0x4 DUP1 CALLDATASIZE SUB DUP2 ADD SWAP1 PUSH2 0xA5 SWAP2 SWAP1 PUSH2 0x243 JUMP JUMPDEST PUSH2 0x1D4 JUMP JUMPDEST PUSH1 0x40 MLOAD PUSH2 0xB7 SWAP2 SWAP1 PUSH2 0x4A1 JUMP JUMPDEST PUSH1 0x40 MLOAD DUP1 SWAP2 SUB SWAP1 RETURN JUMPDEST PUSH0 DUP2 DUP2 SLOAD DUP2 LT PUSH2 0xCE JUMPI PUSH0 DUP1 REVERT JUMPDEST SWAP1 PUSH0 MSTORE PUSH1 0x20 PUSH0 KECCAK256 SWAP1 PUSH1 0x2 MUL ADD PUSH0 SWAP2 POP SWAP1 POP DUP1 PUSH0 ADD DUP1 SLOAD PUSH2 0xED SWAP1 PUSH2 0x4E7 JUMP JUMPDEST DUP1 PUSH1 0x1F ADD PUSH1 0x20 DUP1 SWAP2 DIV MUL PUSH1 0x20 ADD PUSH1 0x40 MLOAD SWAP1 DUP2 ADD PUSH1 0x40 MSTORE DUP1 SWAP3 SWAP2 SWAP1 DUP2 DUP2 MSTORE PUSH1 0x20 ADD DUP3 DUP1 SLOAD PUSH2 0x119 SWAP1 PUSH2 0x4E7 JUMP JUMPDEST DUP1 ISZERO PUSH2 0x164 JUMPI DUP1 PUSH1 0x1F LT PUSH2 0x13B JUMPI PUSH2 0x100 DUP1 DUP4 SLOAD DIV MUL DUP4 MSTORE SWAP2 PUSH1 0x20 ADD SWAP2 PUSH2 0x164 JUMP JUMPDEST DUP3 ADD SWAP2 SWAP1 PUSH0 MSTORE PUSH1 0x20 PUSH0 KECCAK256 SWAP1 JUMPDEST DUP2 SLOAD DUP2 MSTORE SWAP1 PUSH1 0x1 ADD SWAP1 PUSH1 0x20 ADD DUP1 DUP4 GT PUSH2 0x147 JUMPI DUP3 SWAP1 SUB PUSH1 0x1F AND DUP3 ADD SWAP2 JUMPDEST POP POP POP POP POP SWAP1 DUP1 PUSH1 0x1 ADD SLOAD SWAP1 POP DUP3 JUMP JUMPDEST PUSH0 PUSH1 0x40 MLOAD DUP1 PUSH1 0x40 ADD PUSH1 0x40 MSTORE DUP1 DUP5 DUP2 MSTORE PUSH1 0x20 ADD DUP4 DUP2 MSTORE POP SWAP1 DUP1 PUSH1 0x1 DUP2 SLOAD ADD DUP1 DUP3 SSTORE DUP1 SWAP2 POP POP PUSH1 0x1 SWAP1 SUB SWAP1 PUSH0 MSTORE PUSH1 0x20 PUSH0 KECCAK256 SWAP1 PUSH1 0x2 MUL ADD PUSH0 SWAP1 SWAP2 SWAP1 SWAP2 SWAP1 SWAP2 POP PUSH0 DUP3 ADD MLOAD DUP2 PUSH0 ADD SWAP1 DUP2 PUSH2 0x1C3 SWAP2 SWAP1 PUSH2 0x6B4 JUMP JUMPDEST POP PUSH1 0x20 DUP3 ADD MLOAD DUP2 PUSH1 0x1 ADD SSTORE POP POP POP POP JUMP JUMPDEST PUSH0 DUP1 DUP3 DUP2 SLOAD DUP2 LT PUSH2 0x1E8 JUMPI PUSH2 0x1E7 PUSH2 0x783 JUMP JUMPDEST JUMPDEST SWAP1 PUSH0 MSTORE PUSH1 0x20 PUSH0 KECCAK256 SWAP1 PUSH1 0x2 MUL ADD PUSH1 0x1 ADD SLOAD SWAP1 POP SWAP2 SWAP1 POP JUMP JUMPDEST PUSH0 PUSH1 0x40 MLOAD SWAP1 POP SWAP1 JUMP JUMPDEST PUSH0 DUP1 REVERT JUMPDEST PUSH0 DUP1 REVERT JUMPDEST PUSH0 DUP2 SWAP1 POP SWAP2 SWAP1 POP JUMP JUMPDEST PUSH2 0x222 DUP2 PUSH2 0x210 JUMP JUMPDEST DUP2 EQ PUSH2 0x22C JUMPI PUSH0 DUP1 REVERT JUMPDEST POP JUMP JUMPDEST PUSH0 DUP2 CALLDATALOAD SWAP1 POP PUSH2 0x23D DUP2 PUSH2 0x219 JUMP JUMPDEST SWAP3 SWAP2 POP POP JUMP JUMPDEST PUSH0 PUSH1 0x20 DUP3 DUP5 SUB SLT ISZERO PUSH2 0x258 JUMPI PUSH2 0x257 PUSH2 0x208 JUMP JUMPDEST JUMPDEST PUSH0 PUSH2 0x265 DUP5 DUP3 DUP6 ADD PUSH2 0x22F JUMP JUMPDEST SWAP2 POP POP SWAP3 SWAP2 POP POP JUMP JUMPDEST PUSH0 DUP2 MLOAD SWAP1 POP SWAP2 SWAP1 POP JUMP JUMPDEST PUSH0 DUP3 DUP3 MSTORE PUSH1 0x20 DUP3 ADD SWAP1 POP SWAP3 SWAP2 POP POP JUMP JUMPDEST DUP3 DUP2 DUP4 MCOPY PUSH0 DUP4 DUP4 ADD MSTORE POP POP POP JUMP JUMPDEST PUSH0 PUSH1 0x1F NOT PUSH1 0x1F DUP4 ADD AND SWAP1 POP SWAP2 SWAP1 POP JUMP JUMPDEST PUSH0 PUSH2 0x2B0 DUP3 PUSH2 0x26E JUMP JUMPDEST PUSH2 0x2BA DUP2 DUP6 PUSH2 0x278 JUMP JUMPDEST SWAP4 POP PUSH2 0x2CA DUP2 DUP6 PUSH1 0x20 DUP7 ADD PUSH2 0x288 JUMP JUMPDEST PUSH2 0x2D3 DUP2 PUSH2 0x296 JUMP JUMPDEST DUP5 ADD SWAP2 POP POP SWAP3 SWAP2 POP POP JUMP JUMPDEST PUSH2 0x2E7 DUP2 PUSH2 0x210 JUMP JUMPDEST DUP3 MSTORE POP POP JUMP JUMPDEST PUSH0 PUSH1 0x40 DUP3 ADD SWAP1 POP DUP2 DUP2 SUB PUSH0 DUP4 ADD MSTORE PUSH2 0x305 DUP2 DUP6 PUSH2 0x2A6 JUMP JUMPDEST SWAP1 POP PUSH2 0x314 PUSH1 0x20 DUP4 ADD DUP5 PUSH2 0x2DE JUMP JUMPDEST SWAP4 SWAP3 POP POP POP JUMP JUMPDEST PUSH0 DUP1 REVERT JUMPDEST PUSH0 DUP1 REVERT JUMPDEST PUSH32 0x4E487B7100000000000000000000000000000000000000000000000000000000 PUSH0 MSTORE PUSH1 0x41 PUSH1 0x4 MSTORE PUSH1 0x24 PUSH0 REVERT JUMPDEST PUSH2 0x359 DUP3 PUSH2 0x296 JUMP JUMPDEST DUP2 ADD DUP2 DUP2 LT PUSH8 0xFFFFFFFFFFFFFFFF DUP3 GT OR ISZERO PUSH2 0x378 JUMPI PUSH2 0x377 PUSH2 0x323 JUMP JUMPDEST JUMPDEST DUP1 PUSH1 0x40 MSTORE POP POP POP JUMP JUMPDEST PUSH0 PUSH2 0x38A PUSH2 0x1FF JUMP JUMPDEST SWAP1 POP PUSH2 0x396 DUP3 DUP3 PUSH2 0x350 JUMP JUMPDEST SWAP2 SWAP1 POP JUMP JUMPDEST PUSH0 PUSH8 0xFFFFFFFFFFFFFFFF DUP3 GT ISZERO PUSH2 0x3B5 JUMPI PUSH2 0x3B4 PUSH2 0x323 JUMP JUMPDEST JUMPDEST PUSH2 0x3BE DUP3 PUSH2 0x296 JUMP JUMPDEST SWAP1 POP PUSH1 0x20 DUP2 ADD SWAP1 POP SWAP2 SWAP1 POP JUMP JUMPDEST DUP3 DUP2 DUP4 CALLDATACOPY PUSH0 DUP4 DUP4 ADD MSTORE POP POP POP JUMP JUMPDEST PUSH0 PUSH2 0x3EB PUSH2 0x3E6 DUP5 PUSH2 0x39B JUMP JUMPDEST PUSH2 0x381 JUMP JUMPDEST SWAP1 POP DUP3 DUP2 MSTORE PUSH1 0x20 DUP2 ADD DUP5 DUP5 DUP5 ADD GT ISZERO PUSH2 0x407 JUMPI PUSH2 0x406 PUSH2 0x31F JUMP JUMPDEST JUMPDEST PUSH2 0x412 DUP5 DUP3 DUP6 PUSH2 0x3CB JUMP JUMPDEST POP SWAP4 SWAP3 POP POP POP JUMP JUMPDEST PUSH0 DUP3 PUSH1 0x1F DUP4 ADD SLT PUSH2 0x42E JUMPI PUSH2 0x42D PUSH2 0x31B JUMP JUMPDEST JUMPDEST DUP2 CALLDATALOAD PUSH2 0x43E DUP5 DUP3 PUSH1 0x20 DUP7 ADD PUSH2 0x3D9 JUMP JUMPDEST SWAP2 POP POP SWAP3 SWAP2 POP POP JUMP JUMPDEST PUSH0 DUP1 PUSH1 0x40 DUP4 DUP6 SUB SLT ISZERO PUSH2 0x45D JUMPI PUSH2 0x45C PUSH2 0x208 JUMP JUMPDEST JUMPDEST PUSH0 DUP4 ADD CALLDATALOAD PUSH8 0xFFFFFFFFFFFFFFFF DUP2 GT ISZERO PUSH2 0x47A JUMPI PUSH2 0x479 PUSH2 0x20C JUMP JUMPDEST JUMPDEST PUSH2 0x486 DUP6 DUP3 DUP7 ADD PUSH2 0x41A JUMP JUMPDEST SWAP3 POP POP PUSH1 0x20 PUSH2 0x497 DUP6 DUP3 DUP7 ADD PUSH2 0x22F JUMP JUMPDEST SWAP2 POP POP SWAP3 POP SWAP3 SWAP1 POP JUMP JUMPDEST PUSH0 PUSH1 0x20 DUP3 ADD SWAP1 POP PUSH2 0x4B4 PUSH0 DUP4 ADD DUP5 PUSH2 0x2DE JUMP JUMPDEST SWAP3 SWAP2 POP POP JUMP JUMPDEST PUSH32 0x4E487B7100000000000000000000000000000000000000000000000000000000 PUSH0 MSTORE PUSH1 0x22 PUSH1 0x4 MSTORE PUSH1 0x24 PUSH0 REVERT JUMPDEST PUSH0 PUSH1 0x2 DUP3 DIV SWAP1 POP PUSH1 0x1 DUP3 AND DUP1 PUSH2 0x4FE JUMPI PUSH1 0x7F DUP3 AND SWAP2 POP JUMPDEST PUSH1 0x20 DUP3 LT DUP2 SUB PUSH2 0x511 JUMPI PUSH2 0x510 PUSH2 0x4BA JUMP JUMPDEST JUMPDEST POP SWAP2 SWAP1 POP JUMP JUMPDEST PUSH0 DUP2 SWAP1 POP DUP2 PUSH0 MSTORE PUSH1 0x20 PUSH0 KECCAK256 SWAP1 POP SWAP2 SWAP1 POP JUMP JUMPDEST PUSH0 PUSH1 0x20 PUSH1 0x1F DUP4 ADD DIV SWAP1 POP SWAP2 SWAP1 POP JUMP JUMPDEST PUSH0 DUP3 DUP3 SHL SWAP1 POP SWAP3 SWAP2 POP POP JUMP JUMPDEST PUSH0 PUSH1 0x8 DUP4 MUL PUSH2 0x573 PUSH32 0xFFFFFFFFFFFFFFFFFFFFFFFFFFFFFFFFFFFFFFFFFFFFFFFFFFFFFFFFFFFFFFFF DUP3 PUSH2 0x538 JUMP JUMPDEST PUSH2 0x57D DUP7 DUP4 PUSH2 0x538 JUMP JUMPDEST SWAP6 POP DUP1 NOT DUP5 AND SWAP4 POP DUP1 DUP7 AND DUP5 OR SWAP3 POP POP POP SWAP4 SWAP3 POP POP POP JUMP JUMPDEST PUSH0 DUP2 SWAP1 POP SWAP2 SWAP1 POP JUMP JUMPDEST PUSH0 PUSH2 0x5B8 PUSH2 0x5B3 PUSH2 0x5AE DUP5 PUSH2 0x210 JUMP JUMPDEST PUSH2 0x595 JUMP JUMPDEST PUSH2 0x210 JUMP JUMPDEST SWAP1 POP SWAP2 SWAP1 POP JUMP JUMPDEST PUSH0 DUP2 SWAP1 POP SWAP2 SWAP1 POP JUMP JUMPDEST PUSH2 0x5D1 DUP4 PUSH2 0x59E JUMP JUMPDEST PUSH2 0x5E5 PUSH2 0x5DD DUP3 PUSH2 0x5BF JUMP JUMPDEST DUP5 DUP5 SLOAD PUSH2 0x544 JUMP JUMPDEST DUP3 SSTORE POP POP POP POP JUMP JUMPDEST PUSH0 SWAP1 JUMP JUMPDEST PUSH2 0x5F9 PUSH2 0x5ED JUMP JUMPDEST PUSH2 0x604 DUP2 DUP5 DUP5 PUSH2 0x5C8 JUMP JUMPDEST POP POP POP JUMP JUMPDEST JUMPDEST DUP2 DUP2 LT ISZERO PUSH2 0x627 JUMPI PUSH2 0x61C PUSH0 DUP3 PUSH2 0x5F1 JUMP JUMPDEST PUSH1 0x1 DUP2 ADD SWAP1 POP PUSH2 0x60A JUMP JUMPDEST POP POP JUMP JUMPDEST PUSH1 0x1F DUP3 GT ISZERO PUSH2 0x66C JUMPI PUSH2 0x63D DUP2 PUSH2 0x517 JUMP JUMPDEST PUSH2 0x646 DUP5 PUSH2 0x529 JUMP JUMPDEST DUP2 ADD PUSH1 0x20 DUP6 LT ISZERO PUSH2 0x655 JUMPI DUP2 SWAP1 POP JUMPDEST PUSH2 0x669 PUSH2 0x661 DUP6 PUSH2 0x529 JUMP JUMPDEST DUP4 ADD DUP3 PUSH2 0x609 JUMP JUMPDEST POP POP JUMPDEST POP POP POP JUMP JUMPDEST PUSH0 DUP3 DUP3 SHR SWAP1 POP SWAP3 SWAP2 POP POP JUMP JUMPDEST PUSH0 PUSH2 0x68C PUSH0 NOT DUP5 PUSH1 0x8 MUL PUSH2 0x671 JUMP JUMPDEST NOT DUP1 DUP4 AND SWAP2 POP POP SWAP3 SWAP2 POP POP JUMP JUMPDEST PUSH0 PUSH2 0x6A4 DUP4 DUP4 PUSH2 0x67D JUMP JUMPDEST SWAP2 POP DUP3 PUSH1 0x2 MUL DUP3 OR SWAP1 POP SWAP3 SWAP2 POP POP JUMP JUMPDEST PUSH2 0x6BD DUP3 PUSH2 0x26E JUMP JUMPDEST PUSH8 0xFFFFFFFFFFFFFFFF DUP2 GT ISZERO PUSH2 0x6D6 JUMPI PUSH2 0x6D5 PUSH2 0x323 JUMP JUMPDEST JUMPDEST PUSH2 0x6E0 DUP3 SLOAD PUSH2 0x4E7 JUMP JUMPDEST PUSH2 0x6EB DUP3 DUP3 DUP6 PUSH2 0x62B JUMP JUMPDEST PUSH0 PUSH1 0x20 SWAP1 POP PUSH1 0x1F DUP4 GT PUSH1 0x1 DUP2 EQ PUSH2 0x71C JUMPI PUSH0 DUP5 ISZERO PUSH2 0x70A JUMPI DUP3 DUP8 ADD MLOAD SWAP1 POP JUMPDEST PUSH2 0x714 DUP6 DUP3 PUSH2 0x699 JUMP JUMPDEST DUP7 SSTORE POP PUSH2 0x77B JUMP JUMPDEST PUSH1 0x1F NOT DUP5 AND PUSH2 0x72A DUP7 PUSH2 0x517 JUMP JUMPDEST PUSH0 JUMPDEST DUP3 DUP2 LT ISZERO PUSH2 0x751 JUMPI DUP5 DUP10 ADD MLOAD DUP3 SSTORE PUSH1 0x1 DUP3 ADD SWAP2 POP PUSH1 0x20 DUP6 ADD SWAP5 POP PUSH1 0x20 DUP2 ADD SWAP1 POP PUSH2 0x72C JUMP JUMPDEST DUP7 DUP4 LT ISZERO PUSH2 0x76E JUMPI DUP5 DUP10 ADD MLOAD PUSH2 0x76A PUSH1 0x1F DUP10 AND DUP3 PUSH2 0x67D JUMP JUMPDEST DUP4 SSTORE POP JUMPDEST PUSH1 0x1 PUSH1 0x2 DUP9 MUL ADD DUP9 SSTORE POP POP POP JUMPDEST POP POP POP POP POP POP JUMP JUMPDEST PUSH32 0x4E487B7100000000000000000000000000000000000000000000000000000000 PUSH0 MSTORE PUSH1 0x32 PUSH1 0x4 MSTORE PUSH1 0x24 PUSH0 REVERT INVALID LOG2 PUSH5 0x6970667358 0x22 SLT KECCAK256 PUSH16 0x2EA95AD560675653DB4EF713A4A1DDD5 0x24 RETURN 0x2F PUSH7 0x46701CE58BB67C 0xE5 RETURN GT SWAP10 PUSH5 0x736F6C6343 STOP ADDMOD BYTE STOP CALLER LOG2 PUSH5 0x6970667358 0x22 SLT KECCAK256 COINBASE CALL 0x23 CREATE 0xB1 SDIV 0xB7 0xE9 0xC9 0xC9 PUSH0 PUSH18 0x5F909B65C0AD450F6A1A1EE4A3D135EDEE89 PUSH24 0xA664736F6C634300081A0033000000000000000000000000 "
		},
		"gasEstimates": {
			"creation": {
				"codeDepositCost": "782400",
				"executionCost": "816",
				"totalCost": "783216"
			},
			"external": {
				"addNewUserInHelloContract(uint256,string,uint256)": "infinite",
				"createNewHelloContract()": "infinite",
				"listOfHelloAdressesContracts(uint256)": "4987",
				"showUserAge(uint256,uint256)": "infinite",
				"showlist()": "2440"
			}
		},
		"methodIdentifiers": {
			"addNewUserInHelloContract(uint256,string,uint256)": "9660ecd2",
			"createNewHelloContract()": "3d01ed4c",
			"listOfHelloAdressesContracts(uint256)": "c9ce44da",
			"showUserAge(uint256,uint256)": "fa1b454c",
			"showlist()": "8931940d"
		}
	},
	"abi": [
		{
			"inputs": [
				{
					"internalType": "uint256",
					"name": "contractIndex",
					"type": "uint256"
				},
				{
					"internalType": "string",
					"name": "name",
					"type": "string"
				},
				{
					"internalType": "uint256",
					"name": "useAge",
					"type": "uint256"
				}
			],
			"name": "addNewUserInHelloContract",
			"outputs": [],
			"stateMutability": "nonpayable",
			"type": "function"
		},
		{
			"inputs": [],
			"name": "createNewHelloContract",
			"outputs": [],
			"stateMutability": "nonpayable",
			"type": "function"
		},
		{
			"inputs": [
				{
					"internalType": "uint256",
					"name": "",
					"type": "uint256"
				}
			],
			"name": "listOfHelloAdressesContracts",
			"outputs": [
				{
					"internalType": "address",
					"name": "",
					"type": "address"
				}
			],
			"stateMutability": "view",
			"type": "function"
		},
		{
			"inputs": [
				{
					"internalType": "uint256",
					"name": "contractIndex",
					"type": "uint256"
				},
				{
					"internalType": "uint256",
					"name": "userIndex",
					"type": "uint256"
				}
			],
			"name": "showUserAge",
			"outputs": [
				{
					"internalType": "uint256",
					"name": "",
					"type": "uint256"
				}
			],
			"stateMutability": "view",
			"type": "function"
		},
		{
			"inputs": [],
			"name": "showlist",
			"outputs": [
				{
					"internalType": "uint256",
					"name": "",
					"type": "uint256"
				}
			],
			"stateMutability": "view",
			"type": "function"
		}
	]
}